:020000040800F2
:1000000000000220CD2F0008AD2D0008B32D000800
:10001000B92D0008BF2D0008C52D00080000000004
:10002000000000000000000000000000C1AC00085B
:10003000CB2D00080000000011AF0008D92D0008EA
:100040001D3000081D3000081D3000081D3000085C
:100050001D3000081D3000081D3000081D3000084C
:100060001D3000081D3000081D3000081D3000083C
:100070001D3000081D3000081D3000081D3000082C
:100080001D3000081D3000081D3000081D3000081C
:100090001D3000081D3000081D3000081D3000080C
:1000A0001D3000081D3000081D3000081D300008FC
:1000B0001D3000081D3000081D300008F52D000817
:1000C0001D3000081D3000081D3000081D300008DC
:1000D0001D3000081D3000081D300008092E0008E2
:1000E0001D3000081D3000081D3000081D300008BC
:1000F0001D3000081D3000081D3000081D300008AC
:100100001D3000081D3000081D3000081D3000089B
:100110001D3000081D3000081D3000081D3000088B
:100120001D3000081D3000081D3000081D3000087B
:100130001D3000081D3000081D3000081D3000086B
:100140001D3000081D3000081D3000081D3000085B
:100150001D3000081D3000081D3000081D3000084B
:100160001D3000081D3000081D3000081D3000083B
:100170001D3000081D3000081D3000080000000080
:080180001D3000081D300008CD
:1001900010B5054C237833B9044B13B10448AFF3C1
:1001A00000800123237010BDE40100200000000046
:1001B0000804010808B5034B1BB103490348AFF31A
:1001C000008008BD00000000E801002008040108CC
:1001D000034613F8012B002AFBD1181A0138704787
:1001E00001F0FF01102A2BDB10F0070F08D010F8E8
:1001F000013B013A8B422DD010F0070F42B3F6D1EC
:10020000F0B441EA012141EA014122F007047FF004
:1002100000070023F0E80256083C85EA010586EA5B
:10022000010685FA47F5A3FA87F586FA47F6A5FA97
:1002300087F68EB9EED1F0BC01F0FF0102F00702A3
:1002400032B110F8013B013A83EA010313B1F8D14E
:100250000020704701387047002D06BF354603382F
:10026000073815F0010F07D1013015F4807F02BF68
:10027000013015F4C03F0130F0BC0138704700BFB9
:1002800081F0004102E000BF83F0004330B54FEA47
:1002900041044FEA430594EA050F08BF90EA020FB4
:1002A0001FBF54EA000C55EA020C7FEA645C7FEA47
:1002B000655C00F0E2804FEA5454D4EB5555B8BF6A
:1002C0006D420CDD2C4480EA020281EA030382EADB
:1002D000000083EA010180EA020281EA0303362D6D
:1002E00088BF30BD11F0004F4FEA01314FF4801C40
:1002F0004CEA113102D0404261EB410113F0004F52
:100300004FEA03334CEA133302D0524263EB430308
:1003100094EA050F00F0A780A4F10104D5F1200EA6
:100320000DDB02FA0EFC22FA05F2801841F1000101
:1003300003FA0EF2801843FA05F359410EE0A5F1D5
:1003400020050EF1200E012A03FA0EFC28BF4CF006
:10035000020C43FA05F3C01851EBE37101F00045BC
:1003600007D54FF0000EDCF1000C7EEB00006EEBC9
:100370000101B1F5801F1BD3B1F5001F0CD3490853
:100380005FEA30004FEA3C0C04F101044FEA4452AA
:1003900012F5800F80F09A80BCF1004F08BF5FEA31
:1003A000500C50F1000041EB045141EA050130BD11
:1003B0005FEA4C0C404141EB0101013C28BFB1F523
:1003C000801FE9D291F0000F04BF01460020B1FA6E
:1003D00081F308BF2033A3F10B03B3F120020CDA41
:1003E0000C3208DD02F1140CC2F10C0201FA0CF01F
:1003F00021FA02F10CE002F11402D8BFC2F1200C84
:1004000001FA02F120FA0CFCDCBF41EA0C01904039
:10041000E41AA2BF01EB0451294330BD6FEA040482
:100420001F3C1CDA0C340EDC04F11404C4F120026D
:1004300020FA04F001FA02F340EA030021FA04F37F
:1004400045EA030130BDC4F10C04C4F1200220FAD6
:1004500002F001FA04F340EA0300294630BD21FA14
:1004600004F0294630BD94F0000F83F4801306BFDA
:1004700081F480110134013D4EE77FEA645C18BFCE
:100480007FEA655C29D094EA050F08BF90EA020F65
:1004900005D054EA000C04BF1946104630BD91EA5D
:1004A000030F1EBF0021002030BD5FEA545C05D160
:1004B0004000494128BF41F0004130BD14F580049F
:1004C0003CBF01F5801130BD01F0004545F0FE4113
:1004D00041F470014FF0000030BD7FEA645C1ABF48
:1004E000194610467FEA655C1CBF0B46024650EA7F
:1004F000013406BF52EA033591EA030F41F40021AB
:1005000030BD00BF90F0000F04BF0021704730B530
:100510004FF4806404F132044FF000054FF0000105
:1005200050E700BF90F0000F04BF0021704730B5C6
:100530004FF4806404F1320410F0004548BF40429B
:100540004FF000013EE700BF42004FEAE2014FEAF0
:1005500031014FEA02701FBF12F07F4393F07F4FCB
:1005600081F06051704732F07F4208BF704793F0CE
:100570007F4F04BF41F40021704730B54FF46074E1
:1005800001F0004521F000411CE700BF50EA0102E4
:1005900008BF704730B54FF000050AE050EA01028D
:1005A00008BF704730B511F0004502D5404261EBFD
:1005B00041014FF4806404F132045FEA915C3FF43E
:1005C000D8AE4FF003025FEADC0C18BF03325FEADB
:1005D000DC0C18BF033202EBDC02C2F1200300FA8C
:1005E00003FC20FA02F001FA03FE40EA0E0021FAB1
:1005F00002F11444BDE600BF70B54FF0FF0C4CF49F
:10060000E06C1CEA11541DBF1CEA135594EA0C0F50
:1006100095EA0C0F00F0DEF82C4481EA030621EA8B
:100620004C5123EA4C5350EA013518BF52EA0335C6
:1006300041F4801143F4801338D0A0FB02CE4FF078
:100640000005E1FB02E506F00042E0FB03E54FF0A8
:100650000006E1FB03569CF0000F18BF4EF0010EA0
:10066000A4F1FF04B6F5007F64F5407404D25FEA9C
:100670004E0E6D4146EB060642EAC62141EA55514F
:100680004FEAC52040EA5E504FEACE2EB4F1FD0C91
:1006900088BFBCF5E06F1ED8BEF1004F08BF5FEA0F
:1006A000500E50F1000041EB045170BD06F00046C1
:1006B00046EA010140EA020081EA0301B4EB5C046E
:1006C000C2BFD4EB0C0541EA045170BD41F4801166
:1006D0004FF0000E013C00F3AB8014F1360FDEBF8B
:1006E000002001F0004170BDC4F10004203C35DA67
:1006F0000C341BDC04F11404C4F1200500FA05F3EA
:1007000020FA04F001FA05F240EA020001F000428A
:1007100021F0004110EBD37021FA04F642EB060100
:100720005EEA430E08BF20EAD37070BDC4F10C042A
:10073000C4F1200500FA04F320FA05F001FA04F2EE
:1007400040EA020001F0004110EBD37041F10001DA
:100750005EEA430E08BF20EAD37070BDC4F12005E5
:1007600000FA05F24EEA020E20FA04F301FA05F24D
:1007700043EA020321FA04F001F0004121FA04F2F5
:1007800020EA020000EBD3705EEA430E08BF20EAC5
:10079000D37070BD94F0000F0FD101F000464000FF
:1007A00041EB010111F4801F08BF013CF7D041EA81
:1007B000060195F0000F18BF704703F00046520085
:1007C00043EB030313F4801F08BF013DF7D043EA56
:1007D0000603704794EA0C0F0CEA135518BF95EA0C
:1007E0000C0F0CD050EA410618BF52EA4306D1D193
:1007F00081EA030101F000414FF0000070BD50EAB2
:10080000410606BF1046194652EA430619D094EA3B
:100810000C0F02D150EA013613D195EA0C0F05D125
:1008200052EA03361CBF104619460AD181EA030179
:1008300001F0004141F0FE4141F470014FF0000031
:1008400070BD41F0FE4141F4780170BD70B54FF0CC
:10085000FF0C4CF4E06C1CEA11541DBF1CEA13554C
:1008600094EA0C0F95EA0C0F00F0A7F8A4EB05042E
:1008700081EA030E52EA03354FEA013100F0888025
:100880004FEA03334FF0805545EA131343EA1263EE
:100890004FEA022245EA111545EA10654FEA0026A3
:1008A0000EF000419D4208BF964244F1FD0404F55C
:1008B000407402D25B084FEA3202B61A65EB0305B8
:1008C0005B084FEA32024FF480104FF4002CB6EB75
:1008D000020E75EB030E22BFB61A754640EA0C00F5
:1008E0005B084FEA3202B6EB020E75EB030E22BF35
:1008F000B61A754640EA5C005B084FEA3202B6EB76
:10090000020E75EB030E22BFB61A754640EA9C0034
:100910005B084FEA3202B6EB020E75EB030E22BF04
:10092000B61A754640EADC0055EA060E18D04FEAC2
:10093000051545EA16754FEA06164FEAC30343EA62
:1009400052734FEAC2025FEA1C1CC0D111F4801F2F
:100950000BD141EA00014FF000004FF0004CB6E728
:1009600011F4801F04BF01430020B4F1FD0C88BFC7
:10097000BCF5E06F3FF6AFAEB5EB030C04BFB6EBD2
:10098000020C5FEA500C50F1000041EB045170BDC5
:100990000EF0004E4EEA113114EB5C04C2BFD4EBF2
:1009A0000C0541EA045170BD41F480114FF0000E76
:1009B000013C90E645EA060E8DE60CEA135594EAF2
:1009C0000C0F08BF95EA0C0F3FF43BAF94EA0C0FF5
:1009D0000AD150EA01347FF434AF95EA0C0F7FF46A
:1009E00025AF104619462CE795EA0C0F06D152EABE
:1009F00003353FF4FDAE1046194622E750EA4106A2
:100A000018BF52EA43067FF4C5AE50EA41047FF4B2
:100A10000DAF52EA43057FF4EBAE12E74FF0FF3C17
:100A200006E000BF4FF0010C02E000BF4FF0010CE8
:100A30004DF804CD4FEA410C7FEA6C5C4FEA430C61
:100A400018BF7FEA6C5C1BD001B050EA410C0CBFB0
:100A500052EA430C91EA030F02BF90EA020F002012
:100A6000704710F1000F91EA030F58BF994208BF79
:100A700090422CBFD8176FEAE37040F00100704736
:100A80004FEA410C7FEA6C5C02D150EA013C07D18D
:100A90004FEA430C7FEA6C5CD6D152EA033CD3D0D8
:100AA0005DF8040B704700BF8446104662468C46D2
:100AB0001946634600E000BF01B5FFF7B7FF002805
:100AC00048BF10F1000F01BD4DF808EDFFF7F4FF2E
:100AD0000CBF012000205DF808FB00BF4DF808EDB9
:100AE000FFF7EAFF34BF012000205DF808FB00BFDC
:100AF0004DF808EDFFF7E0FF94BF012000205DF8FE
:100B000008FB00BF4DF808EDFFF7CEFF94BF0120B2
:100B100000205DF808FB00BF4DF808EDFFF7C4FFAB
:100B200034BF012000205DF808FB00BF4FEA410CF4
:100B30007FEA6C5C02D150EA013C0AD14FEA430CD7
:100B40007FEA6C5C02D152EA033C02D14FF0000014
:100B500070474FF0010070474FEA410212F5001252
:100B600015D211D56FF47873B3EB625212D94FEAF4
:100B7000C12343F0004343EA505311F0004F23FADE
:100B800002F018BF404270474FF00000704750EA33
:100B9000013005D111F0004008BF6FF000407047F0
:100BA0004FF00000704700BF4A0011D212F500124A
:100BB00011D20DD56FF47873B3EB62520ED44FEAB5
:100BC000C12343F0004343EA505323FA02F0704735
:100BD0004FF00000704750EA013002D14FF0FF3073
:100BE00070474FF0000070474FEA4102B2F1E04316
:100BF00024BFB3F5001CDCF1FE5C0DD901F0004C04
:100C00004FEAC0024CEA5070B2F1004F40EB830053
:100C100008BF20F00100704711F0804F21D113F17F
:100C20003872BCBF01F00040704741F480114FEAB8
:100C30005252C2F11802C2F1200C10FA0CF320FA41
:100C400002F018BF40F001004FEAC1234FEAD3235E
:100C500003FA0CFC40EA0C0023FA02F34FEA4303C8
:100C6000CCE77FEA625307D150EA01331EBF4FF051
:100C7000FE4040F44000704701F0004040F0FE406C
:100C800040F40000704700BF53B94AB9002908BFBB
:100C900000281CBF4FF0FF314FF0FF3000F0AAB921
:100CA000ADF1080C6DE904CE00F03CF8DDF804E08D
:100CB000DDE9022304B0704738B500220023044662
:100CC0000D46FFF70BFF28B920462946BDE83840FE
:100CD00000F00AB8204605F1004100F005F8404256
:100CE00061EB410138BD00BFD0B50C4B0022064678
:100CF0000F46FFF781FCFFF757FF0446FFF702FCA2
:100D0000074B0022FFF778FC02460B463046394677
:100D1000FFF7BAFAFFF748FF2146D0BD0000F03DCB
:100D20000000F0412DE9F047089D04468E46002B57
:100D30004DD18A42944669D9B2FA82F252B101FA8F
:100D400002F3C2F1200120FA01F10CFA02FC41EA9F
:100D5000030E94404FEA1C48210CBEFBF8F61FFA24
:100D60008CF708FB16E341EA034306FB07F19942BF
:100D70000AD91CEB030306F1FF3080F01F81994272
:100D800040F21C81023E63445B1AA4B2B3FBF8F04C
:100D900008FB103344EA034400FB07F7A7420AD9D3
:100DA0001CEB040400F1FF3380F00A81A74240F2FB
:100DB00007816444023840EA0640E41B00261DB166
:100DC000D4400023C5E900433146BDE8F0878B429B
:100DD00009D9002D00F0EF800026C5E9000130465A
:100DE0003146BDE8F087B3FA83F6002E4AD18B4234
:100DF00002D3824200F2F980841A61EB03030120DE
:100E00009E46002DE0D0C5E9004EDDE702B9FFDEC9
:100E1000B2FA82F2002A40F09280A1EB0C014FEA74
:100E20001C471FFA8CFE0126200CB1FBF7F307FBD1
:100E3000131140EA01410EFB03F0884208D91CEB74
:100E4000010103F1FF3802D2884200F2CB80434611
:100E5000091AA4B2B1FBF7F007FB101144EA0144F0
:100E60000EFB00FEA64508D91CEB040400F1FF317F
:100E700002D2A64500F2BB800846A4EB0E0440EA6D
:100E800003409CE7C6F12007B34022FA07FC4CEA76
:100E9000030C20FA07F401FA06F31C43F9404FEA69
:100EA0001C4900FA06F3B1FBF9F8200C1FFA8CFE7E
:100EB00009FB181140EA014108FB0EF0884202FAD2
:100EC00006F20BD91CEB010108F1FF3A80F0888093
:100ED000884240F28580A8F102086144091AA4B250
:100EE000B1FBF9F009FB101144EA014100FB0EFED1
:100EF0008E4508D91CEB010100F1FF346CD28E4500
:100F00006AD90238614440EA0840A0FB0294A1EB90
:100F10000E01A142C846A64656D353D05DB1B3EBED
:100F2000080261EB0E0101FA07F722FA06F3F1401D
:100F30001F43C5E9007100263146BDE8F087C2F1C4
:100F40002003D8400CFA02FC21FA03F3914001433C
:100F50004FEA1C471FFA8CFEB3FBF7F007FB103675
:100F60000B0C43EA064300FB0EF69E4204FA02F421
:100F700008D91CEB030300F1FF382FD29E422DD974
:100F8000023863449B1B89B2B3FBF7F607FB1633A9
:100F900041EA034106FB0EF38B4208D91CEB010129
:100FA00006F1FF3816D28B4214D9023E6144C91AA9
:100FB00046EA004638E72E46284605E70646E3E6B9
:100FC0001846F8E64B45A9D2B9EB020864EB0C0EC3
:100FD0000138A3E74646EAE7204694E74046D1E7D2
:100FE000D0467BE7023B614432E7304609E7644480
:100FF000023842E7704700BFB0B58CB000AFF86070
:10100000B9607A60AD4B07F118041D460FCD0FC4CF
:101010002B68237007F1290300221A809A70FB685D
:10102000BA681A60FB687A685A6000227F21F86803
:1010300000F0A6F903461A46A14B1A70A04B1B7884
:10104000002B07D007F118039E4A07CA03C31A8072
:1010500000238BE1002107F117031A46F86800F01E
:10106000AFF903461A46964B1A70954B1B78002B26
:1010700007D007F11803944A07CA03C31A80002354
:1010800074E1FB7D1A4607F12C03904918460BF0DA
:10109000D1FB07F12C0207F11803114618460BF09B
:1010A000E9FB3B7E203BDBB287F824307B7E203B94
:1010B000DBB287F825300D2387F826300A2387F81E
:1010C0002730002387F828300D233B760A237B76D0
:1010D0004923BB76FB685C6807F118031846FFF7E5
:1010E00077F803469AB207F118014FF0FF33204614
:1010F00006F00BFC00227F21F86800F041F903465E
:101100001A466F4B1A706E4B1B78002B07D007F1F5
:1011100018036F4A07CA03C31A80002326E1F1228D
:101120000621F86800F02CF903461A46644B1A7041
:10113000634B1B78002B0AD007F11803654A07CAD6
:1011400003C31A800233120C1A7000230EE10A2026
:1011500001F0D8FF01220621F86800F011F90346DA
:101160001A46574B1A70564B1B78002B0AD007F1C2
:101170001803594A07CA03C31A800233120C1A70A3
:101180000023F3E00A2001F0BDFF3F220721F868A9
:1011900000F0F6F803461A46494B1A70484B1B7884
:1011A000002B0AD007F118034C4A07CA03C31A8060
:1011B0000233120C1A700023D8E00A2001F0A2FFBB
:1011C00000220721F86800F0DBF803461A463C4B82
:1011D0001A703B4B1B78002B0AD007F11803404ACA
:1011E00007CA03C31A800233120C1A700023BDE031
:1011F00001221021F86800F0C3F803461A46304B6C
:101200001A7020227F21F86800F0BAF803461A46C7
:101210002B4B1A702A4B1B78002B07D007F11803B1
:10122000304A07CA03C31A8000239FE00722002127
:10123000F86800F0A5F803461A46214B1A70204BB7
:101240001B78002B07D007F11803274A07CA03C3EE
:101250001A8000238AE033220121F86800F090F818
:1012600003461A46164B1A70154B1B78002B07D0F5
:1012700007F118031D4A07CA03C31A80002375E04B
:1012800007221121F86800F07BF803461A460C4B40
:101290001A7000221021F86800F072F803461A460E
:1012A000074B1A70064B1B78002B23D007F118034D
:1012B0000F4A07CA03C31A80002357E0C00401087D
:1012C00000020020200401082C0401083804010851
:1012D0003C040108480401085404010860040108A2
:1012E0006C040108780401088404010890040108D2
:1012F0009C04010831221421F86800F041F80346EB
:101300001A461C4B1A701B4B1B78002B0AD007F196
:101310001803194A07CA03C31A800233120C1A7041
:10132000002323E000225321F86800F029F800226E
:101330007F21F86800F024F803461A460D4B1A7016
:101340000C4B1B78002B0AD007F118030B4A07CA75
:1013500003C31A800233120C1A70002306E06420C3
:1013600001F0D0FEF86800F04FF80023184630373F
:10137000BD46B0BD00020020A8040108B404010865
:1013800080B588B004AF78600B46FB701346BB7025
:10139000BB78FB737B681868D02399B2FB789AB24C
:1013A0004FF0FF3302930123019307F10F030093E2
:1013B000012302F091FB034618461037BD4680BD5D
:1013C00080B588B004AFF8600B467A60FB72FB68AA
:1013D0001868D02399B2FB7A9AB24FF0FF33029388
:1013E000012301937B680093012302F06FFC034605
:1013F0001A46044B1A70034B1B7818461037BD462B
:1014000080BD00BF0002002080B588B000AF7860CA
:1014100000233B8307F10C0300221A605A609A6094
:101420000023FB7755E007F118031A46342178684A
:10143000FFF7C6FF07F1180301331A463321786816
:10144000FFF7BEFF7B7E1B021AB23B7E1BB213432B
:10145000BB83B7F91C20FB681344FB6007F118033A
:101460001A4636217868FFF7ABFF07F118030133FE
:101470001A4635217868FFF7A3FF7B7E1A023B7E70
:1014800019463B690B4413433B6107F118031A46A5
:1014900038217868FFF794FF07F1180301331A46E3
:1014A00037217868FFF78CFF03461A46154B1A70F0
:1014B0007B7E1A023B7E19467B690B4413437B619A
:1014C000642001F01FFE97F91F30DBB20133DBB25D
:1014D000FB7797F91F301F2BA5DDFB685B111AB254
:1014E000094B1A803B695B111AB2074B5A807B6922
:1014F0005B111AB2044B9A80024B1B7818462037B6
:10150000BD4680BD000200200402002080B58AB0E4
:1015100000AF78600023BB8407F11C0300221A602F
:101520009A8007F124031A4636217868FFF748FFAE
:1015300003461A466B4B1A7007F1240301331A460F
:1015400035217868FFF73CFF03461A46654B1A7051
:1015500097F825301B021AB297F8243099B2624BE3
:10156000B3F902309BB2CB1A9BB21BB213431BB22E
:10157000FB83B7F91E309AB25C4BB3F902309BB2D1
:10158000D31A9BB21BB2FB82B7F91E20574B5A806D
:1015900007F124031A4638217868FFF711FF034644
:1015A0001A46504B1A7007F1240301331A463721AB
:1015B0007868FFF705FF03461A464A4B1A7097F8FA
:1015C00025301B021AB297F8243099B2464BB3F972
:1015D00004309BB2CB1A9BB21BB213431BB23B84A9
:1015E000B7F920309AB2414BB3F904309BB2D31A09
:1015F0009BB21BB23B83B7F920203C4B9A8007F18A
:1016000024031A4634217868FFF7DAFE03461A46A7
:10161000344B1A7007F1240301331A4633217868DA
:10162000FFF7CEFE03461A462E4B1A7097F8253068
:101630001B021AB297F824301BB21343FB8497F8AD
:1016400025301B021AB297F8243099B2264BB3F911
:1016500000309BB2CB1A9BB21BB213431BB2BB83AD
:10166000B7F91C309AB2214BB3F900309BB2D31AB0
:101670009BB21BB2BB82B7F91C201C4B1A80B7F976
:101680001C30BB60B7F91E30FB60B7F920303B61FE
:10169000BB6807EE903AF8EEE77A9FED157A67EEB1
:1016A000877A7B68C3ED057AFB6807EE903AF8EE1F
:1016B000E77A9FED0F7A67EE877A7B68C3ED067A4B
:1016C0003B6907EE903AF8EEE77A9FED097A67EE0C
:1016D000877A7B68C3ED077A024B1B781846283758
:1016E000BD4680BD00020020040200200C02002044
:1016F0002D237A3C80B500AF01F092FC00F040F859
:1017000000F0E4FA00F00EFA00F0B8F900F0C4F8C6
:1017100000F0B2FA00F092F800F05CF90AF03EF93D
:1017200007F052F90D4A00210D4807F097F90346DA
:101730000C4A13600C4A00210C4807F08FF903464D
:101740000B4A13600B4A00210B4807F087F9034648
:101750000A4A136007F05CF9FEE700BFC8050108FC
:10176000FD250008CC030020EC050108DD2700085A
:10177000D0030020100601084D280008D4030020E3
:1017800080B594B000AF07F1200330220021184645
:101790000AF0C8F907F10C0300221A605A609A6037
:1017A000DA601A610023BB60224B1B6C214A43F0B4
:1017B000805313641F4B1B6C03F08053BB60BB68EA
:1017C00000237B601C4B1B681B4A43F4804313605F
:1017D000194B1B6803F480437B607B6802233B62E8
:1017E0000123FB6210233B630023BB6307F120034B
:1017F000184604F0D9FB0346002B01D001F0D2F8C3
:101800000F23FB6000233B6100237B610023BB614E
:101810000023FB6107F10C030021184604F03CFE95
:101820000346002B01D001F0BDF800BF5037BD4684
:1018300080BD00BF003802400070004080B500AF9E
:10184000124B134A1A60114B124A5A600F4B002276
:101850009A600E4B0022DA600C4B4FF480421A6102
:101860000A4B00225A61094B00229A61074B002261
:10187000DA61064B00221A62044801F0E9FF0346D0
:10188000002B01D001F08EF800BF80BD14020020B3
:1018900000540040801A060080B596B000AF07F1F2
:1018A000480300221A605A609A60DA6007F1400328
:1018B00000221A605A6007F1240300221A605A605D
:1018C0009A60DA601A615A619A613B1D20220021F8
:1018D00018460AF027F93D4B3D4A1A603B4BA022BF
:1018E0005A603A4B00229A60384B4FF47A72DA60B1
:1018F000364B00221A61354B00225A61334B80224D
:101900009A61324804F0A8FF0346002B01D001F091
:1019100049F84FF48053BB6407F1480319462B483C
:1019200005F000FB0346002B01D001F03BF82748EF
:1019300004F0E1FF0346002B01D001F033F800234F
:101940003B6400237B6407F1400319461F4805F000
:10195000C1FE0346002B01D001F024F860237B6216
:101960000023BB620023FB6200237B630023BB6375
:101970000023FB6307F124030C221946134805F0EA
:101980000FFA0346002B01D001F00CF800237B6016
:101990000023BB600023FB6000233B6100237B61CD
:1019A0004FF40053BB6100233B623B1D19460748BF
:1019B00005F00CFF0346002B01D000F0F3FF0348B5
:1019C00001F06AF900BF5837BD4680BD68020020AB
:1019D0000000014080B58CB000AF07F10C03242259
:1019E000002118460AF09EF83B1D00221A605A603A
:1019F000214B4FF080421A601F4B00225A601E4B51
:101A000000229A601C4B4FF0FF32DA601A4B002222
:101A10001A61194B00229A610123FB6000233B618C
:101A200001237B610023BB610023FB6100233B6238
:101A300001237B620023BB620023FB6207F10C03DE
:101A400019460D4805F078F80346002B01D000F048
:101A5000A9FF00237B600023BB603B1D194606489D
:101A600005F038FE0346002B01D000F09BFF00BFBD
:101A70003037BD4680BD00BFB002002080B58CB0BD
:101A800000AF07F10C032422002118460AF04AF89F
:101A90003B1D00221A605A60204B214A1A601F4BDE
:101AA00000225A601D4B00229A601C4B4FF6FF72B9
:101AB000DA601A4B00221A61184B00229A61032344
:101AC000FB6000233B6101237B610023BB610A2390
:101AD000FB6100233B6201237B620023BB620A237C
:101AE000FB6207F10C0319460C4805F025F8034684
:101AF000002B01D000F056FF00237B600023BB6069
:101B00003B1D1946054805F0E5FD0346002B01D0B5
:101B100000F048FF00BF3037BD4680BDF80200200E
:101B20000004004080B596B000AF07F148030022E2
:101B30001A605A609A60DA6007F1400300221A6066
:101B40005A6007F1240300221A605A609A60DA6032
:101B50001A615A619A613B1D20220021184609F042
:101B6000E1FF434B434A1A60414B00225A60404B0D
:101B700000229A603E4B41F61F42DA603C4B002245
:101B80001A613B4B00225A61394B00229A61384856
:101B900004F062FE0346002B01D000F003FF4FF477
:101BA0008053BB6407F148031946314805F0BAF980
:101BB0000346002B01D000F0F5FE2D4804F09BFEFB
:101BC0000346002B01D000F0EDFE00233B64002310
:101BD0007B6407F140031946254805F07BFD034669
:101BE000002B01D000F0DEFE60237B620023BB628D
:101BF0000023FB6200233B6300237B630023BB6362
:101C00000023FB6307F1240300221946184805F05E
:101C1000C7F80346002B01D000F0C4FE07F12403EF
:101C200004221946124805F0BBF80346002B01D0E8
:101C300000F0B8FE00237B600023BB600023FB6044
:101C400000233B6100237B614FF40053BB61002301
:101C50003B623B1D1946064805F0B8FD0346002BC4
:101C600001D000F09FFE00BF5837BD4680BD00BFC9
:101C7000400300200004014080B500AF114B124A20
:101C80001A60104B4FF4E1325A600E4B00229A60FA
:101C90000C4B0022DA600B4B00221A61094B0C221C
:101CA0005A61084B00229A61064B0022DA6105480E
:101CB00005F0DEFD0346002B01D000F073FE00BFEF
:101CC00080BD00BF880300200048004080B58AB076
:101CD00000AF07F1140300221A605A609A60DA60BC
:101CE0001A6100233B61314B1B6B304A43F01003F8
:101CF00013632E4B1B6B03F010033B613B69002306
:101D0000FB602A4B1B6B294A43F001031363274BEB
:101D10001B6B03F00103FB60FB680023BB60234BDC
:101D20001B6B224A43F004031363204B1B6B03F02D
:101D30000403BB60BB6800237B601C4B1B6B1B4A0E
:101D400043F002031363194B1B6B03F002037B6028
:101D50007B6800224FF4BC61154801F045FD00226C
:101D60003C21144801F040FD4FF4BC637B6101232A
:101D7000BB610023FB6100233B6207F1140319469A
:101D80000B4801F095FB3C237B610123BB610023E1
:101D9000FB6102233B6207F114031946054801F079
:101DA00087FB00BF2837BD4680BD00BF003802401A
:101DB000001002400000024080B582B000AF7860A1
:101DC0001C4B1B786E2B06D11B4B00221A601B4B41
:101DD00001221A701EE0184B1B68002B09D1154B0D
:101DE0001A78174B1A70144B1B680133124A136090
:101DF00010E0114B1B68002B0CDD124B1A681346C8
:101E00009B0013445B001A460A4B1B781344303B7B
:101E10000C4A1360012207490B4805F008FE4FF6F3
:101E2000FF7301220349084805F06FFD00BF083722
:101E3000BD4680BD040400200C04002005040020E1
:101E400006040020080400208803002080B582B02A
:101E500000AF78607868FEF7BBF903469AB24FF698
:101E6000FF737968034805F050FD00BF0837BD4691
:101E700080BD00BF8803002080B5B0B000AF87ED03
:101E8000010A38600021CD4804F08EFD0421CB48C2
:101E900004F08AFD0C21CA4804F086FDC84B1B687B
:101EA00096221A64642006F06CFE07F15403242283
:101EB0000021184609F036FE4FF07E537B654FF443
:101EC000FA63FB654FF448633B66BE4B7B6607F1E4
:101ED000300324220021184609F024FE4FF07E53DF
:101EE0003B634FF4FA63BB634FF44863FB63B54B4A
:101EF0003B6407F15403184609F0B8FA07F13003C0
:101F0000184609F0B3FAB04BC7F89C30AF4BC7F88E
:101F10009830AF4BC7F894303C21AE4804F0B2FE85
:101F20003C21AD4804F0AEFEAA4B1B685B6AC7F8C3
:101F3000BC30A94B1B685B6AC7F8B83001F0D6F813
:101F4000C7F89000D7F89030C7F8B4304FF00003CE
:101F5000C7F8B0304FF00003C7F8AC300023C7F823
:101F6000A8300023C7F8A4304FF4FA63A7F8A230D2
:101F70004FF4FA63A7F8A0303B68002B14D001227D
:101F80000821964801F030FC00220421934801F01A
:101F90002BFC01221021914801F026FC0022202177
:101FA0008E4801F021FC13E0002208218B4801F04B
:101FB0001BFC01220421894801F016FC002210219B
:101FC000864801F011FC01222021844801F00CFC1C
:101FD0007A4B1B68B7F8A2205A63784B1B68B7F896
:101FE000A0209A6301F082F8C7F88C007C4B012294
:101FF0001A70D7F88C20D7F8B430D31A322BE7D91F
:10200000744B1B685B6AC7F88830734B1B685B6A4C
:10201000C7F884300023C7F8A8300023C7F8A430DD
:102020006C4B1B681B6803F01003102B18D1D7F8FA
:102030008820D7F8BC309A4207DAD7F8BC20D7F806
:102040008830D31AC7F8A83022E0D7F88830C3F513
:102050007F43FF33D7F8BC201344C7F8A83017E0FC
:10206000D7F88820D7F8BC309A4207DDD7F8882007
:10207000D7F8BC30D31AC7F8A83009E0D7F8BC307D
:10208000C3F57F43FF33D7F888201344C7F8A8303F
:10209000514B1B681B6803F01003102B18D1D7F8A5
:1020A0008420D7F8B8309A4207DAD7F8B820D7F8A2
:1020B0008430D31AC7F8A43022E0D7F88430C3F5AF
:1020C0007F43FF33D7F8B8201344C7F8A43017E094
:1020D000D7F88420D7F8B8309A4207DDD7F88420A3
:1020E000D7F8B830D31AC7F8A43009E0D7F8B83019
:1020F000C3F57F43FF33D7F884201344C7F8A430D7
:10210000D7F8A83007EE903AF8EEE76A97ED277A0D
:10211000C6EE877A97ED257A67EE277AC7ED207AA3
:1021200097ED2C7AD7ED207A77EE277AC7ED2C7AC7
:10213000D7F8A43007EE903AF8EEE76A97ED267AE2
:10214000C6EE877A97ED257A67EE277AC7ED1F7A74
:1021500097ED2B7AD7ED1F7A77EE277AC7ED2B7A9A
:102160003B68002B44D0D7ED2B7A9FED1E7A67EEAB
:10217000877AB7F8A22007F154031146D7ED2C0A4D
:10218000B0EE670A184609F089F90346A7F8A230AD
:10219000D7ED2B7A9FED137A67EE877AB7F8A020F8
:1021A00007F130031146F0EE670A97ED2C0A184646
:1021B00009F074F90346A7F8A03043E0400300207B
:1021C00068020020CDCC4C3D0000CB4400A0CE44A2
:1021D0009A99B941B0020020F802002000000240A4
:1021E000FC0300205C8F023F295C07400AD7233C98
:1021F000D7ED2C7A1FED047A67EE877AB7F8A22024
:1022000007F154031146F0EE670A97ED2B0A1846C2
:1022100009F044F90346A7F8A230D7ED2C7A1FED58
:102220000E7A67EE877AB7F8A02007F130031146DF
:10223000D7ED2B0AB0EE670A184609F02FF90346CE
:10224000A7F8A030D7ED017A1FED187A67EE877AEC
:10225000C7ED1E7A97ED017AD7ED1E7A77EE277AD1
:1022600097ED2C7AB4EEE77AF1EE10FA0CDA97EDEE
:10227000017AD7ED1E7A77EE277A97ED2B7AB4EEB6
:10228000E77AF1EE10FA0BDB204B1B6800225A6351
:102290001E4B1B6800229A631D4B00221A702AE015
:1022A00007F11C03D7F8A8201A4918460AF0C2FA09
:1022B00007F11C031A4614210A2009F03DFB07F11F
:1022C0000803D7F8A420144918460AF0B3FA07F116
:1022D00008031A4628210A2009F02EFBD7F88C3073
:1022E000C7F8B430D7F88830C7F8BC30D7F8843096
:1022F000C7F8B8306CE6064B00221A704FF47A70BB
:1023000006F03FFC00BFC037BD4680BD4003002043
:10231000FC0300200405010810050108B0B588B0D1
:1023200000AF03460A46FB711346BB710021AC485F
:1023300004F03AFB0421AA4804F036FB0C21A9481A
:1023400004F032FBBB79002B00F0868001220821CB
:10235000A54801F049FA00220421A34801F044FAFB
:1023600001221021A04801F03FFA002220219E48BE
:1023700001F03AFAFB79002B36D09A4B1B686422A5
:102380001A64642006F0FDFB954B1B684FF4FA625B
:102390005A63934B1B684FF4FA629A63934B012282
:1023A0001A701CE0924BD3ED007AF0EEE77A17EE4C
:1023B000900AFEF7C9F804460D468E4B1B68184676
:1023C000FEF7A0F802460B4620462946FEF786FB9C
:1023D0000346002B00D1BEE0012006F0D2FB834B68
:1023E0001B78002BDED1B6E07E4B1B684FF4877262
:1023F0001A64642006F0C5FB794B1B6840F2DC527E
:102400005A63774B1B684FF4FA629A63774B012249
:102410001A701CE0764BD3ED007AF0EEE77A17EEF7
:10242000900AFEF791F804460D46724B1B68184659
:10243000FEF768F802460B4620462946FEF74EFB9B
:102440000346002B00D186E0012006F09AFB674B83
:102450001B78002BDED17EE000220821624801F0CB
:10246000C3F901220421604801F0BEF900221021C5
:102470005D4801F0B9F9012220215B4801F0B4F96F
:10248000FB79002B33D0574B1B6864221A64544BE2
:102490001B684FF4FA625A63514B1B684FF4FA629F
:1024A0009A63524B01221A701CE0514BD3ED007A13
:1024B000F0EEE77A17EE900AFEF746F804460D466E
:1024C0004C4B1B681846FEF71DF802460B4620468B
:1024D0002946FEF703FB0346002B00D13BE0012019
:1024E00006F04FFB414B1B78002BDED133E03D4B18
:1024F0001B684FF487721A64394B1B684FF4FA62F9
:102500005A63374B1B684FF4FA629A63374B0122C8
:102510001A701CE0364BD3ED007AF0EEE77A17EE36
:10252000900AFEF711F804460D46324B1B68184618
:10253000FDF7E8FF02460B4620462946FEF7CEFA95
:102540000346002B00D106E0012006F01AFB274BC2
:102550001B78002BDED1264B1B681846FDF7F4FFD5
:1025600002460B4607F10C0023490AF063F907F114
:102570000C031A460A210A2009F0DEF909F068F86E
:10258000174B1B6800225A63154B1B6800229A6385
:10259000164B00221A70134B1B6896221A640022F5
:1025A0000821114801F020F9002204210E4801F011
:1025B0001BF9002210210C4801F016F900222021FD
:1025C000094801F011F90020B7EE000AFFF754FCAA
:1025D0004FF47A7006F0D5FA00BF2037BD46B0BD83
:1025E000400300206802002000000240FC0300209D
:1025F00000040020080400202005010880B588B0F0
:1026000000AF78600023FB8301226649664805F02D
:102610000EFA664B00221A70654B00221A70654B49
:1026200000221A60634B1B68DAB2634B1A704FF4D6
:102630008061624801F0F1F85D4B1B78012B40F09E
:10264000AB805B4B00221A705B4B1B784C3B2B2BF7
:1026500000F29E8001A252F823F000BF6927000813
:10266000912700089127000891270008912700086A
:102670009127000879270008912700089127000872
:10268000912700089127000891270008912700084A
:10269000912700089127000891270008912700083A
:1026A000912700089127000891270008912700082A
:1026B000912700089127000891270008912700081A
:1026C000912700089127000891270008912700080A
:1026D0009127000891270008912700082B27000860
:1026E00091270008912700089127000889270008F2
:1026F000912700083B2700084B2700089127000876
:1027000091270008912700080D270008294B1B6816
:1027100007EE903AF8EE677A0120B0EE670AFFF70D
:10272000ABFB2748FFF792FB33E001210120FFF7C5
:10273000F5FD2448FFF78AFB2BE001210020FFF77D
:10274000EDFD2148FFF782FB23E01A4B1B6807EEE3
:10275000903AF8EE677A0020B0EE670AFFF78CFB3C
:102760001A48FFF773FB14E000210120FFF7D6FDA4
:102770001748FFF76BFB0CE000210020FFF7CEFDB0
:102780001448FFF763FB04E01348FFF75FFB00E02A
:1027900000BF084B00221A604FF47A7006F0F1F97E
:1027A00045E700BF0404002088030020FC0300204C
:1027B0000504002008040020060400200010024048
:1027C00028050108380501084405010854050108D9
:1027D00064050108780501089005010880B592B0EC
:1027E00000AF7860144A15491548FEF705FC03460A
:1027F00087F84730134B1B78002B15D01048FEF795
:1028000085FE0F4BDB693B64D7ED107AB0EEE77ABB
:102810000D4BD3ED007A77EE277A0B4BC3ED007AA0
:102820000A2006F0AEF9E5E7074B4FF000021A6008
:102830000A2006F0A6F9DDE7880300201402002034
:10284000D8030020FC0300200004002080B596B0CF
:1028500000AF78603C214F4804F014FA3C214E4808
:1028600004F010FA4B4B1B685B6A7B654A4B1B6894
:102870005B6A3B6500F03AFC38643B6CFB64002308
:10288000BB6400237B6400F031FCF863FA6BFB6CE3
:10289000D31A322BF7D93F4B1B685B6ABB633E4BA5
:1028A0001B685B6A7B630023BB6400237B64394B3A
:1028B0001B681B6803F01003102B10D1BA6B7B6DE3
:1028C0009A4204DA7A6DBB6BD31ABB6417E0BB6B18
:1028D000C3F57F43FF337A6D1344BB640FE0BA6BDB
:1028E0007B6D9A4204DDBA6B7B6DD31ABB6406E044
:1028F0007B6DC3F57F43FF33BA6B1344BB64264B38
:102900001B681B6803F01003102B10D17A6B3B6D12
:102910009A4204DA3A6D7B6BD31A7B6417E07B6BC7
:10292000C3F57F43FF333A6D13447B640FE07A6B4A
:102930003B6D9A4204DD7A6B3B6DD31A7B6406E0F3
:102940003B6DC3F57F43FF337A6B13447B6407F120
:102950002003BA6C1149184609F06CFF07F12003F7
:102960001A4614210A2008F0E7FF07F10C037A6CDD
:102970000B49184609F05EFF07F10C031A4628219F
:102980000A2008F0D9FFFB6BFB64BB6B7B657B6B9C
:102990003B6578E7B0020020F8020020040501083A
:1029A0001005010880B400AF72B600BFFEE700005A
:1029B00080B582B000AF00237B60124B5B6C114A84
:1029C00043F4804353640F4B5B6C03F480437B60A0
:1029D0007B6800233B600B4B1B6C0A4A43F080531F
:1029E0001364084B1B6C03F080533B603B68002270
:1029F0000F216FF0010000F084FC00BF0837BD46D6
:102A000080BD00BF0038024080B58AB000AF78605A
:102A100007F1140300221A605A609A60DA601A61A2
:102A20007B681B681D4A934234D100233B611C4BD9
:102A30001B6B1B4A43F002031363194B1B6B03F020
:102A400002033B613B694FF440737B611223BB611E
:102A50000023FB6103233B6204237B6207F1140321
:102A60001946104800F024FD0023FB600C4B1B6C42
:102A70000B4A43F400131364094B1B6C03F400135B
:102A8000FB60FB68002205211F2000F03AFC1F209C
:102A900000F053FC00BF2837BD4680BD0054004005
:102AA000003802400004024080B58AB000AF786070
:102AB00007F1140300221A605A609A60DA601A6102
:102AC0007B681B68234A93420ED100233B61224B53
:102AD0005B6C214A43F0010353641F4B5B6C03F0B2
:102AE00001033B613B6930E07B681B681B4A9342F2
:102AF0002BD10023FB60184B5B6C174A43F0020399
:102B00005364154B5B6C03F00203FB60FB6800230E
:102B1000BB60114B1B6B104A43F0040313630E4B55
:102B20001B6B03F00403BB60BB68C0237B61022303
:102B3000BB610023FB6100233B6203237B6207F13F
:102B400014031946064800F0B3FC00BF2837BD4601
:102B500080BD00BF00000140003802400004014079
:102B60000008024080B58CB000AF786007F11C030C
:102B700000221A605A609A60DA601A617B681B68EA
:102B8000B3F1804F4BD10023BB613F4B1B6C3E4ADE
:102B900043F0010313643C4B1B6C03F00103BB6166
:102BA000BB6900237B61384B1B6B374A43F0010341
:102BB0001363354B1B6B03F001037B617B690023BF
:102BC0003B61314B1B6B304A43F0020313632E4BC6
:102BD0001B6B03F002033B613B694FF40043FB6155
:102BE00002233B6200237B620023BB620123FB6262
:102BF00007F11C031946254800F05AFC0823FB6125
:102C000002233B6200237B620023BB620123FB6241
:102C100007F11C0319461E4800F04AFC30E07B68AF
:102C20001B681C4A93422BD10023FB60164B1B6C84
:102C3000154A43F002031364134B1B6C03F00203A9
:102C4000FB60FB680023BB600F4B1B6B0E4A43F01D
:102C5000010313630C4B1B6B03F00103BB60BB68E8
:102C6000C023FB6102233B6200237B620023BB6223
:102C70000223FB6207F11C031946044800F018FC0C
:102C800000BF3037BD4680BD003802400000024022
:102C9000000402400004004080B588B000AF7860B6
:102CA00007F10C0300221A605A609A60DA601A6118
:102CB0007B681B68124A93421ED10023BB60114BF4
:102CC0001B6B104A43F0100313630E4B1B6B03F096
:102CD0001003BB60BB684FF48043FB6002233B6181
:102CE00000237B610023BB610123FB6107F10C031F
:102CF0001946054800F0DCFB00BF2037BD4680BD0B
:102D000000000140003802400010024080B58AB047
:102D100000AF786007F1140300221A605A609A60CD
:102D2000DA601A617B681B681D4A934234D1002324
:102D30003B611C4B1B6C1B4A43F480231364194BEF
:102D40001B6C03F480233B613B690023FB60154B44
:102D50001B6B144A43F004031363124B1B6B03F009
:102D60000403FB60FB684FF440637B610223BB619B
:102D70000023FB6103233B6207237B6207F11403FB
:102D80001946094800F094FB00220521272000F095
:102D9000B8FA272000F0D1FA00BF2837BD4680BD21
:102DA00000480040003802400008024080B400AFF4
:102DB000FEE780B400AFFEE780B400AFFEE780B46A
:102DC00000AFFEE780B400AFFEE780B400AF00BF05
:102DD000BD465DF8047B704780B500AF00F072F926
:102DE00007F0DCFA0346012B01D008F0C5F800BF5C
:102DF00080BD000080B500AF024801F08DF900BF32
:102E000080BD00BF1402002080B500AF024804F06E
:102E10003FFE00BF80BD00BF8803002080B400AF2C
:102E200001231846BD465DF8047B704780B582B02B
:102E300000AF7860396008F03DFE034616221A6044
:102E40004FF0FF3318460837BD4680BD80B582B0CD
:102E500000AF78604FF0FF317868FFF7E7FFFEE7DB
:102E600080B586B000AFF860B9607A6000237B61FE
:102E70000AE0AFF300800146BB685A1CBA60CAB2D0
:102E80001A707B6901337B617A697B689A42F0DB57
:102E90007B6818461837BD4680BD80B586B000AF48
:102EA000F860B9607A6000237B6109E0BB685A1C56
:102EB000BA601B781846AFF300807B6901337B61F1
:102EC0007A697B689A42F1DB7B6818461837BD4601
:102ED00080BD80B483B000AF78604FF0FF331846F8
:102EE0000C37BD465DF8047B704780B483B000AFFB
:102EF000786039603B684FF400525A6000231846EE
:102F00000C37BD465DF8047B704780B483B000AFDA
:102F10007860012318460C37BD465DF8047B704786
:102F200080B485B000AFF860B9607A6000231846BD
:102F30001437BD465DF8047B7047000080B586B04D
:102F400000AF7860144A154BD31A7B617B693B61F3
:102F5000134B1B68002B02D1114B124A1A60104B05
:102F60001A687B6813443A699A4207D208F0A2FDB6
:102F700003460C221A604FF0FF3309E0084B1B6830
:102F8000FB60074B1A687B681344054A1360FB68B3
:102F900018461837BD4680BD00000220000400001E
:102FA000100400207863002080B400AF064BD3F8F3
:102FB0008830054A43F47003C2F8883000BFBD462C
:102FC0005DF8047B704700BF00ED00E0DFF834D00F
:102FD0000D480E490E4A002302E0D458C450043371
:102FE000C4188C42F9D30B4A0B4C002301E0136048
:102FF0000432A242FBD3FFF7D7FF08F061FDFEF7D2
:1030000079FB70470000022000000020E40100204E
:1030100064150108E401002078630020FEE7000049
:1030200080B500AF0E4B1B680D4A43F4007313606C
:103030000B4B1B680A4A43F480631360084B1B6800
:10304000074A43F480731360032000F04FF90F2008
:1030500000F008F8FFF7ACFC0023184680BD00BF65
:10306000003C024080B582B000AF7860124B1A6815
:10307000124B1B7819464FF47A73B3FBF1F3B2FB92
:10308000F3F3184600F067F90346002B01D0012343
:103090000EE07B680F2B0AD8002279684FF0FF30D2
:1030A00000F02FF9064A7B681360002300E001233B
:1030B00018460837BD4680BD0000002008000020EB
:1030C0000400002080B400AF064B1B781A46064B64
:1030D0001B681344044A136000BFBD465DF8047BBF
:1030E000704700BF080000201404002080B400AF27
:1030F000034B1B681846BD465DF8047B704700BF54
:103100001404002080B584B000AF7860FFF7EEFFB4
:10311000B8607B68FB60FB68B3F1FF3F05D00A4BEA
:103120001B781A46FB681344FB6000BFFFF7DEFF05
:103130000246BB68D31AFA689A42F7D800BF00BFAC
:103140001037BD4680BD00BF0800002080B485B0A8
:1031500000AF78607B6803F00703FB600C4BDB6813
:10316000BB60BA684FF6FF031340BB60FB681A02EE
:10317000BB68134343F0BF6343F40033BB60044AAE
:10318000BB68D36000BF1437BD465DF8047B704751
:1031900000ED00E080B400AF044BDB681B0A03F0D5
:1031A00007031846BD465DF8047B704700ED00E05C
:1031B00080B483B000AF0346FB7197F90730002B52
:1031C0000BDBFB7903F01F02074997F907305B0916
:1031D000012000FA02F241F8232000BF0C37BD465F
:1031E0005DF8047B704700BF00E100E080B483B06D
:1031F00000AF03463960FB7197F90730002B0ADBFB
:103200003B68DAB20C4997F907301201D2B20B448D
:1032100083F800230AE03B68DAB20849FB7903F03F
:103220000F03043B1201D2B20B441A7600BF0C37D5
:10323000BD465DF8047B704700E100E000ED00E072
:1032400080B489B000AFF860B9607A60FB6803F0C1
:103250000703FB61FB69C3F10703042B28BF0423A9
:10326000BB61FB690433062B02D9FB69033B00E019
:1032700000237B614FF0FF32BB6902FA03F3DA43AC
:10328000BB681A407B699A404FF0FF317B6901FAB5
:1032900003F3D9437B680B40134318462437BD46DC
:1032A0005DF8047B7047000080B582B000AF7860A5
:1032B0007B68013BB3F1807F01D301230FE00A4A11
:1032C0007B68013B53600F214FF0FF30FFF78EFF0B
:1032D000054B00229A60044B07221A60002318460F
:1032E0000837BD4680BD00BF10E000E080B582B069
:1032F00000AF78607868FFF729FF00BF0837BD4648
:1033000080BD80B586B000AF0346B9607A60FB73BC
:1033100000237B61FFF73EFF78617A68B9687869BE
:10332000FFF78EFF024697F90F3011461846FFF758
:103330005DFF00BF1837BD4680BD80B582B000AFCD
:103340000346FB7197F907301846FFF731FF00BFBE
:103350000837BD4680BD80B582B000AF7860786820
:10336000FFF7A2FF034618460837BD4680BD80B56B
:1033700084B000AF78607B689B6DFB60FFF7B6FEA2
:10338000B8607B6893F83530DBB2022B08D07B68DD
:1033900080225A657B68002283F83420012352E0A2
:1033A0007B681B681A687B681B6822F016021A602B
:1033B0007B681B685A697B681B6822F080025A612F
:1033C0007B681B6C002B03D17B689B6C002B07D0A8
:1033D0007B681B681A687B681B6822F008021A6009
:1033E0007B681B681A687B681B6822F001021A6000
:1033F00013E0FFF77BFE0246BB68D31A052B0CD9FE
:103400007B6820225A657B68032283F835207B681D
:10341000002283F83420032315E07B681B681B68B7
:1034200003F00103002BE4D17B68DB6D3F229A405F
:10343000FB689A607B68012283F835207B68002254
:1034400083F83420002318461037BD4680BD80B471
:1034500083B000AF78607B6893F83530DBB2022B25
:1034600004D07B6880225A6501230CE07B6805222A
:1034700083F835207B681B681A687B681B6822F01C
:1034800001021A60002318460C37BD465DF8047B24
:10349000704780B483B000AF78607B6893F83530B4
:1034A000DBB218460C37BD465DF8047B7047000060
:1034B00080B489B000AF7860396000237B6100235D
:1034C0003B610023BB610023FB616BE10122FB69CF
:1034D00002FA03F37B613B681B687A6913403B6126
:1034E0003A697B699A4240F05A813B685B6803F015
:1034F0000303012B05D03B685B6803F00303022B39
:1035000030D17B689B68BB61FB695B00032202FAD8
:1035100003F3DB43BA691340BB613B68DA68FB69BC
:103520005B0002FA03F3BA691343BB617B68BA69B3
:103530009A607B685B68BB610122FB6902FA03F356
:10354000DB43BA691340BB613B685B681B0903F04E
:103550000102FB6902FA03F3BA691343BB617B689A
:10356000BA695A603B685B6803F00303032B17D00A
:103570007B68DB68BB61FB695B00032202FA03F333
:10358000DB43BA691340BB613B689A68FB695B0027
:1035900002FA03F3BA691343BB617B68BA69DA6064
:1035A0003B685B6803F00303022B23D1FB69DA0855
:1035B0007B68083253F82230BB61FB6903F00703D4
:1035C0009B000F2202FA03F3DB43BA691340BB618D
:1035D0003B681A69FB6903F007039B0002FA03F3D7
:1035E000BA691343BB61FB69DA087B680832B969C1
:1035F00043F822107B681B68BB61FB695B000322F8
:1036000002FA03F3DB43BA691340BB613B685B68B2
:1036100003F00302FB695B0002FA03F3BA69134388
:10362000BB617B68BA691A603B685B6803F440332E
:10363000002B00F0B4800023FB60604B5B6C5F4AA2
:1036400043F4804353645D4B5B6C03F48043FB6045
:10365000FB685B4AFB699B08023352F82330BB616D
:10366000FB6903F003039B000F2202FA03F3DB4321
:10367000BA691340BB617B68524A93422BD07B6886
:10368000514A934225D07B68504A93421FD07B68B1
:103690004F4A934219D07B684E4A934213D07B68BD
:1036A0004D4A93420DD07B684C4A934207D07B68C9
:1036B0004B4A934201D107230EE008230CE0062376
:1036C0000AE0052308E0042306E0032304E00223C4
:1036D00002E0012300E00023FA6902F003029200F5
:1036E0009340BA691343BB613549FB699B080233B8
:1036F000BA6941F823203B4B9B68BB613B69DB43C4
:10370000BA691340BB613B685B6803F48013002B0C
:1037100003D0BA693B691343BB61324ABB6993600A
:10372000304BDB68BB613B69DB43BA691340BB616B
:103730003B685B6803F40013002B03D0BA693B6954
:103740001343BB61274ABB69D360264B5B68BB61EF
:103750003B69DB43BA691340BB613B685B6803F4B8
:103760000033002B03D0BA693B691343BB611D4A88
:10377000BB6953601B4B1B68BB613B69DB43BA6988
:103780001340BB613B685B6803F48033002B03D0BC
:10379000BA693B691343BB61124ABB691360FB6999
:1037A0000133FB61FB690F2B7FF690AE00BF00BFBA
:1037B0002437BD465DF8047B704700BF00380240E7
:1037C00000380140000002400004024000080240AE
:1037D000000C024000100240001402400018024099
:1037E000001C0240003C014080B483B000AF786010
:1037F0000B467B8013467B707B78002B03D07A8846
:103800007B689A6103E07B881A047B689A6100BF39
:103810000C37BD465DF8047B704780B485B000AFBF
:1038200078600B467B807B685B69FB607A88FB680D
:1038300013401A04FB68D9437B880B401A437B680A
:103840009A6100BF1437BD465DF8047B70470000E5
:1038500080B584B000AF78607B68002B01D1012374
:103860002BE17B6893F83D30DBB2002B06D17B68FF
:10387000002283F83C207868FFF7C6F87B68242292
:1038800083F83D207B681B681A687B681B6822F000
:1038900001021A607B681B681A687B681B6842F427
:1038A00000421A607B681B681A687B681B6822F4F8
:1038B00000421A6002F0A8FFF8607B685B68814AEA
:1038C000934207D8FB68804A934294BF01230023A8
:1038D000DBB206E0FB687D4A934294BF01230023DC
:1038E000DBB2002B01D00123E7E0FB68784AA2FBA2
:1038F00003239B0CBB607B681B685B6823F03F0164
:103900007B681B68BA680A435A607B681B681B6A3D
:1039100023F03F017B685B686A4A934202D8BB6828
:10392000013309E0BB684FF4967202FB03F3694A66
:10393000A2FB03239B0901337A6812680B431362CD
:103940007B681B68DB6923F44F4222F0FF027B682F
:103950005B685C498B4219D8FB68591E7B685B68C1
:103960005B00B1FBF3F3591C40F6FC730B40002BDA
:103970000AD0FB68591E7B685B685B00B1FBF3F300
:103980000133C3F30B0351E004234FE07B689B68D2
:10399000002B11D1FB68581E7B6859680B465B00F1
:1039A0000B44B0FBF3F30133C3F30B03002B0CBF49
:1039B00001230023DBB212E0FB68581E7B685968C4
:1039C0000B469B000B4499000B44B0FBF3F301330F
:1039D000C3F30B03002B0CBF01230023DBB2002B2E
:1039E00001D0012322E07B689B68002B0ED1FB688D
:1039F000581E7B6859680B465B000B44B0FBF3F321
:103A00000133C3F30B0343F400430FE0FB68581E7C
:103A10007B6859680B469B000B4499000B44B0FB34
:103A2000F3F30133C3F30B0343F4404379680968AC
:103A30001343CB617B681B681B6823F0C0017B6864
:103A4000DA697B681B6A1A437B681B680A431A6041
:103A50007B681B689B6823F4034323F0FF037A68A9
:103A600011697A68D26811437A6812680B439360CF
:103A70007B681B68DB6823F0FF017B685A697B6801
:103A80009B691A437B681B680A43DA607B681B6882
:103A90001A687B681B6842F001021A607B6800228A
:103AA0001A647B68202283F83D207B6800221A6319
:103AB0007B68002283F83E20002318461037BD465D
:103AC00080BD00BFA08601007F841E00FF083D006E
:103AD00083DE1B43D34D621080B588B002AFF8601F
:103AE000084611461A4603467B810B463B81134626
:103AF000FB80FFF7FBFA7861FB6893F83D30DBB29F
:103B0000202B40F0D9807B690093192301226D4955
:103B1000F86801F0F7FF0346002B01D00223CCE048
:103B2000FB6893F83C30012B01D10223C5E0FB6810
:103B3000012283F83C20FB681B681B6803F001032B
:103B4000012B07D0FB681B681A68FB681B6842F0F2
:103B500001021A60FB681B681A68FB681B6822F484
:103B600000621A60FB68212283F83D20FB68402236
:103B700083F83E20FB6800221A64FB683A6A5A62A6
:103B8000FB68BA8C5A85FB685B8D9AB2FB681A8514
:103B9000FB684D4ADA62F8883A8979897B69019332
:103BA000BB6A00930346F86801F086FD0346002BCC
:103BB00052D0012381E07A69B96AF86802F078F896
:103BC0000346002B0DD0FB681B6C042B07D1FB6850
:103BD0001B681A68FB681B6842F400721A600123B4
:103BE0006BE0FB685B6A1A78FB681B681A61FB680C
:103BF0005B6A5A1CFB685A62FB681B8D013B9AB2D8
:103C0000FB681A85FB685B8D9BB2013B9AB2FB682F
:103C10005A85FB681B685B6903F00403042B1BD106
:103C2000FB681B8D002B17D0FB685B6A1A78FB685A
:103C30001B681A61FB685B6A5A1CFB685A62FB6866
:103C40001B8D013B9AB2FB681A85FB685B8D9BB2AA
:103C5000013B9AB2FB685A85FB681B8D002BAAD1E9
:103C60007A69B96AF86802F064F80346002B0DD04F
:103C7000FB681B6C042B07D1FB681B681A68FB6888
:103C80001B6842F400721A60012316E0FB681B688F
:103C90001A68FB681B6842F400721A60FB682022F5
:103CA00083F83D20FB68002283F83E20FB68002259
:103CB00083F83C20002300E0022318461837BD4655
:103CC00080BD00BF020010000000FFFF80B58CB077
:103CD00002AFF860084611461A4603467B810B4640
:103CE0003B811346FB80FFF701FA7862FB6893F88B
:103CF0003D30DBB2202B40F008827B6A0093192311
:103D000001227B49F86801F0FDFE0346002B01D03B
:103D10000223FBE1FB6893F83C30012B01D1022325
:103D2000F4E1FB68012283F83C20FB681B681B68F8
:103D300003F00103012B07D0FB681B681A68FB68BE
:103D40001B6842F001021A60FB681B681A68FB6876
:103D50001B6822F400621A60FB68222283F83D206F
:103D6000FB68402283F83E20FB6800221A64FB684F
:103D70003A6B5A62FB68BA8E5A85FB685B8D9AB2C1
:103D8000FB681A85FB685B4ADA62F8883A897989A8
:103D90007B6A0193BB6B00930346F86801F022FD38
:103DA0000346002B01D00123B0E1FB681B8D002BE3
:103DB00013D100233B62FB681B685B693B62FB68B5
:103DC0001B689B693B623B6AFB681B681A68FB685F
:103DD0001B6842F400721A6084E1FB681B8D012BA2
:103DE0001BD1FB681B681A68FB681B6822F48062A1
:103DF0001A600023FB61FB681B685B69FB61FB6861
:103E00001B689B69FB61FB69FB681B681A68FB68A0
:103E10001B6842F400721A6064E1FB681B8D022B80
:103E20001BD1FB681B681A68FB681B6822F4806260
:103E30001A60FB681B681A68FB681B6842F4006222
:103E40001A600023BB61FB681B685B69BB61FB6890
:103E50001B689B69BB61BB6944E100237B61FB6814
:103E60001B685B697B61FB681B689B697B617B6985
:103E700038E1FB681B8D032B00F2F180FB681B8D82
:103E8000012B23D17A6AB96BF86801F0C5FF0346AC
:103E9000002B01D0012339E1FB681B681A69FB681C
:103EA0005B6AD2B21A70FB685B6A5A1CFB685A6282
:103EB000FB681B8D013B9AB2FB681A85FB685B8D22
:103EC0009BB2013B9AB2FB685A850BE1FB681B8DE4
:103ED000022B4ED17B6A0093BB6B00220649F86827
:103EE00001F010FE0346002B08D001230EE100BFB5
:103EF000020010000000FFFF04000100FB681B68C7
:103F00001A68FB681B6842F400721A60FB681B6841
:103F10001A69FB685B6AD2B21A70FB685B6A5A1C4A
:103F2000FB685A62FB681B8D013B9AB2FB681A85DD
:103F3000FB685B8D9BB2013B9AB2FB685A85FB68BC
:103F40001B681A69FB685B6AD2B21A70FB685B6A0D
:103F50005A1CFB685A62FB681B8D013B9AB2FB68D6
:103F60001A85FB685B8D9BB2013B9AB2FB685A8550
:103F7000B8E07B6A0093BB6B00226649F86801F0E9
:103F8000C1FD0346002B01D00123BFE0FB681B6885
:103F90001A68FB681B6822F480621A60FB681B6861
:103FA0001A69FB685B6AD2B21A70FB685B6A5A1CBA
:103FB000FB685A62FB681B8D013B9AB2FB681A854D
:103FC000FB685B8D9BB2013B9AB2FB685A857B6AAA
:103FD0000093BB6B00224F49F86801F093FD034644
:103FE000002B01D0012391E0FB681B681A68FB6875
:103FF0001B6842F400721A60FB681B681A69FB6850
:104000005B6AD2B21A70FB685B6A5A1CFB685A6220
:10401000FB681B8D013B9AB2FB681A85FB685B8DC0
:104020009BB2013B9AB2FB685A85FB681B681A6910
:10403000FB685B6AD2B21A70FB685B6A5A1CFB6849
:104040005A62FB681B8D013B9AB2FB681A85FB68BC
:104050005B8D9BB2013B9AB2FB685A8542E07A6A5B
:10406000B96BF86801F0D8FE0346002B01D001239C
:104070004CE0FB681B681A69FB685B6AD2B21A7075
:10408000FB685B6A5A1CFB685A62FB681B8D013B2C
:104090009AB2FB681A85FB685B8D9BB2013B9AB2B2
:1040A000FB685A85FB681B685B6903F00403042BFB
:1040B00018D1FB681B681A69FB685B6AD2B21A7078
:1040C000FB685B6A5A1CFB685A62FB681B8D013BEC
:1040D0009AB2FB681A85FB685B8D9BB2013B9AB272
:1040E000FB685A85FB681B8D002B7FF4C2AEFB6812
:1040F000202283F83D20FB68002283F83E20FB68E5
:10410000002283F83C20002300E0022318462837D1
:10411000BD4680BD0400010080B588B000AF786066
:104120000023BB617B681B685B687B617B68DB6A23
:104130003B617B6893F83E30FB737B6893F83D30BE
:10414000BB73FB7B102B03D0FB7B402B40F0C1806B
:104150007B681B689B69BB617B681B685B69FB6153
:10416000FB6903F00103002B0DD13B69B3F52A0F66
:1041700003D03B69B3F12A4F01D1012300E00023B2
:10418000012B00F03281FB6903F00103002B0CD0FE
:104190007B695B0A03F00103002B06D0786801F00D
:1041A000C0FE786800F0DCFC92E0FB69DB0803F0FD
:1041B0000103002B09D07B695B0A03F00103002B8C
:1041C00003D0786800F052FD82E0FB695B0803F0E1
:1041D0000103002B09D07B695B0A03F00103002B6C
:1041E00003D0786800F06CFD72E0BB699B0803F0B7
:1041F0000103002B3BD07B681B685B6803F4006302
:10420000B3F5006F00F0F380FB69DB0903F00103F5
:10421000002B0FD07B699B0A03F00103002B09D010
:10422000FB699B0803F00103002B03D1786800F0C1
:104230004CF94DE0FB699B0803F00103002B00F0F3
:10424000D6807B695B0A03F00103002B00F0CF806E
:10425000BB7B212B03D1786800F0D3F9C7E0FB7B4F
:10426000402B40F0C480786800F041FABFE07B68E2
:104270001B685B6803F40063B3F5006F00F0B78060
:10428000FB699B0903F00103002B0FD07B699B0A9C
:1042900003F00103002B09D0FB699B0803F0010325
:1042A000002B03D1786800F0B6FA11E0FB699B0897
:1042B00003F00103002B00F09A807B695B0A03F096
:1042C0000103002B00F09380786800F05FFB8EE024
:1042D0008DE07B681B6C002B04D07B681B685B69DE
:1042E000FB6107E07B681B689B69BB617B681B689F
:1042F0005B69FB61FB695B0803F00103002B12D0D3
:104300007B695B0A03F00103002B0CD07B681B6CFC
:10431000002B03D07B681B689B69BB61B969786817
:1043200000F01DFF66E0FB691B0903F00103002B91
:1043300009D07B695B0A03F00103002B03D0786886
:1043400000F058FF56E0BB7B212B02D0BB7B292B12
:1043500025D1FB69DB0903F00103002B0FD07B693A
:104360009B0A03F00103002B09D0FB699B0803F0B3
:104370000103002B03D1786800F033FE39E0FB69BC
:104380009B0803F00103002B33D07B695B0A03F029
:104390000103002B2DD0786800F060FE29E0FB6956
:1043A0009B0903F00103002B0FD07B699B0A03F0EC
:1043B0000103002B09D0FB699B0803F00103002BCC
:1043C00003D1786800F06BFE14E0FB699B0803F0F2
:1043D0000103002B0ED07B695B0A03F00103002B65
:1043E00008D0786800F099FE04E000BF02E000BF4A
:1043F00000E000BF2037BD4680BD80B483B000AF71
:10440000786000BF0C37BD465DF8047B704780B410
:1044100083B000AF786000BF0C37BD465DF8047B09
:10442000704780B483B000AF786000BF0C37BD46E2
:104430005DF8047B704780B483B000AF786000BF44
:104440000C37BD465DF8047B704780B483B000AF85
:1044500078600B46FB7013463B8000BF0C37BD46AF
:104460005DF8047B704780B483B000AF786000BF14
:104470000C37BD465DF8047B704780B483B000AF55
:10448000786000BF0C37BD465DF8047B704780B490
:1044900083B000AF786000BF0C37BD465DF8047B89
:1044A000704780B483B000AF786000BF0C37BD4662
:1044B0005DF8047B704780B483B000AF786000BFC4
:1044C0000C37BD465DF8047B704780B584B000AF03
:1044D00078607B6893F83D30FB737B6893F83E30DF
:1044E000BB737B68DB6ABB607B681B8D002B50D184
:1044F000FB7B212B4DD1BB68082B1DD0BB68202B2B
:104500001AD0BB6813F5803F16D07B681B685A68C9
:104510007B681B6822F4E0625A607B6811221A6390
:104520007B68002283F83E207B68202283F83D20B0
:104530007868FFF762FF60E07B681B685A687B68F9
:104540001B6822F4E0625A607B681B681A687B680B
:104550001B6842F400721A607B6800221A637B6851
:10456000202283F83D207B6893F83E30DBB2402B5D
:1045700007D17B68002283F83E207868FFF77DFF33
:104580003BE07B68002283F83E207868FFF735FF28
:1045900033E0FB7B212B05D0BB7B402B2DD1FB7B5C
:1045A000222B2AD17B685B8D9BB2002B08D17B68C4
:1045B0001B685A687B681B6822F480625A601CE0A2
:1045C0007B6893F83E30DBB2402B03D1786800F073
:1045D0008EF812E07B685B6A1A787B681B681A6148
:1045E0007B685B6A5A1C7B685A627B685B8D9BB2F6
:1045F000013B9AB27B685A85FFE700BF1037BD4682
:1046000080BD80B584B000AF78607B68DB6AFB60FA
:104610007B6893F83D30DBB2212B64D17B685B8DE6
:104620009BB2002B12D07B685B6A1A787B681B6890
:104630001A617B685B6A5A1C7B685A627B685B8D77
:104640009BB2013B9AB27B685A854CE0FB68082B11
:104650001DD0FB68202B1AD0FB6813F5803F16D0C5
:104660007B681B685A687B681B6822F4E0625A60AA
:104670007B6811221A637B68002283F83E207B68E6
:10468000202283F83D207868FFF7B7FE2BE07B6897
:104690001B685A687B681B6822F4E0625A607B687A
:1046A0001B681A687B681B6842F400721A607B689A
:1046B00000221A637B68202283F83D207B6893F8F0
:1046C0003E30DBB2402B07D17B68002283F83E20CE
:1046D0007868FFF7D2FE06E07B68002283F83E2070
:1046E0007868FFF78AFE00BF1037BD4680BD80B5F1
:1046F00084B000AF78607B6893F83D30FB737B68D3
:104700001B6D002B1DD17B68DB6C012B0BD17B68F3
:104710009B6CDAB27B681B681A617B681B6D9A1C04
:104720007B681A6573E07B689B6C9BB21B12DAB2E4
:104730007B681B681A617B681B6D5A1C7B681A6555
:1047400065E07B681B6D012B0BD17B689B6CDAB23B
:104750007B681B681A617B681B6D5A1C7B681A6535
:1047600055E07B681B6D022B51D1FB7B222B0DD1B9
:104770007B681B681A687B681B6842F480721A6049
:104780007B681B6D5A1C7B681A6540E07B685B8DFB
:104790009BB2002B15D0FB7B212B12D17B685B6A6F
:1047A0001A787B681B681A617B685B6A5A1C7B6895
:1047B0005A627B685B8D9BB2013B9AB27B685A85DB
:1047C00025E07B685B8D9BB2002B20D1FB7B212BEE
:1047D0001DD17B681B685A687B681B6822F4E06205
:1047E0005A607B681B681A687B681B6842F4007219
:1047F0001A607B6800221A637B68202283F83D20C0
:104800007B68002283F83E207868FFF736FE00BF01
:104810001037BD4680BD80B584B000AF78607B683E
:1048200093F83D30DBB2222B40F0AC807B685B8D8F
:104830009BB2FB60FB68032B21D97B681B681A695C
:104840007B685B6AD2B21A707B685B6A5A1C7B68B1
:104850005A627B685B8D9BB2013B9AB27B685A853A
:104860007B685B8D9BB2032B40F08C807B681B6860
:104870005A687B681B6822F480625A6082E07B6819
:10488000DB6A022B75D0FB68012B02D0FB68002B82
:104890006FD1786801F08EFA0346002B42D17B6815
:1048A0001B681A687B681B6822F480621A607B6848
:1048B0001B685A687B681B6822F4E0625A607B6858
:1048C0001B681A697B685B6AD2B21A707B685B6A84
:1048D0005A1C7B685A627B685B8D9BB2013B9AB223
:1048E0007B685A857B68202283F83D207B6893F89B
:1048F0003E30DBB2402B0AD17B68002283F83E2099
:104900007B6800221A637868FFF7C1FD3AE07B6894
:10491000002283F83E207B6812221A637868FFF732
:1049200076FD2FE07B681B685A687B681B6822F461
:10493000E0625A607B681B681A697B685B6AD2B266
:104940001A707B685B6A5A1C7B685A627B685B8D55
:104950009BB2013B9AB27B685A857B68202283F820
:104960003D207B68002283F83E207868FFF799FDA0
:1049700008E07B681B685A687B681B6822F48062C9
:104980005A60FFE700BF1037BD4680BD80B584B0D8
:1049900000AF78607B68DB6AFB607B685B8D9BB2F5
:1049A000042B1BD17B681B685A687B681B6822F448
:1049B00080625A607B681B681A697B685B6AD2B246
:1049C0001A707B685B6A5A1C7B685A627B685B8DD5
:1049D0009BB2013B9AB27B685A85BDE07B685B8DD8
:1049E0009BB2032B29D17B681B685A687B681B68C4
:1049F00022F480625A60FB68042B0AD0FB68022B09
:104A000007D07B681B681A687B681B6822F4806289
:104A10001A607B681B681A697B685B6AD2B21A707D
:104A20007B685B6A5A1C7B685A627B685B8D9BB2B1
:104A3000013B9AB27B685A858EE07B685B8D9BB2A6
:104A4000022B76D1FB68012B02D0FB68102B08D11A
:104A50007B681B681A687B681B6822F480621A6096
:104A600019E0FB68042B02D0FB68022B08D17B689D
:104A70001B681A687B681B6842F480621A600AE04F
:104A8000FB68102B07D07B681B681A687B681B6863
:104A900042F400721A607B681B681A697B685B6A63
:104AA000D2B21A707B685B6A5A1C7B685A627B6858
:104AB0005B8D9BB2013B9AB27B685A857B681B6811
:104AC0001A697B685B6AD2B21A707B685B6A5A1C8F
:104AD0007B685A627B685B8D9BB2013B9AB27B68B4
:104AE0005A857B681B685A687B681B6822F4407291
:104AF0005A607B68202283F83D207B6893F83E3023
:104B0000DBB2402B0AD17B68002283F83E207B6811
:104B100000221A637868FFF7BAFC1DE07B68002268
:104B200083F83E207B6812221A637868FFF76FFCD7
:104B300012E07B681B681A697B685B6AD2B21A70E4
:104B40007B685B6A5A1C7B685A627B685B8D9BB290
:104B5000013B9AB27B685A8500BF1037BD4680BDC5
:104B600080B483B000AF78607B6893F83E30DBB2EE
:104B7000402B17D17B681B6D002B09D17B685B6CC8
:104B8000DBB21A467B681B6802F0FE021A6167E01E
:104B90007B685B6CDBB243F00103DAB27B681B68B5
:104BA0001A615DE07B681B69B3F5804F33D17B6888
:104BB00093F83D30DBB2212B09D17B685B6CDBB213
:104BC0001A467B681B6802F0FE021A6108E07B68E7
:104BD0005B6CDBB243F00103DAB27B681B681A61DD
:104BE0007B685B6B002B04D07B685B6BDB6B002B03
:104BF00008D17B689B6B002B32D07B689B6BDB6B97
:104C0000002B2DD07B681B685A687B681B6842F4B8
:104C100000625A6024E07B681B6D002B0ED17B681C
:104C20005B6C9BB2DB11DBB203F00603DBB263F01B
:104C30000F03DAB27B681B681A6111E07B681B6D99
:104C4000012B0DD17B685B6C9BB2DB11DBB203F0F7
:104C50000603DBB263F00E03DAB27B681B681A61ED
:104C600000BF0C37BD465DF8047B704780B483B04D
:104C700000AF78607B685B6CDAB27B681B681A6196
:104C80007B685B6B002B04D07B685B6BDB6B002B62
:104C900008D17B689B6B002B0CD07B689B6BDB6B1C
:104CA000002B07D07B681B685A687B681B6842F43E
:104CB00000625A6000BF0C37BD465DF8047B704748
:104CC00080B491B000AF78607B6893F83E3087F88D
:104CD0003F307B68DB6ABB637B681B6B7B637B68F5
:104CE00093F83D30DBB2222B40F069817B681B6D6D
:104CF000002B0FD197F83F30402B0BD100233B63A3
:104D00007B681B685B693B637B681B689B693B63D3
:104D10003B6B60E17B681B6D002B1DD17B681B69C1
:104D2000B3F5404F18D10023FB627B681B685B69B9
:104D3000FB627B681B689B69FB62FB6A7B681B6884
:104D40001A687B681B6842F480721A607B681B6D6E
:104D50005A1C7B681A653EE17B685B8D9BB2002B19
:104D600013D10023BB627B681B685B69BB627B68F5
:104D70001B689B69BB62BB6A7B681B681A687B689F
:104D80001B6842F400721A6015E17B685B8D9BB270
:104D9000012B40F08A80BB6B13F5803F37D17B68D5
:104DA0001B681A687B681B6822F480621A607B6843
:104DB0001B685B6803F40063B3F5006F13D17B6875
:104DC0001B681A687B681B6822F480621A600023E3
:104DD0007B627B681B685B697B627B681B689B6985
:104DE0007B627B6AE7E000233B627B681B685B6950
:104DF0003B627B681B689B693B623B6A7B681B6804
:104E00001A687B681B6842F400721A60D3E0BB6BBF
:104E1000082B2ED0BB6B202B2BD07B6B122B02D1FF
:104E2000BB6B012B25D1BB6B042B0ED0BB6B022BB4
:104E30000BD0BB6B102B08D07B681B681A687B6893
:104E40001B6822F480621A6007E07B681B681A689E
:104E50007B681B6842F480621A600023FB617B68F8
:104E60001B685B69FB617B681B689B69FB61FB6975
:104E7000A1E07B681B681A687B681B6822F480626B
:104E80001A600023BB617B681B685B69BB617B6840
:104E90001B689B69BB61BB697B681B681A687B6880
:104EA0001B6842F400721A6085E07B685B8D9BB2E0
:104EB000022B4DD1BB6B042B16D0BB6B022B13D036
:104EC000BB6B102B10D07B681B681A687B681B6853
:104ED00022F480621A607B681B681A687B681B6812
:104EE00042F400621A6007E07B681B681A687B68FE
:104EF0001B6842F480621A607B681B685B6803F47D
:104F00000063B3F5006F17D1BB6B13F5803F0BD077
:104F1000BB6B012B08D0BB6B082B05D0BB6B102BD8
:104F200002D0BB6B202B07D17B681B685A687B685B
:104F30001B6842F480525A6000237B617B681B68C7
:104F40005B697B617B681B689B697B617B6932E085
:104F50007B681B681A687B681B6842F480621A6071
:104F60007B681B685B6803F40063B3F5006F17D1BF
:104F7000BB6B13F5803F0BD0BB6B012B08D0BB6B19
:104F8000082B05D0BB6B102B02D0BB6B202B07D19D
:104F90007B681B685A687B681B6842F480525A60C1
:104FA00000233B617B681B685B693B617B681B6816
:104FB0009B693B613B697B6800221A650BE000231B
:104FC000FB607B681B685B69FB607B681B689B6997
:104FD000FB60FB68FFE700BF4437BD465DF8047B1C
:104FE000704780B584B000AF78607B6893F83D303F
:104FF000FB737B685B8D9BB2002B2BD07B685B6A5D
:105000001A787B681B681A617B685B6A5A1C7B682C
:105010005A627B685B8D9BB2013B9AB27B685A8572
:105020007B685B8D9BB2002B14D1FB7B292B11D1AC
:105030007B681B685A687B681B6822F480625A6030
:105040007B6821221A637B68282283F83D207868D8
:10505000FFF7E7F900BF1037BD4680BD80B483B0CD
:1050600000AF78607B685B8D9BB2002B11D07B68B2
:105070005B6A1A787B681B681A617B685B6A5A1CDA
:105080007B685A627B685B8D9BB2013B9AB27B68FE
:105090005A8500BF0C37BD465DF8047B704780B56C
:1050A00084B000AF78607B6893F83D30FB737B6819
:1050B0005B8D9BB2002B2CD07B681B681A697B68C8
:1050C0005B6AD2B21A707B685B6A5A1C7B685A6250
:1050D0007B685B8D9BB2013B9AB27B685A857B688B
:1050E0005B8D9BB2002B14D1FB7B2A2B11D17B68EB
:1050F0001B685A687B681B6822F480625A607B6870
:1051000022221A637B68282283F83D207868FFF703
:1051100092F900BF1037BD4680BD80B483B000AFA8
:1051200078607B685B8D9BB2002B12D07B681B681C
:105130001A697B685B6AD2B21A707B685B6A5A1C18
:105140007B685A627B685B8D9BB2013B9AB27B683D
:105150005A8500BF0C37BD465DF8047B704780B5AB
:1051600084B000AF786039600023FB737B6893F8EC
:105170003D30DBB203F02803282B27D17B681B6866
:105180005A687B681B6822F480625A603B689B08FF
:1051900003F00103002B01D10123FB733B68DB0902
:1051A00003F00103002B03D17B68DB68BB8102E0C5
:1051B0007B689B69BB817B68002283F83C20BA89AD
:1051C000FB7B19467868FFF740F90EE00023BB60CF
:1051D0007B681B685B69BB607B681B689B69BB6005
:1051E000BB687B68002283F83C2000BF1037BD46B7
:1051F00080BD000080B584B000AF78607B6893F814
:105200003D30FB737B681B685A687B681B6822F41F
:10521000E0625A600023BB607B681B685B69BB600F
:105220007B681B681A687B681B6842F001021A6081
:10523000BB687B681B681A687B681B6822F4806205
:105240001A607B681B685B6803F40063B3F5006F4A
:1052500072D1FB7B222B02D0FB7B2A2B35D17B68C2
:105260009B6B1B685B689AB27B685A857B685B8D19
:105270009BB2002B05D07B681B6C43F004027B685B
:105280001A647B681B685A687B681B6822F400629A
:105290005A607B689B6B1846FEF7FBF80346012BB0
:1052A00049D07B689B6B694A1A657B689B6B184683
:1052B000FEF7CDF80346002B3DD07B689B6B1B6D42
:1052C0007A68926B1046984735E07B685B6B1B6889
:1052D0005B689AB27B685A857B685B8D9BB2002BBA
:1052E00005D07B681B6C43F004027B681A647B6802
:1052F0001B685A687B681B6822F400625A607B68EE
:105300005B6B1846FEF7C5F80346012B14D07B688B
:105310005B6B4E4A1A657B685B6B1846FEF797F825
:105320000346002B08D07B685B6B1B6D7A68526B61
:105330001046984700E000BF7B685B8D9BB2002B56
:105340003ED07B681B685B6903F00403042B12D119
:105350007B681B681A697B685B6AD2B21A707B68CB
:105360005B6A5A1C7B685A627B685B8D9BB2013B0F
:105370009AB27B685A857B681B685B6903F04003BF
:10538000402B12D17B681B681A697B685B6AD2B2BA
:105390001A707B685B6A5A1C7B685A627B685B8DFB
:1053A0009BB2013B9AB27B685A857B685B8D9BB24E
:1053B000002B05D07B681B6C43F004027B681A64E9
:1053C0007B681B6C002B03D0786800F043F839E051
:1053D000FB7B2A2B09D17B6800221A637B68282279
:1053E00083F83D207868FFF726F87B6893F83D3016
:1053F000DBB2282B11D17B68154ADA627B68002268
:105400001A637B68202283F83D207B68002283F8A2
:105410003E207868FFF727F814E07B681B6B222B8F
:1054200002D0FB7B222B0DD17B6800221A637B68A4
:10543000202283F83D207B68002283F83E20786894
:10544000FEF7F9FF00BF1037BD4680BDB559000813
:105450000000FFFF80B584B000AF78607B6893F8F0
:105460003D30FB737B6893F83E30BB73BB7B102BE6
:1054700002D0BB7B402B0AD1FB7B222B07D17B6860
:105480001B681A687B681B6822F400621A60FB7B49
:1054900003F02803282B07D17B6800221A637B685E
:1054A000282283F83D2015E07B681B685B6803F4C5
:1054B0000063B3F5006F0AD0FB7B602B07D07B68DD
:1054C000202283F83D207B68002283F83E207B6801
:1054D00000221A637B681B685B6803F40063B3F502
:1054E000006F62D17B681B685A687B681B6822F476
:1054F00000625A607B685B6B93F83530DBB2012B3E
:1055000020D07B685B6B6A4A1A657B685B6B1846C8
:10551000FDF79DFF0346002B00F089807B681B6828
:105520001A687B681B6822F001021A607B682022DF
:1055300083F83D207B685B6B1B6D7A68526B10466D
:10554000984774E07B689B6B594A1A657B689B6B34
:105550001846FDF77CFF0346002B68D07B681B686C
:105560005B6903F04003402B0BD17B681B681A6911
:105570007B685B6AD2B21A707B685B6A5A1C7B6874
:105580005A627B681B681A687B681B6822F00102FC
:105590001A607B68202283F83D207B689B6B1B6D23
:1055A0007A68926B1046984741E07B6893F83D30EB
:1055B000DBB2602B25D17B68202283F83D207B68FD
:1055C00000221A647B681B685B6903F04003402B70
:1055D0000BD17B681B681A697B685B6AD2B21A7050
:1055E0007B685B6A5A1C7B685A627B681B681A6816
:1055F0007B681B6822F001021A607868FEF75BFF87
:1056000015E07B681B685B6903F04003402B0BD1FE
:105610007B681B681A697B685B6AD2B21A707B6808
:105620005B6A5A1C7B685A627868FEF73AFF7B68AF
:105630001B6CBB60BB6803F00103002B0ED1BB6881
:1056400003F00203002B09D1BB6803F00403002B15
:1056500004D1BB6803F00803002B07D07B681B68EC
:105660005A687B681B6822F4E0625A607B6893F892
:105670003D30FB737B681B6C03F00403042B13D1D8
:10568000FB7B282B10D17B680A4ADA627B680022F8
:105690001A637B68202283F83D207B68002283F810
:1056A0003E207868FEF7DFFE00BF1037BD4680BDA4
:1056B000B55900080000FFFF80B588B002AFF86060
:1056C000084611461A4603467B810B463B8113462A
:1056D000FB80FB681B681A68FB681B6842F48072D9
:1056E0001A607B6A00933B6A00224FF00111F86850
:1056F00000F008FA0346002B0DD0FB681B681B68FE
:1057000003F48073B3F5807F03D1FB684FF400721C
:105710001A6403235FE07B89DBB21A46FB681B68CF
:1057200002F0FE021A617B6A3A6A2D49F86800F0BD
:1057300040FA0346002B01D001234CE000237B619B
:10574000FB681B685B697B61FB681B689B697B610D
:105750007B697A6A396AF86800F0AAFA0346002B76
:105760000DD0FB681B6C042B07D1FB681B681A6803
:10577000FB681B6842F400721A6001232BE0FB886F
:10578000012B05D13B89DAB2FB681B681A6121E065
:105790003B891B0A9BB2DAB2FB681B681A617A6A02
:1057A000396AF86800F084FA0346002B0DD0FB68D4
:1057B0001B6C042B07D1FB681B681A68FB681B680D
:1057C00042F400721A60012305E03B89DAB2FB68FB
:1057D0001B681A61002318461837BD4680BD00BFFC
:1057E0000200010080B588B002AFF860084611469B
:1057F0001A4603467B810B463B811346FB80FB68C0
:105800001B681A68FB681B6842F480621A60FB68B8
:105810001B681A68FB681B6842F480721A607B6A16
:1058200000933B6A00224FF00111F86800F06AF91A
:105830000346002B0DD0FB681B681B6803F48073C4
:10584000B3F5807F03D1FB684FF400721A64032321
:10585000AAE07B89DBB21A46FB681B6802F0FE02F5
:105860001A617B6A3A6A5249F86800F0A2F9034665
:10587000002B01D0012397E000237B61FB681B68AC
:105880005B697B61FB681B689B697B617B697A6AEA
:10589000396AF86800F00CFA0346002B0DD0FB685B
:1058A0001B6C042B07D1FB681B681A68FB681B681C
:1058B00042F400721A60012376E0FB88012B05D1C7
:1058C0003B89DAB2FB681B681A6121E03B891B0A3D
:1058D0009BB2DAB2FB681B681A617A6A396AF868A7
:1058E00000F0E6F90346002B0DD0FB681B6C042B7F
:1058F00007D1FB681B681A68FB681B6842F40072DA
:105900001A60012350E03B89DAB2FB681B681A6118
:105910007A6A396AF86800F0CBF90346002B0DD09B
:10592000FB681B6C042B07D1FB681B681A68FB68BB
:105930001B6842F400721A60012335E0FB681B68A3
:105940001A68FB681B6842F480721A607B6A0093D5
:105950003B6A00224FF00111F86800F0D3F80346CB
:10596000002B0DD0FB681B681B6803F48073B3F534
:10597000807F03D1FB684FF400721A64032313E0A5
:105980007B89DBB243F00103DAB2FB681B681A6162
:105990007B6A3A6A0649F86800F00BF90346002B67
:1059A00001D0012300E0002318461837BD4680BD12
:1059B0000200010080B586B000AF78600023FB6074
:1059C0007B689B6B7B617B6993F83D30FB744B4B31
:1059D0001B68DB084A4AA2FB03231A0A13469B00F2
:1059E0001344DA00D31AFB60FB68002B06D17B69F5
:1059F0001B6C43F020027B691A640AE0FB68013BE0
:105A0000FB607B691B681B6803F40073B3F5007FC0
:105A1000EAD07B695B6B002B03D07B695B6B002258
:105A2000DA637B699B6B002B03D07B699B6B002245
:105A3000DA637B691B681A687B691B6822F48062E1
:105A40001A607B6900225A857B695B6B002B03D04F
:105A50007B695B6B00221A657B699B6B002B03D013
:105A60007B699B6B00221A657B691B681A687B69DE
:105A70001B6822F001021A607B6993F83D30DBB2AB
:105A8000602B0ED17B69202283F83D207B690022A8
:105A900083F83E207B6900221A647869FEF70BFDCB
:105AA00027E0FB7C03F02803282B17D17B691B68B8
:105AB0001A687B691B6842F001021A607B691B68E7
:105AC0001A687B691B6842F480621A607B69002255
:105AD0001A637B69282283F83D2007E07B69202236
