:020000040800F2
:1000000000000220812300088122000883220008CA
:1000100085220008872200088922000800000000CD
:10002000000000000000000000000000C1640008A3
:100030008B22000800000000516500088D22000896
:10004000D1230008D1230008D1230008D1230008C0
:10005000D1230008D1230008D1230008D1230008B0
:10006000D1230008D1230008D1230008D1230008A0
:10007000D1230008D1230008D1230008D123000890
:10008000D1230008D1230008D1230008D123000880
:10009000D1230008D1230008D1230008D123000870
:1000A000D1230008D1230008D1230008D123000860
:1000B000D1230008D1230008D1230008A52200087D
:1000C000D1230008D1230008D1230008D123000840
:1000D000D1230008D1230008D1230008B122000851
:1000E000D1230008D1230008D1230008D123000820
:1000F000D1230008D1230008D1230008D123000810
:10010000D1230008D1230008D1230008D1230008FF
:10011000D1230008D1230008D1230008D1230008EF
:10012000D1230008D1230008D1230008D1230008DF
:10013000D1230008D1230008D1230008D1230008CF
:10014000D1230008D1230008D1230008D1230008BF
:10015000D1230008D1230008D1230008D1230008AF
:10016000D1230008D1230008D1230008D12300089F
:10017000D1230008D1230008D1230008000000008B
:08018000D1230008D12300087F
:1001900010B5054C237833B9044B13B10448AFF3C1
:1001A00000800123237010BDE40100200000000046
:1001B00070B6000808B5034B1BB103490348AFF301
:1001C000008008BD00000000E801002070B60008B3
:1001D000034613F8012B002AFBD1181A0138704787
:1001E00001F0FF01102A2BDB10F0070F08D010F8E8
:1001F000013B013A8B422DD010F0070F42B3F6D1EC
:10020000F0B441EA012141EA014122F007047FF004
:1002100000070023F0E80256083C85EA010586EA5B
:10022000010685FA47F5A3FA87F586FA47F6A5FA97
:1002300087F68EB9EED1F0BC01F0FF0102F00702A3
:1002400032B110F8013B013A83EA010313B1F8D14E
:100250000020704701387047002D06BF354603382F
:10026000073815F0010F07D1013015F4807F02BF68
:10027000013015F4C03F0130F0BC0138704700BFB9
:1002800081F0004102E000BF83F0004330B54FEA47
:1002900041044FEA430594EA050F08BF90EA020FB4
:1002A0001FBF54EA000C55EA020C7FEA645C7FEA47
:1002B000655C00F0E2804FEA5454D4EB5555B8BF6A
:1002C0006D420CDD2C4480EA020281EA030382EADB
:1002D000000083EA010180EA020281EA0303362D6D
:1002E00088BF30BD11F0004F4FEA01314FF4801C40
:1002F0004CEA113102D0404261EB410113F0004F52
:100300004FEA03334CEA133302D0524263EB430308
:1003100094EA050F00F0A780A4F10104D5F1200EA6
:100320000DDB02FA0EFC22FA05F2801841F1000101
:1003300003FA0EF2801843FA05F359410EE0A5F1D5
:1003400020050EF1200E012A03FA0EFC28BF4CF006
:10035000020C43FA05F3C01851EBE37101F00045BC
:1003600007D54FF0000EDCF1000C7EEB00006EEBC9
:100370000101B1F5801F1BD3B1F5001F0CD3490853
:100380005FEA30004FEA3C0C04F101044FEA4452AA
:1003900012F5800F80F09A80BCF1004F08BF5FEA31
:1003A000500C50F1000041EB045141EA050130BD11
:1003B0005FEA4C0C404141EB0101013C28BFB1F523
:1003C000801FE9D291F0000F04BF01460020B1FA6E
:1003D00081F308BF2033A3F10B03B3F120020CDA41
:1003E0000C3208DD02F1140CC2F10C0201FA0CF01F
:1003F00021FA02F10CE002F11402D8BFC2F1200C84
:1004000001FA02F120FA0CFCDCBF41EA0C01904039
:10041000E41AA2BF01EB0451294330BD6FEA040482
:100420001F3C1CDA0C340EDC04F11404C4F120026D
:1004300020FA04F001FA02F340EA030021FA04F37F
:1004400045EA030130BDC4F10C04C4F1200220FAD6
:1004500002F001FA04F340EA0300294630BD21FA14
:1004600004F0294630BD94F0000F83F4801306BFDA
:1004700081F480110134013D4EE77FEA645C18BFCE
:100480007FEA655C29D094EA050F08BF90EA020F65
:1004900005D054EA000C04BF1946104630BD91EA5D
:1004A000030F1EBF0021002030BD5FEA545C05D160
:1004B0004000494128BF41F0004130BD14F580049F
:1004C0003CBF01F5801130BD01F0004545F0FE4113
:1004D00041F470014FF0000030BD7FEA645C1ABF48
:1004E000194610467FEA655C1CBF0B46024650EA7F
:1004F000013406BF52EA033591EA030F41F40021AB
:1005000030BD00BF90F0000F04BF0021704730B530
:100510004FF4806404F132044FF000054FF0000105
:1005200050E700BF90F0000F04BF0021704730B5C6
:100530004FF4806404F1320410F0004548BF40429B
:100540004FF000013EE700BF42004FEAE2014FEAF0
:1005500031014FEA02701FBF12F07F4393F07F4FCB
:1005600081F06051704732F07F4208BF704793F0CE
:100570007F4F04BF41F40021704730B54FF46074E1
:1005800001F0004521F000411CE700BF50EA0102E4
:1005900008BF704730B54FF000050AE050EA01028D
:1005A00008BF704730B511F0004502D5404261EBFD
:1005B00041014FF4806404F132045FEA915C3FF43E
:1005C000D8AE4FF003025FEADC0C18BF03325FEADB
:1005D000DC0C18BF033202EBDC02C2F1200300FA8C
:1005E00003FC20FA02F001FA03FE40EA0E0021FAB1
:1005F00002F11444BDE600BF70B54FF0FF0C4CF49F
:10060000E06C1CEA11541DBF1CEA135594EA0C0F50
:1006100095EA0C0F00F0DEF82C4481EA030621EA8B
:100620004C5123EA4C5350EA013518BF52EA0335C6
:1006300041F4801143F4801338D0A0FB02CE4FF078
:100640000005E1FB02E506F00042E0FB03E54FF0A8
:100650000006E1FB03569CF0000F18BF4EF0010EA0
:10066000A4F1FF04B6F5007F64F5407404D25FEA9C
:100670004E0E6D4146EB060642EAC62141EA55514F
:100680004FEAC52040EA5E504FEACE2EB4F1FD0C91
:1006900088BFBCF5E06F1ED8BEF1004F08BF5FEA0F
:1006A000500E50F1000041EB045170BD06F00046C1
:1006B00046EA010140EA020081EA0301B4EB5C046E
:1006C000C2BFD4EB0C0541EA045170BD41F4801166
:1006D0004FF0000E013C00F3AB8014F1360FDEBF8B
:1006E000002001F0004170BDC4F10004203C35DA67
:1006F0000C341BDC04F11404C4F1200500FA05F3EA
:1007000020FA04F001FA05F240EA020001F000428A
:1007100021F0004110EBD37021FA04F642EB060100
:100720005EEA430E08BF20EAD37070BDC4F10C042A
:10073000C4F1200500FA04F320FA05F001FA04F2EE
:1007400040EA020001F0004110EBD37041F10001DA
:100750005EEA430E08BF20EAD37070BDC4F12005E5
:1007600000FA05F24EEA020E20FA04F301FA05F24D
:1007700043EA020321FA04F001F0004121FA04F2F5
:1007800020EA020000EBD3705EEA430E08BF20EAC5
:10079000D37070BD94F0000F0FD101F000464000FF
:1007A00041EB010111F4801F08BF013CF7D041EA81
:1007B000060195F0000F18BF704703F00046520085
:1007C00043EB030313F4801F08BF013DF7D043EA56
:1007D0000603704794EA0C0F0CEA135518BF95EA0C
:1007E0000C0F0CD050EA410618BF52EA4306D1D193
:1007F00081EA030101F000414FF0000070BD50EAB2
:10080000410606BF1046194652EA430619D094EA3B
:100810000C0F02D150EA013613D195EA0C0F05D125
:1008200052EA03361CBF104619460AD181EA030179
:1008300001F0004141F0FE4141F470014FF0000031
:1008400070BD41F0FE4141F4780170BD70B54FF0CC
:10085000FF0C4CF4E06C1CEA11541DBF1CEA13554C
:1008600094EA0C0F95EA0C0F00F0A7F8A4EB05042E
:1008700081EA030E52EA03354FEA013100F0888025
:100880004FEA03334FF0805545EA131343EA1263EE
:100890004FEA022245EA111545EA10654FEA0026A3
:1008A0000EF000419D4208BF964244F1FD0404F55C
:1008B000407402D25B084FEA3202B61A65EB0305B8
:1008C0005B084FEA32024FF480104FF4002CB6EB75
:1008D000020E75EB030E22BFB61A754640EA0C00F5
:1008E0005B084FEA3202B6EB020E75EB030E22BF35
:1008F000B61A754640EA5C005B084FEA3202B6EB76
:10090000020E75EB030E22BFB61A754640EA9C0034
:100910005B084FEA3202B6EB020E75EB030E22BF04
:10092000B61A754640EADC0055EA060E18D04FEAC2
:10093000051545EA16754FEA06164FEAC30343EA62
:1009400052734FEAC2025FEA1C1CC0D111F4801F2F
:100950000BD141EA00014FF000004FF0004CB6E728
:1009600011F4801F04BF01430020B4F1FD0C88BFC7
:10097000BCF5E06F3FF6AFAEB5EB030C04BFB6EBD2
:10098000020C5FEA500C50F1000041EB045170BDC5
:100990000EF0004E4EEA113114EB5C04C2BFD4EBF2
:1009A0000C0541EA045170BD41F480114FF0000E76
:1009B000013C90E645EA060E8DE60CEA135594EAF2
:1009C0000C0F08BF95EA0C0F3FF43BAF94EA0C0FF5
:1009D0000AD150EA01347FF434AF95EA0C0F7FF46A
:1009E00025AF104619462CE795EA0C0F06D152EABE
:1009F00003353FF4FDAE1046194622E750EA4106A2
:100A000018BF52EA43067FF4C5AE50EA41047FF4B2
:100A10000DAF52EA43057FF4EBAE12E74FF0FF3C17
:100A200006E000BF4FF0010C02E000BF4FF0010CE8
:100A30004DF804CD4FEA410C7FEA6C5C4FEA430C61
:100A400018BF7FEA6C5C1BD001B050EA410C0CBFB0
:100A500052EA430C91EA030F02BF90EA020F002012
:100A6000704710F1000F91EA030F58BF994208BF79
:100A700090422CBFD8176FEAE37040F00100704736
:100A80004FEA410C7FEA6C5C02D150EA013C07D18D
:100A90004FEA430C7FEA6C5CD6D152EA033CD3D0D8
:100AA0005DF8040B704700BF8446104662468C46D2
:100AB0001946634600E000BF01B5FFF7B7FF002805
:100AC00048BF10F1000F01BD4DF808EDFFF7F4FF2E
:100AD0000CBF012000205DF808FB00BF4DF808EDB9
:100AE000FFF7EAFF34BF012000205DF808FB00BFDC
:100AF0004DF808EDFFF7E0FF94BF012000205DF8FE
:100B000008FB00BF4DF808EDFFF7CEFF94BF0120B2
:100B100000205DF808FB00BF4DF808EDFFF7C4FFAB
:100B200034BF012000205DF808FB00BF4FEA410CF4
:100B30007FEA6C5C02D150EA013C0AD14FEA430CD7
:100B40007FEA6C5C02D152EA033C02D14FF0000014
:100B500070474FF0010070474FEA410212F5001252
:100B600015D211D56FF47873B3EB625212D94FEAF4
:100B7000C12343F0004343EA505311F0004F23FADE
:100B800002F018BF404270474FF00000704750EA33
:100B9000013005D111F0004008BF6FF000407047F0
:100BA0004FF00000704700BF4A0011D212F500124A
:100BB00011D20DD56FF47873B3EB62520ED44FEAB5
:100BC000C12343F0004343EA505323FA02F0704735
:100BD0004FF00000704750EA013002D14FF0FF3073
:100BE00070474FF0000070474FEA4102B2F1E04316
:100BF00024BFB3F5001CDCF1FE5C0DD901F0004C04
:100C00004FEAC0024CEA5070B2F1004F40EB830053
:100C100008BF20F00100704711F0804F21D113F17F
:100C20003872BCBF01F00040704741F480114FEAB8
:100C30005252C2F11802C2F1200C10FA0CF320FA41
:100C400002F018BF40F001004FEAC1234FEAD3235E
:100C500003FA0CFC40EA0C0023FA02F34FEA4303C8
:100C6000CCE77FEA625307D150EA01331EBF4FF051
:100C7000FE4040F44000704701F0004040F0FE406C
:100C800040F40000704700BF53B94AB9002908BFBB
:100C900000281CBF4FF0FF314FF0FF3000F0AAB921
:100CA000ADF1080C6DE904CE00F03CF8DDF804E08D
:100CB000DDE9022304B0704738B500220023044662
:100CC0000D46FFF70BFF28B920462946BDE83840FE
:100CD00000F00AB8204605F1004100F005F8404256
:100CE00061EB410138BD00BFD0B50C4B0022064678
:100CF0000F46FFF781FCFFF757FF0446FFF702FCA2
:100D0000074B0022FFF778FC02460B463046394677
:100D1000FFF7BAFAFFF748FF2146D0BD0000F03DCB
:100D20000000F0412DE9F047089D04468E46002B57
:100D30004DD18A42944669D9B2FA82F252B101FA8F
:100D400002F3C2F1200120FA01F10CFA02FC41EA9F
:100D5000030E94404FEA1C48210CBEFBF8F61FFA24
:100D60008CF708FB16E341EA034306FB07F19942BF
:100D70000AD91CEB030306F1FF3080F01F81994272
:100D800040F21C81023E63445B1AA4B2B3FBF8F04C
:100D900008FB103344EA034400FB07F7A7420AD9D3
:100DA0001CEB040400F1FF3380F00A81A74240F2FB
:100DB00007816444023840EA0640E41B00261DB166
:100DC000D4400023C5E900433146BDE8F0878B429B
:100DD00009D9002D00F0EF800026C5E9000130465A
:100DE0003146BDE8F087B3FA83F6002E4AD18B4234
:100DF00002D3824200F2F980841A61EB03030120DE
:100E00009E46002DE0D0C5E9004EDDE702B9FFDEC9
:100E1000B2FA82F2002A40F09280A1EB0C014FEA74
:100E20001C471FFA8CFE0126200CB1FBF7F307FBD1
:100E3000131140EA01410EFB03F0884208D91CEB74
:100E4000010103F1FF3802D2884200F2CB80434611
:100E5000091AA4B2B1FBF7F007FB101144EA0144F0
:100E60000EFB00FEA64508D91CEB040400F1FF317F
:100E700002D2A64500F2BB800846A4EB0E0440EA6D
:100E800003409CE7C6F12007B34022FA07FC4CEA76
:100E9000030C20FA07F401FA06F31C43F9404FEA69
:100EA0001C4900FA06F3B1FBF9F8200C1FFA8CFE7E
:100EB00009FB181140EA014108FB0EF0884202FAD2
:100EC00006F20BD91CEB010108F1FF3A80F0888093
:100ED000884240F28580A8F102086144091AA4B250
:100EE000B1FBF9F009FB101144EA014100FB0EFED1
:100EF0008E4508D91CEB010100F1FF346CD28E4500
:100F00006AD90238614440EA0840A0FB0294A1EB90
:100F10000E01A142C846A64656D353D05DB1B3EBED
:100F2000080261EB0E0101FA07F722FA06F3F1401D
:100F30001F43C5E9007100263146BDE8F087C2F1C4
:100F40002003D8400CFA02FC21FA03F3914001433C
:100F50004FEA1C471FFA8CFEB3FBF7F007FB103675
:100F60000B0C43EA064300FB0EF69E4204FA02F421
:100F700008D91CEB030300F1FF382FD29E422DD974
:100F8000023863449B1B89B2B3FBF7F607FB1633A9
:100F900041EA034106FB0EF38B4208D91CEB010129
:100FA00006F1FF3816D28B4214D9023E6144C91AA9
:100FB00046EA004638E72E46284605E70646E3E6B9
:100FC0001846F8E64B45A9D2B9EB020864EB0C0EC3
:100FD0000138A3E74646EAE7204694E74046D1E7D2
:100FE000D0467BE7023B614432E7304609E7644480
:100FF000023842E7704700BF7FB501238DF8172004
:101000004FF0FF32CDE901320DF117020092006876
:101010000A46D02101F06EFE07B05DF804FB000027
:101020001FB54FF0FF3C0123CDE9013C0092006861
:101030000A46D02101F0EEFE024B187005B05DF8B3
:1010400004FB00BF060200202DE9F7430024DFF86F
:10105000A480ADF8044005464FF0200926462746F7
:1010600001AA34212846FFF7DBFF0DF105023321E9
:101070002846FFF7D5FFBDF9043001AA36212846DE
:101080001F44FFF7CDFF0DF1050235212846FFF77C
:10109000C7FF9DF804309DF805201E44382146EA1C
:1010A0000226284601AAFFF7BBFF0DF105023721F2
:1010B0002846FFF7B5FF9DF804309DF8052088F815
:1010C00000001C44642009F1FF3944EA022401F0C5
:1010D000D1F919F0FF09C3D1054B98F800007F1131
:1010E000761164111F805E809C8003B0BDE8F083A0
:1010F00000020020060200202DE9F041744B88B068
:1011000003AE944604468E4603F110023546186835
:101110005968374603C7083393423E46F7D11B78D8
:101120003B7000227F21C4E900EC2046ADF81D2071
:101130008DF81F20FFF760FF664E0146307038B112
:101140006549284606F0CCFC002008B0BDE8F081D7
:101150000DF107022046FFF763FF0746307008B124
:101160005E49EEE79DF807205D4902A806F098FC6D
:1011700002A9284606F0B4FC9DF80C308DF81C70CE
:10118000203B8DF818309DF80D30203B8DF819303C
:101190000D238DF81A304FF00A088DF80C302846D0
:1011A00049238DF80E308DF81B808DF80D80FFF7E8
:1011B0000FF84FF0FF3382B22946606803F082FCDB
:1011C0003A467F212046FFF717FF307008B14549A6
:1011D000B7E7F12206212046FFF70EFF307008B175
:1011E0004149AEE7404601F045F90122062120467B
:1011F000FFF702FF307008B13C49A2E7404601F01A
:1012000039F93F2207212046FFF7F6FE07463070E6
:1012100008B1374995E7404601F02CF93A460721D5
:101220002046FFF7E9FE307008B1324989E7012214
:1012300010212046FFF7E0FE7F213070202220465B
:10124000FFF7DAFE0146307008B12B4979E7072233
:101250002046FFF7D1FE307008B1284971E73322EC
:1012600001212046FFF7C8FE0746307008B1244927
:1012700067E7072211212046FFF7BEFE3A4630708D
:1012800010212046FFF7B8FE307008B11D4958E71D
:10129000312214212046FFF7AFFE0746307008B117
:1012A00019494EE7024653212046FFF7A5FE3A466C
:1012B0007F212046FFF7A0FE307008B1134940E7B8
:1012C000642001F0D7F82046FFF7BEFE3CE700BFE0
:1012D00088B600080602002058B7000862B7000868
:1012E0006CB700086FB7000879B7000884B700082A
:1012F0008FB700089AB70008A5B70008AFB7000875
:10130000B9B70008C3B70008CDB70008D8B70008C0
:101310002DE9F341002301AA36210546ADF804303A
:10132000FFF77EFE2E4E2F4F30700DF10502352156
:101330002846FFF775FE7A889DF8043030709B1AB6
:101340009DF80520382143EA0223284601AA0FFA16
:1013500083F8FFF765FE0DF105023070372128464E
:10136000FFF75EFEBA889DF8043030709B1A9DF836
:101370000520342143EA0223284601AA1CB2FFF7C4
:101380004FFE0DF10502307033212846FFF748FE6D
:101390003A889DF80430DFED146A30709B1A9DF88E
:1013A000052043EA02231BB207EE103AB8EEC77AD3
:1013B00007EE908A27EE267A85ED057AB8EEE77A71
:1013C00007EE904AF8EEE77A27EE267A67EEA67ADD
:1013D00085ED067AC5ED077A02B0BDE8F08100BF61
:1013E00006020020000200202D237A3CF8B50F4AA7
:1013F0000F491048104F114CFFF77EFE00263B7836
:101400008BB10C4D2846FFF783FFD5ED077A94ED9D
:10141000007AF0EEE77A77EE877AC4ED007A0A2058
:1014200003F001FEEBE72660F9E700BF9003002020
:101430001C020020D8030020FC030020180200201A
:1014400000B595B02C22002109A805F0A1FC1422BA
:10145000002103A805F09CFC0023194A0193116C9C
:1014600041F080511164126C02F080520192019A95
:10147000144A0293116841F48041116012680E937E
:1014800002F480420292029A022208920120102263
:10149000CDE90B0208A802F079FB014608B172B64B
:1014A000FEE70F23CDE90330CDE90500079003A83F
:1014B00002F04AFD08B172B6FEE715B05DF804FB14
:1014C000003802400070004000B59DB000F0A6FF5B
:1014D000FFF7B6FF1422002113A805F059FC0024E1
:1014E000A34B02941A6BA348A34D42F010021A6357
:1014F0001A6B02F010020292029A03941A6B42F0E5
:1015000001021A631A6B02F001020392039A049417
:101510001A6B42F004021A631A6B02F0040204927E
:10152000049A05941A6B42F002021A631B6B03F0D3
:101530000203059322464FF4BC61059B01F048F974
:1015400022468E483C2101F043F901264FF4BC634A
:10155000884813A9CDE91336CDE9154401F05EF8AA
:101560003C23CDE9133685481594022313A916931D
:1015700001F054F81022214608A805F009FC1C22AD
:1015800021460CA8CDE9064405F002FC20222146A4
:1015900013A805F0FDFB7A4BAC60C5E90034284682
:1015A00041F61F43C5E90334C5E9054402F0D8FEFE
:1015B00008B172B6FEE74FF4805308A92846089395
:1015C00003F018F808B172B6FEE7284602F0F4FE00
:1015D00008B172B6FEE7CDE9060006A9284603F079
:1015E0001DF9024608B172B6FEE76023CDE90C3062
:1015F000CDE90E00CDE9100012900CA9284602F0AA
:1016000093FF08B172B6FEE704220CA9284602F047
:101610008BFF08B172B6FEE7CDE91300CDE91500E6
:1016200017904FF400531A9013A92846189303F00B
:1016300033F9044608B172B6FEE701461C2214A82D
:1016400005F0A6FB4F4D504BAC60C5E900344FF69A
:10165000FF73C5E903340323139313A90A23284610
:10166000CDE90C44AC611596179319961B9302F0C3
:10167000CFFE08B172B6FEE7CDE90C000CA92846F2
:1016800003F0CCF8044608B172B6FEE7014610221A
:1016900008A805F07DFB1C2221460CA8CDE90644D4
:1016A00005F076FB2022214613A805F071FB374E8A
:1016B0003748A023C0E900634FF47A73C0E90334CC
:1016C000802384604461836102F04AFE08B172B6EF
:1016D000FEE74FF480532E48089308A902F08AFFD2
:1016E00008B172B6FEE72A4802F066FE08B172B68B
:1016F000FEE7CDE9060006A9254803F08FF808B1FA
:1017000072B6FEE76023CDE90C30CDE910000E90F3
:1017100012900C221E480CA902F006FF08B172B606
:10172000FEE7CDE91300CDE9150017904FF4005303
:101730001A9013A91648189303F0AEF8044608B19E
:1017400072B6FEE71248134D00F030FD12484FF418
:10175000E133C0E900530C23C0E90534C0E9024479
:101760000461C46103F080F90346B8B172B6FEE7C4
:1017700000380240001002404803002000000240F0
:10178000000401400003002000040040000001406C
:10179000700200200048004090030020274828499C
:1017A000284A0362C0E900124FF48042C0E90233C4
:1017B000C0E90423C0E9063301F0F4F9044608B196
:1017C00072B6FEE7204D0146202214A805F0E0FA8B
:1017D0004FF08043C5E900344FF0FF33C5E90334CF
:1017E00013A901232846CDE90C44AC60AC611393E6
:1017F0001593199302F00CFE08B172B6FEE7CDE91D
:101800000C000CA9284603F009F808B172B6FEE7EF
:10181000019005F0FDF903F08FFB0C4A01990C488B
:1018200003F0B6FB0B4B0C4A186001990B4803F010
:10183000AFFB0B4B186003F091FBFEE71C0200208E
:1018400000540040801A0600B802002038B8000892
:10185000591E00081402002014B80008ED130008F7
:101860000802002010B5144B144A1B786E2B12D1BD
:1018700000231360124B01221A700F4911480122F4
:1018800003F041FBBDE810400B490E484FF6FF73D3
:10189000012203F017B91168002904D10A490B701D
:1018A00001231360E9E7E8DD084A11680A2000FB1C
:1018B0000133303BF5E700BF0C020020D4030020C9
:1018C000FD030020900300200D02002010020020E4
:1018D00007B50190FEF77CFC019982B203484FF6F0
:1018E000FF7303B05DF804EB03F0ECB89003002045
:1018F0002DE9F04F2DED048BAB4CDFF8F092DFF8C3
:10190000F0A29DB000218046A848B0EE409A02F0B7
:1019100083FF0421A54802F07FFF0C21204602F03E
:101920007BFF2368A24C96221A64642003F07BFBA1
:10193000202200210BA805F02BFA4FF4616520222C
:1019400000214FF07E574FF4617614A8CDE90C6565
:101950000E940A9705F01CFA0AA8CDE915651794AC
:10196000139704F0FDFF13A804F0FAFF3C2148464A
:1019700002F035FC3C21504602F031FCD9F8003031
:101980005C6ADAF800305D6A00F06EFD0190B8F133
:10199000000F00F0C68087480122082100F018FFE0
:1019A00084480022042100F013FF01228148102105
:1019B00000F00EFF00227F48DFED7F8ADFF8ECB1F8
:1019C000202100F005FF4FF4FA673E46B0EE688A2A
:1019D000DBF800305E639F6300F046FD774A0290BB
:1019E00001231370019A831A322BF1D9D9F8001010
:1019F000DAF800004B6A426A0968C90640F1A7801C
:101A00009C42DBBFC3F57F41FF31E41A64180168D3
:101A1000C90640F1A4809542DBBFC2F57F41FF318A
:101A2000AD1A6D1807EE904A9FED657A9FED656AD5
:101A30000392F8EEE77A0193C7EE876A07EE905AB1
:101A40009FED617AF8EEE77AA6EE878AC7EE866A9E
:101A5000E6EE878AB8F1000F00F089803146DFEDAD
:101A60005B9A68EEA99AF0EE480AB0EE690A0AA8F5
:101A700004F07EFF394686B2F0EE690AB0EE480AFD
:101A800013A804F075FFDFED527A019B039A69EE0B
:101A9000277A87B277EE897AF4EEC87AF1EE10FAF7
:101AA00004D9F4EEE87AF1EE10FA4BD8DBF8003006
:101AB000424D484900245C6332469C6305A82C7063
:101AC00005F0EEFF05AA14210A2005F081F818EEB2
:101AD000100AFEF739FD0B4602463F4905A805F0FE
:101AE000DFFF05AA1E210A2005F072F83B4B18689B
:101AF000FEF72AFD0B460246394905A805F0D0FF3E
:101B000005AA28210A2005F063F804F0C5FF4FF468
:101B10007A702C7003F087FA1DB0BDEC048BBDE821
:101B2000F08F24484246082100F052FE214801224D
:101B3000042100F04DFE42461E48102100F048FEF0
:101B4000012238E70299019115461C4640E79C4264
:101B5000A5BFC4F57F44FF341C1BE41857E795422A
:101B6000A5BFC5F57F45FF35551BAD185AE7DFED1D
:101B70001D9A68EE299A3146F0EE690AB0EE680ABD
:101B80000AA804F0F5FE394686B2F0EE680AB0EE17
:101B9000690A13A804F0ECFEDFED137A039A019BA7
:101BA00069EE277A87B275E77002002048030020AB
:101BB000CDCC4C3D0000024000000000FC030020A2
:101BC00000C042440020C3446666AE41992A783F73
:101BD0000AD7233C9CB60008A8B6000818020020CB
:101BE000B5B60008C6DC893F8FC2753DB80200203B
:101BF000000300202DE9F047904D914E914C924FFB
:101C0000DFF850A286B0814688462846002102F0BF
:101C100003FE0421284602F0FFFD0C21304602F0AD
:101C2000FBFDB8F1000F00F0A280884801220821D6
:101C300000F0CEFD85480022042100F0C9FD834854
:101C40000122102100F0C4FD80480022202100F074
:101C5000BFFD3368B9F1000F5DD06420186403F054
:101C6000E2F92B684FF4FA625A639A6301232370F6
:101C7000D7ED007AF0EEE77A17EE900AFEF764FCF3
:101C80008046DAF800008946FEF73CFC02460B4627
:101C900040464946FEF722FF28B1012003F0C3F970
:101CA0002378002BE4D13868FEF74EFC0B46024641
:101CB000674901A805F0F4FE0A2101AA084604F0CC
:101CC00087FF04F0E9FE2B68604800255D639D6393
:101CD0003368257096221A6408212A4600F078FDA0
:101CE0002A465A48042100F073FD2A46574810211D
:101CF00000F06EFD2A462021544800F069FD284678
:101D0000B7EE000AFFF7F4FD4FF47A7003F08BF999
:101D100006B0BDE8F0874FF487721A64642003F0C0
:101D200082F92B6840F2DC525A634FF4FA629A63EC
:101D300001232370D7ED007AF0EEE77A17EE900AD0
:101D4000FEF702FC8046DAF800008946FEF7DAFB6F
:101D500002460B4640464946FEF7C0FE0028A2D088
:101D6000012003F060F92378002BE3D19BE737488B
:101D70004246082100F02CFD34480122042100F0E5
:101D800027FD32484246102100F022FD2F48012253
:101D9000202100F01DFD3368B9F1000F26D0642228
:101DA0001A642B684FF4FA625A639A630123237012
:101DB000D7ED007AF0EEE77A17EE900AFEF7C4FB53
:101DC0008046DAF800008946FEF79CFB02460B4687
:101DD00040464946FEF782FE00283FF464AF0120EA
:101DE00003F021F92378002BE2D15CE74FF48772EE
:101DF0001A642B684FF4FA625A639A6301232370C2
:101E0000D7ED007AF0EEE77A17EE900AFEF79CFB2A
:101E10008046DAF800008946FEF774FB02460B465E
:101E200040464946FEF75AFE00283FF43CAF0120E9
:101E300003F0F9F82378002BE2D134E748030020BF
:101E400070020020FC030020180200200000024065
:101E5000B5B60008100200202DE9F84301223B49E5
:101E60003B483C4D3C4C3D4E3D4FDFF81081DFF888
:101E7000109103F048F83B4A002313702B70236045
:101E8000337038464FF4806100F0A7FC28780128B1
:101E90000CD133780021772B297005D86B2B0AD809
:101EA0004C2B47D0522B49D0002323604FF47A703B
:101EB00003F0B9F8E5E76C3B0B2BF5D801A252F81B
:101EC00023F000BF0B1F0008A91E0008A91E000870
:101ED000A91E0008471F0008A91E0008171F0008B8
:101EE000231F0008A91E0008A91E0008A91E00083B
:101EF000F51E0008D4ED007A0120B8EE670AFFF75E
:101F0000F7FC1948FFF7E4FCCEE701210846FFF78C
:101F100071FE1648F6E700200121FFF76BFE14481A
:101F2000F0E7D4ED007A0020B8EE670AFFF7E0FC96
:101F30004846E7E7FFF75EFE0E48E3E70846FFF78F
:101F400059FE0D48DEE74046DCE700BF0C020020EA
:101F500090030020FD030020100200200D0200204D
:101F600000100240FC030020D7B60008E7B60008C6
:101F7000F3B600080FB7000823B70008E3B700085E
:101F800000B7000882B00E4B00220092596C41F459
:101F900080415964596C01F480410091009901928B
:101FA000196C41F0805119641B6C03F0805301934C
:101FB000019B0F216FF0010002B000F081BA00BF59
:101FC0000038024030B5044689B01422002103A82D
:101FD00004F0DEFE2268184B9A422AD1174C1848AA
:101FE00000250195236B43F002032363236B03F069
:101FF000020301934FF44072019B1223CDE90323A6
:1020000003210423CDE9061303A900F007FB029581
:10201000236C43F400132364236C03F40013029332
:102020001F202A460521029B00F04AFA1F2000F0DB
:1020300079FA09B030BD00BF0054004000380240BA
:102040000004024010B5044688B01422002103A801
:1020500004F09EFE23681A4A93420DD10023009398
:10206000184B5A6C42F001025A645B6C03F0010396
:102070000093009B08B010BD134A9342FAD1114B54
:102080001248002101915A6C42F002025A645A6CC3
:1020900002F002020192019A02911A6B42F00402CC
:1020A0001A631B6B03F004030293029BC0220223FA
:1020B000CDE9032303A90323079300F0AFFAD9E77F
:1020C00000000140003802400004014000080240C6
:1020D00070B514228AB0044600210DEB020004F012
:1020E00057FE2368B3F1804F37D103F50E33002438
:1020F00000941A6C294842F001021A641A6C02F02A
:1021000001020092009A01941A6B42F001021A63D4
:102110001A6B02F001020192019A02941A6B42F0CA
:1021200002021A631B6B03F002030293029B022656
:102130004FF40043012505A9CDE90536099500F0C6
:102140006DFA0823CDE90536CDE907441448099511
:1021500005A900F063FA0AB070BD124A9342FAD1A1
:10216000114B0E48002103911A6C42F002021A64CE
:102170001A6C02F002020392039A04911A6B42F065
:1021800001021A631B6B03F001030493049BC0223A
:102190000223CDE90523099305A9DAE700000240EF
:1021A00000040240000400400038024010B504461C
:1021B00086B01422002101A804F0EAFD22680E4B2B
:1021C0009A4216D1002300930C4B0D481A6B42F033
:1021D00010021A631B6B03F010030093009B4FF473
:1021E00080420223CDE9012301A90123059300F0D8
:1021F00015FA06B010BD00BF0000014000380240D3
:102200000010024010B5044688B01422002103A833
:1022100004F0BEFD2268184B9A422BD103F5F83327
:10222000002401941A6C154842F480221A641A6C36
:1022300002F480220192019A02941A6B42F0040285
:102240001A631B6B03F0040302934FF44062029B7A
:102250000223CDE9032303210723CDE9061303A9B4
:1022600000F0DCF927202246052100F029F927207B
:1022700000F058F908B010BD0048004000080240C6
:10228000FEE7FEE7FEE7FEE7FEE7704708B500F071
:10229000DFF803F081FE012803D0BDE8084004F018
:1022A00089B908BD014801F021B800BF1C02002017
:1022B000014802F0BDBC00BF900300200120704720
:1022C00008B504F02DFD162303604FF0FF3008BD64
:1022D00008B504F025FD16230360FEE770B50D4632
:1022E00014460E46731B9C4201DC204670BDAFF3C2
:1022F000008006F8010BF5E770B50D4614460E4652
:10230000731B9C4201DC204670BD16F8010BAFF335
:102310000080F5E74FF0FF3070474FF400534B60FB
:102320000020704701207047002070470B4A116859
:1023300010B5034609B90A491160106809490A4CE9
:102340000344091B8B4206D904F0EAFC0C2303600A
:102350004FF0FF3010BD1360FCE700BF0004002009
:10236000686300200000022000040000034AD2F845
:10237000883043F47003C2F88830704700ED00E005
:10238000DFF834D00D480E490E4A002302E0D4583D
:10239000C4500433C4188C42F9D30B4A0B4C0023AD
:1023A00001E013600432A242FBD3FFF7DFFF04F029
:1023B000BDFCFFF789F870470000022000000020F4
:1023C000E4010020A4C70008E401002064630020A9
:1023D000FEE7000038B50E4A0E4B054618784FF45C
:1023E0007A73B3FBF0F31068B0FBF3F000F0A8F8D9
:1023F000044658B90F2D09D8024629464FF0FF3040
:1024000000F05EF8044B20461D6038BD0120FCE75B
:1024100000000020040000200800002008B50B4B3D
:102420001A6842F400721A601A6842F480621A60F4
:102430001A6842F480721A60032000F02FF80F200F
:10244000FFF7C8FFFFF79EFD002008BD003C0240DB
:10245000034A044B11681B780B441360704700BF9C
:102460000404002004000020014B1868704700BFDE
:102470000404002038B50446FFF7F6FF631C1CBFB8
:10248000054B1B78054618BFE418FFF7EDFF431B0B
:10249000A342FAD338BD00BF040000200749CA6830
:1024A00022F4E0620302120403F4E063120C13430B
:1024B00043F0BF6343F40033CB60704700ED00E0AE
:1024C000164B30B5DC68C4F30224C4F10705231DA4
:1024D000042D28BF0425062B4FF0FF338CBF033C8F
:1024E000002403FA05F521EA0501A34022EA0302CC
:1024F000A140002841EA0203ACBF00F16040084A55
:102500004FEA0313B8BF00F00F00DBB2AABF00F51B
:102510006140135480F8003330BD00BF00ED00E08F
:1025200014ED00E0002808DB4209012300F01F0041
:1025300003FA00F0014B43F82200704700E100E08D
:102540000138B0F1807F0BD24FF0E023054A58618B
:10255000F02182F823100020072298611A61704749
:102560000120704700ED00E070B50446866DFFF76E
:102570007BFF94F83530022B054606D08023636537
:10258000002384F83430012070BD23681A6822F0DB
:1025900016021A605A6922F080025A61226C0AB946
:1025A000A26C1AB11A6822F008021A601A6822F0A6
:1025B00001021A6023681B6813F001030AD1E16D60
:1025C0003F228A40B260012284F8352084F83430FA
:1025D0001846D9E7FFF748FF401B0528EAD9202312
:1025E00063650320002384F8350084F83430CBE79A
:1025F00090F83530022B03D08023436501207047CB
:102600000268052380F83530136823F00103136056
:102610000020704790F83500704700002DE9F74F13
:10262000DFF8A891674A00230D6801249C4004EA62
:10263000050CAC4340F0B1804D6805F003044FEA4F
:1026400043080326671E06FA08F6012F6FEA0606FE
:1026500034D8876807EA060ECF6807FA08F747EA12
:102660000E078760476827EA0C0EC5F300179F40E6
:1026700047EA0E074760C76807EA060E8F6807FA41
:1026800008F747EA0E07022CC76019D14FEAD30AB0
:1026900000EB8A0A03F0070BDAF820704FEA8B0B85
:1026A0004FF00F0E0EFA0BFE27EA0E0E0F6907FA17
:1026B0000BF747EA0E07CAF8207001E0032CDAD1C5
:1026C000076804FA08F43E40264315F4403F0660CC
:1026D00063D04FF0000ACDF804A0D9F844603A4C1A
:1026E00046F48046C9F84460D9F8446006F4804650
:1026F0000196019E23F0030606F1804606F59C36FE
:1027000003F0030ED6F808804FEA8E0E0F2707FA63
:102710000EF7A04228EA070746D004F58064A042DD
:1027200044D004F58064A04242D004F58064A04205
:1027300040D004F58064A0423ED004F58064A042FD
:102740003CD004F58064A0423AD004F58064A042F5
:102750000CBF0724082404FA0EF43C43B4609468C8
:102760006FEA0C06EF0254BF34404CEA0404946054
:10277000D468AF0254BF34404CEA0404D4605468B7
:10278000AF0354BF34404CEA040454601468ED03B2
:1027900054BF34404CEA040414600133102B7FF41E
:1027A00043AF03B0BDE8F08F5446D4E70124D2E72D
:1027B0000224D0E70324CEE70424CCE70524CAE7AB
:1027C0000624C8E7003C01400000024000380240F7
:1027D0000AB1816170470904FBE7436901EA03021A
:1027E00021EA030141EA02418161704701684B69B6
:1027F00013F480634FF0000210D06FF480634B61DC
:102800002023026380F83D3080F83E20036C80F87E
:102810003C2043F0040303640120704718467047CE
:102820002DE9F84606460F4691461D464FEA114AE5
:102830003368BAF1010F0CBF5C699C6927EA040494
:10284000A4B2B4FA84F46409A14501D0002017E0D1
:102850006A1CEED0FFF708FE089BC01AA84201D8F8
:10286000002DE5D100232022336386F83D2086F831
:102870003E30326C86F83C3042F020023264012057
:10288000BDE8F8862DE9F04104460F461646984605
:102890002568686927EA000080B2B8B16B695A05FB
:1028A00016D52B6843F400732B606FF480636B6163
:1028B00020220023236384F83D2084F83E30226CDC
:1028C00042F00402226484F83C300120BDE8F0812B
:1028D000731CDED0FFF7C8FDA0EB0800B04201D8A2
:1028E000002ED5D100232022236384F83D2084F8D4
:1028F0003E30226C42F02002E4E770B504460D46FB
:10290000164621684B6913F0400301D0002010E007
:102910004A69D2060ED56FF010024A612022236365
:1029200084F83D2084F83E30226C226484F83C30E8
:10293000012070BDFFF798FD801BA84201D8002D33
:10294000DFD100232022236384F83D2084F83E3029
:10295000226C42F02002E8E770B504460D461646A8
:1029600023685B695B0701D5002070BD2046FFF737
:102970003DFFA8B96A1CF3D0FFF776FD801BA84283
:1029800001D8002DECD100232022236384F83D20C0
:1029900084F83E30226C84F83C3042F020022264FD
:1029A0000120E2E770B504460D46164623685B69D0
:1029B0001B0601D5002070BD2046FFF717FFA8B900
:1029C0006A1CF3D0FFF750FD801BA84201D8002DF0
:1029D000ECD100232022236384F83D2084F83E308C
:1029E000226C84F83C3042F0200222640120E2E7AD
:1029F0002DE9F0431546026885B0DDE90C7899466B
:102A0000136843F4807313600E463B46CDF8008094
:102A100000224FF001110446FFF702FF236838B18E
:102A20001B68DB0502D54FF40073236403200AE022
:102A300006F0FE061E61194943463A462046FFF756
:102A400021FF18B1012005B0BDE8F0832368039091
:102A50005A6903929B690393424639462046039B79
:102A6000FFF7A0FF40B1236C042B01BF226813685D
:102A700043F400731360E5E7B9F1010F236802D155
:102A8000EDB21D61DFE72A0A1A6139464246204647
:102A9000FFF788FF0028E6D12368F1E70200010074
:102AA0002DE9FF479A46036815461A6842F480628A
:102AB0001A601A68DDE90C7842F480721A600E46DA
:102AC0003B46CDF8008000224FF001110446FFF78D
:102AD000A7FE236848B11B68DB0502D54FF40073DD
:102AE0002364032004B0BDE8F0875FFA86F906F09E
:102AF000FE061E612A4943463A462046FFF7C2FEBB
:102B000008B10120EEE7236803905A6903929B699C
:102B10000393424639462046039BFFF743FF40B1EB
:102B2000236C042B01BF2268136843F40073136005
:102B3000E7E7BAF1010F23681AD1EDB21D614246F1
:102B400039462046FFF72EFF0028E9D12268136896
:102B500043F4807313604FF001110246CDF80080FA
:102B60003B462046FFF75CFE226860B11368B3E77E
:102B70002A0A1A61394642462046FFF713FF002809
:102B8000CED12368D9E749F00103136104494346D4
:102B90003A462046FFF776FE003818BF0120A1E72D
:102BA0000200010070B5044608B9012070BD90F81C
:102BB0003D3003F0FF021BB980F83C20FFF702FA1A
:102BC000242384F83D3023681A6822F001021A6039
:102BD0001A6842F400421A601A6822F400421A602D
:102BE00001F04EFA3F4B65689D4294BF3E4B3F4B10
:102BF00098428CBF00230123002BD6D12268394E86
:102C000053683B49B0FBF1F123F03F030B43B5425E
:102C1000536088BF4FF49676136A88BF714323F0E0
:102C20003F0384BF4FF47A76B1FBF6F101311943CB
:102C30001162D169431E2B4821F44F41854221F096
:102C4000FF0132D86D0040F6FC70B3FBF5F30133A1
:102C5000034242D0C3F30B030B43D361D4E90730E3
:102C60001168034321F0C0010B4313609168D4E95C
:102C7000030321F40341034321F0FF010B4393605D
:102C8000D4E90530D168034321F0FF010B43D36041
:102C9000136843F00103136000202023206484F8AC
:102CA0003D30206384F83E0080E7A06850B905EB12
:102CB0004505B3FBF5F30133C3F30B037BB143F4D9
:102CC0000043C9E719204543B3FBF5F30133C3F3D0
:102CD0000B0323B143F44043BEE70423BCE70123C5
:102CE000BAE700BFA08601007F841E00FF083D00F8
:102CF00040420F002DE9F743044699460C9E0F46CB
:102D00009046FFF7B1FB94F83D30202B054603D0E9
:102D1000022003B0BDE8F08300903C491923012252
:102D20002046FFF77DFD0028F2D194F83C30012BBE
:102D3000EED02068012384F83C300368D9075EBFD9
:102D4000036843F001030360036823F40063036036
:102D5000212384F83D30402384F83E30002323644F
:102D60000A9B6362BDF82C306385638D2385284BF5
:102D7000E362CDE900654B46424639462046FFF7FF
:102D800037FE00282AD00120C3E7FFF70BFE40B131
:102D9000236C042B01BF2268136843F40073136093
:102DA000F1E7636A27681A4612F8011B396162620B
:102DB000628D218D013A92B262857A69481E80B295
:102DC000520720850AD548B15A783A6102336362C6
:102DD000638D013B02399BB221856385238D2A4691
:102DE00031462046002BD0D1FFF7B6FD0028CFD1C9
:102DF0002268136843F400731360202384F83D3085
:102E000084F83C0084F83E0083E700BF0200100015
:102E10000000FFFF2DE9F043044687B09946109F5C
:102E20000D469046FFF720FB94F83D30202B0646D8
:102E300004D00225284607B0BDE8F083009076490B
:102E4000192301222046FFF7EBFC0028F1D194F86A
:102E50003C30012BEDD02068012384F83C3003681E
:102E6000DB075EBF036843F001030360036823F4DC
:102E700000630360222384F83D30402384F83E3011
:102E8000002323640E9B6362BDF83C306385638D31
:102E90002385624BE3622946CDE900764B464246E4
:102EA0002046FFF7FDFD054608B10125C2E7228D4A
:102EB0002368B2B902905A6902929A690292029A00
:102EC0001A6842F400721A60DFF85481238D002BD7
:102ED0002CD1202284F83D2084F83C3084F83E3008
:102EE000A8E7012A0AD11A6822F480621A600390C6
:102EF0005A6903929A690392039AE1E7022A0ED172
:102F00001A6822F480621A601A6842F400621A6039
:102F100004905A6904929B690493049BD4E705903A
:102F20005A6905929B690593059BCDE7032B56D8FB
:102F3000012B15D1324639462046FFF7DEFC00282A
:102F4000B3D123681A69636A1A70636A01336362D2
:102F5000238D013B2385638D013B9BB26385B5E7E0
:102F6000022B00963B464FF000024146204619D105
:102F7000FFF756FC002898D123681A6842F40072C3
:102F80001A601A69636A1A70626A531C6362238D3D
:102F9000013B2385638D013B9BB2638523681B69DD
:102FA0005370D2E7FFF73CFC00287FF47EAF236824
:102FB0001A6822F480621A601A69636A1A70636A76
:102FC000009601336362238D013B2385638D013BB2
:102FD0009BB2638502463B4641462046C8E73246DF
:102FE00039462046FFF789FC00287FF45EAF23684E
:102FF0001A69636A1A70626A531C6362238D013B0B
:103000002385638D013B9BB263852368596949071A
:103010007FF55CAFC3E700BF020010000000FFFFB8
:103020000400010070477047704770477047704751
:10303000704790F83D2008B5036DD2B283B9C36CD8
:103040000268012B836C05D1DBB21361036D02337F
:10305000036508BDC3F307231361036D0133F7E76D
:10306000036D012B03D1836C0268DBB2F4E7036DBF
:10307000022BEED1222A05D10268136843F4807333
:103080001360EAE7438D9BB263B1212A0AD1436AF8
:10309000026813F8011B11614362438D013B9BB22F
:1030A0004385D6E7438D9BB2002BD2D1212AD0D1C4
:1030B0000268516821F4E0615160116841F40071C7
:1030C00011602022036380F83D2080F83E30FFF736
:1030D000AFFFBEE7704770477047000037B5002369
:1030E00001932D4B806B1B6890F83D2046F2A81190
:1030F000B3FBF1F323214B4301930368D2B201994F
:1031000041BB016C41F020010164446B0CB1002112
:10311000E163816B09B10025CD631D6825F48065ED
:103120001D600025458504B1256501B10D6519684F
:1031300021F00101196090F83D10602911D1202380
:1031400080F83D30002380F83E300364FFF7C4FF71
:1031500003B030BD01990139019119688905CED4B8
:10316000D3E702F02802282A0ED1196841F00101A4
:103170001960196841F4806119600023036380F8C5
:103180003D20FFF7A8FFE3E7202380F83D30002330
:1031900080F83E30F5E700BF0000002010B590F841
:1031A0003D2090F83E30102BD9B204460368D2B2CD
:1031B00001D0402913D1222A11D1196821F40061CC
:1031C0001960596811F4006106D1602A1EBF2022DF
:1031D00084F83D2084F83E100022226307E002F0CC
:1031E00028012829EDD10022226384F83D105A6875
:1031F00012F400624FD05A68606B22F400625A6089
:1032000090F83530012B374B2BD00365FFF7F0F9E1
:1032100050B12268606B136823F001031360202310
:1032200084F83D30036D9847236C19071FBF22684F
:10323000536823F4E063536094F83D30226C5207E6
:10324000DBB20DD5282B0BD1274BE36220220023C4
:103250002363204684F83D2084F83E30FFF7E7FEE4
:1032600010BDA06B0365FFF7C3F90028DCD023680D
:103270005A69510605D51A69636A1A70636A01337F
:1032800063622268A06B136823F00103136020239C
:1032900084F83D30C6E794F83D10602915D120210F
:1032A00084F83D1022645A69520605D51A69636A8A
:1032B0001A70636A013363622268136823F00103A2
:1032C00013602046FFF708FFAEE75A69500605D5A0
:1032D0001A69636A1A70636A013363622046FFF7F2
:1032E000FAFEA1E7DD3000080000FFFFF0B503683B
:1032F00004465A68C66A90F83E0094F83D101028BB
:103300008FB0C5B2C9B202D0402D40F0C0829F69D3
:10331000586910F0010F07D1B6F52A0F02D0B6F1A7
:103320002A4F51D10FB0F0BD96054DD5E26AB2F5E6
:103330002A0F0CD10122E26294F83E20402A11D1DA
:10334000226D52B9626C02F0FE021A61EAE7E26A8B
:10335000B2F12A4FF0D10822EDE7626C42F001028F
:10336000D2B2F2E72269B2F5804F1AD194F83D202B
:10337000212A626C11D102F0FE021A61626B0AB15D
:10338000D26B2AB9A26B002ACCD0D26B002AC9D04A
:103390005A6842F400625A60C4E742F00102D2B2B5
:1033A000EBE7226D32B9626CD21102F0060242F0F4
:1033B000F002CAE7226D012AB4D1626CD21102F088
:1033C000060242F0F102C0E7060703D5960501D5D3
:1033D000626CE4E7860740F1DD80960540F1DA8013
:1033E00094F83E10E26A256B94F83D002228C9B299
:1033F00040F0C880206D40B9402906D101905A693B
:1034000001929B690193019B8CE7216D89B9206929
:10341000B0F5404F0DD102915A6902929A69029219
:10342000029A1A6842F480721A60236D0133236590
:1034300078E7618D89B251B903915A6903929A690B
:103440000392039A1A6842F400721A6019E0618DBF
:1034500089B2012949D112F5803F1BD11A6822F4A3
:1034600080621A605A6812F400620CD01A6822F462
:1034700080621A60002204925A6904929B69049344
:10348000049B0023D3E705925A6905929A69059235
:10349000059AD7E7082A1CD0202A1AD0122D0DD160
:1034A000012A16D11A6822F480621A60002206925C
:1034B0005A6906929B690693069BE2E7102AF1D8A7
:1034C000914921FA02F2D707ECD51A6842F48062DA
:1034D000EBE71A6822F480621A60002207925A69A8
:1034E00007929A690792079AACE7618D89B202291F
:1034F0002AD1102A03D88449D140CE0720D4196894
:1035000021F480611960196841F4006119605968FB
:103510000D050DD512F5803F06D0511E1F2907D885
:103520007A4ACA40D00703D55A6842F480525A609A
:10353000002208925A6908929B690893089BA0E7A9
:10354000196841F48061E1E7196841F4806119600C
:10355000596809050ED512F5803F07D0013A1F2A98
:1035600008D86A4921FA02F2D20703D55A6842F410
:1035700080525A60002209925A6909929B69099304
:10358000099B7EE700220A925A690A929B690A9374
:103590000A9BC7E67F0740F18D805E6836053FF5E0
:1035A000C1AE0706C0F380063ED550053CD5002EBF
:1035B0003DD194F83D20258D94F83E10E06AD2B2BA
:1035C000C9B2C5B9212A18D1082858D0202856D008
:1035D00010F5803F53D05A6822F4E0625A601123FC
:1035E0002363002384F83E30202384F83D302046B6
:1035F000FFF718FD96E6212A05D040297FF492AE08
:10360000222A7FF48FAE628D92B21AB95A6822F4E0
:103610008062C0E694F83E20402A16D120460FB0C2
:10362000BDE8F040FFF705BD002E3FF47BAE9705E7
:103630007FF578AE212939D1E16A94F83D20212A1D
:103640007FF470AE628D92B24AB1626A12F8011BC9
:1036500019616262638D013B9BB2638562E6082952
:103660000DD020290BD011F5803F08D0596821F4E6
:10367000E06159601123236384F83E20B4E75A685F
:1036800022F4E0625A601A6842F400721A60002361
:103690002022236384F83D2094F83E2084F83E30B5
:1036A000402A2046A4D1FFF7C3FC3BE6402D7FF41F
:1036B00039AEB3E759680E053FF534AE4506C0F3A1
:1036C00080017AD5500578D5002979D194F83D202C
:1036D000222A7FF427AE628D92B2032A18D91A6982
:1036E000636A1A70636A01336362638D013B9BB244
:1036F0006385638D9BB2032B7FF414AE22685368FD
:1037000023F4806353600DE6140001008180008083
:10371000E06A02283FF47AAF012A3FF677AF754A94
:103720000B91126846F2A811B2FBF1F202EB820291
:103730000B920B9A013A0B920B99D1B9226C42F081
:10374000200222645A6822F4E0625A601A69636AAD
:103750001A70636A01336362638D013B9BB26385B8
:10376000202384F83D30204684F83E10FFF7B3FC58
:10377000D8E51A6812F40072DBD1196821F480616F
:103780001960596821F4E06159601969636A197018
:10379000636A01336362638D013B9BB263852023BF
:1037A00084F83D3094F83E3084F83E20402B68D1B8
:1037B00022632046FFF78EFCB4E500293FF4B2AD4A
:1037C00092057FF5AFADE26A608D616A80B2042830
:1037D00009D15A6822F480625A601B690B70636ACF
:1037E0000133636236E7608D80B203280CD15868DC
:1037F000042A20F480605860EFD0022AEDD01A68C5
:1038000022F480621A60E8E7608D80B20228E4D179
:10381000012A01D0102A28D11A6822F480621A6085
:103820001B690B70626A531C6362638D013B9BB220
:10383000638523681B695370636A2268013363627E
:10384000638D013B9BB26385536823F440735360DF
:10385000202384F83D3094F83E30402B4FF0000395
:1038600084F83E300DD12363A3E7042A01D0022A55
:1038700003D11A6842F48062D1E71A6842F40072F8
:10388000CDE7122323632046FFF7CDFB4AE5206CEA
:1038900010B35869002587072ED596052CD5226CC4
:1038A00002B19D6994F83D2002F02802282A16D121
:1038B0005A6822F480625A602F066FEA95014FF031
:1038C000000354BFA289228B84F83C3001F001012F
:1038D0002046FFF7ABFB25E59D695869DBE7002231
:1038E0000C9259690C919B690C930C9B84F83C20B9
:1038F00018E500BF00000020C60640F1B180950524
:1039000040F1AE8094F83D505A6822F4E0625A606B
:1039100000220D925A690D921A6842F001021A6053
:103920000D9A1A6822F480621A605A681005EDB286
:1039300020D505F0F702222A4AD1A06B026852680E
:1039400092B26285628D92B21AB1226C42F0040288
:1039500022645A6822F400625A60FEF75BFE012876
:1039600008D0A06B794B0365FEF742FE10B1A06B47
:10397000036D9847638D9BB213B323685A6951074F
:1039800009D51A69636A1A70636A01336362638DC9
:10399000013B9BB2638523685A69520609D51A69AF
:1039A000636A1A70636A01336362638D013B9BB281
:1039B0006385638D9BB21BB1236C43F004032364C6
:1039C000236C13B320460FB0BDE8F040FFF7E6BB11
:1039D000606B0268526892B26285628D92B21AB1CF
:1039E000226C42F0040222645A6822F400625A6097
:1039F000FEF710FE0128BDD0606B544B0365FEF747
:103A0000F7FD0028B6D0606BB2E72A2D06D12363FC
:103A1000282384F83D302046FFF707FB94F83D301B
:103A2000282B0CD14A4BE36220220023236320463B
:103A300084F83D2084F83E30FFF7F9FA72E4236BF6
:103A4000222B02D0222D7FF46DAC00232022236391
:103A500084F83D2084F83E302046FFF7E6FA61E422
:103A600001F0F7012129C0F3800535D1070627D5DC
:103A7000560525D53DBB94F83D00628D92B2C0B28B
:103A8000002A3FF44FAC626A12F8015B1D6162626A
:103A9000628D013A92B26285628D92B2002A7FF401
:103AA00041AC29287FF43EAC5A6822F480625A6007
:103AB00028232163204684F83D30FFF7B5FA31E42E
:103AC000002D3FF42FAC95057FF52CAC628D92B2A2
:103AD000002A3FF427ACB8E5400627D5510525D587
:103AE0003DBB94F83D20618D89B2D2B200293FF4EC
:103AF00019AC1969636A1970636A01336362638D73
:103B0000013B9BB26385638D9BB2002B7FF40AACB3
:103B10002A2A7FF407AC2268536823F48063536039
:103B200022232363282384F83D3095E7002D3FF4BA
:103B3000F9AB92057FF5F6AB628D92B2002A3FF4A5
:103B4000F1AB1A69636A1A7049E600BFDD300008FC
:103B50000000FFFF044B01221A62044B82B01B6875
:103B60000193019B02B0704700000E4200700040BC
:103B7000044B00221A62044B82B01B680193019B24
:103B800002B0704700000E42007000402DE9F34182
:103B9000044640B30368DD0710D4236898075ED459
:103BA00023681A0700F1A08023685B0700F1C0803A
:103BB000A069002840F0288100202BE08F4B9A68F4
:103BC00002F00C02042A07D09A6802F00C02082ABC
:103BD0000BD15A68510208D5884B1B689A03DCD573
:103BE0006368002BD9D1012014E06268B2F5803FF0
:103BF00013D11A6842F480321A60FEF735FC7F4E0A
:103C0000054633689B03C8D4FEF72EFC401B64288E
:103C1000F7D9032002B0BDE8F081784DB2F5A02FAE
:103C20002B6807D143F480232B602B6843F4803347
:103C30002B60E2E723F480332B602B6823F480238E
:103C40002B60002AD9D1FEF70FFC06462B689F0394
:103C5000A3D5FEF709FC801B6428F7D9D9E7674B89
:103C60009A6812F00C0F07D09A6802F00C02082A2A
:103C700011D15B685E020ED4604A13689D0702D5BD
:103C8000E368012BAFD11368216923F0F80343EAFD
:103C9000C103136084E7E268594BB2B101221A6094
:103CA000FEF7E2FB554D06462B68980707D52B68B3
:103CB000226923F0F80343EAC2032B6070E7FEF7A2
:103CC000D3FB801B0228EFD9A3E71A60FEF7CCFBD9
:103CD0004A4E0546336899077FF562AFFEF7C4FB8D
:103CE000401B0228F6D994E76269454B82B1012254
:103CF000C3F8802EFEF7B8FB404E0546736F9F0752
:103D00003FF552AFFEF7B0FB401B0228F6D980E723
:103D1000C3F8802EFEF7A8FB384E0546736F980750
:103D20007FF542AFFEF7A0FB401B0228F6D970E7F3
:103D3000324B1A6C12F0805228D101921A6C42F068
:103D400080521A641B6C03F080530193019B01277E
:103D50002C4D2B68D9051BD5A368284D012B27D1E5
:103D60002B6F43F001032B67FEF77EFB234E0546C6
:103D700041F28838336F9B0739D5002F3FF418AFD5
:103D80001E4A136C23F08053136411E70027DFE70A
:103D90002B6843F480732B60FEF766FB06462B68A6
:103DA000DA05D9D4FEF760FB801B0228F7D930E78B
:103DB000052B04D12B6F43F004032B67D0E72A6F48
:103DC00022F001022A672A6F22F004022A67002BE0
:103DD000CAD1FEF749FB41F2883806462B6F980797
:103DE000CBD5FEF741FB801B4045F7D911E7FEF725
:103DF0003BFB401B4045BDD90BE700BF00380240EC
:103E00000000474200700040364DAB6803F00C03E1
:103E1000082B3DD0344B002202281A662BD1FEF726
:103E200023FB06462B6899011FD4D4E907321343BC
:103E3000626A43EA8213E26A43EA0263A26A5208B0
:103E4000013A43EA02436B60274B264D01221A6672
:103E5000FEF70AFB04462B689A013FF5ADAEFEF76C
:103E600003FB001B0228F6D9D3E6FEF7FDFA801B00
:103E70000228D7D9CDE6FEF7F7FA04462B689B0156
:103E80007FF59AAEFEF7F0FA001B0228F6D9C0E6DD
:103E900001283FF4BFAE6B68E26903F480019142F0
:103EA0007FF4A1AE216A03F03F028A427FF49BAE09
:103EB000616A47F6C0721A40B2EB811F7FF493AE7D
:103EC000A26A520803F44031013AB1EB024F7FF489
:103ED0008AAEE26A03F07063B3EB026F3FF46CAE3C
:103EE00081E600BF0038024000004742134908B590
:103EF0008B6803F00C03042B1CD0082B1CD14A68E0
:103F00004B68496813F4800314BF0D480D48C1F392
:103F1000881118BF002302F03F02A1FB0001FCF74B
:103F2000B3FE064B5B68C3F3014301335B00B0FB98
:103F3000F3F008BD0248FCE70248FAE70038024007
:103F400040787D010024F4002DE9F0410D4604463F
:103F500010B90120BDE8F081444B1A6802F0070255
:103F60008A4228D3226897072DD4D00741D43F4BEB
:103F70001A6802F00702AA4266D8226851076CD478
:103F8000130707D53A4A2169936823F4604343EA4B
:103F9000C1039360FFF7AAFF354B364A9B68C3F312
:103FA0000313D35CD840344B1860344B1868FEF7C9
:103FB00011FA0020CEE7CAB21A701B6803F007039B
:103FC0008B42C6D1CEE72A4B12F0040F1EBF996870
:103FD00041F4E0519960160742BF996841F460418D
:103FE00099602349A0688B6823F0F00303438B603A
:103FF000BBE762681E4B012A1CD11B6813F4003F0B
:10400000A7D01B4EB36823F003031343B360FEF73E
:104010002BFA41F288380746B368626803F00C0354
:10402000B3EB820FA3D0FEF71FFAC01B4045F3D9B4
:1040300003208FE7911E01291B6802D813F0007F2F
:10404000DEE713F0020FDBE7EAB21A701B6803F039
:104050000703AB427FF47DAF8FE70549E0688B68CB
:1040600023F4E05303438B608AE700BF003C024027
:10407000003802405CB80008000000200800002062
:10408000044B054A9B68C3F38223D35C034A106840
:10409000D8407047003802406CB80008000000208B
:1040A000044B054A9B68C3F34233D35C034A106850
:1040B000D8407047003802406CB80008000000206B
:1040C000036A23F001030362036A70B544688269DE
:1040D0000D6822F073022A438D6823F002032B43FC
:1040E0000E4DA84202D00E4EB04210D1CE6823F041
:1040F00008033343A84223F0040302D0084DA8422A
:1041000005D1D1E9055624F4407435432C4344606D
:1041100082614A684263036270BD00BF00000140D3
:1041200000040140036A23F480730362036A70B5DC
:104130004468C2690D6822F073022A438D6823F433
:10414000007343EA0523114DA84203D005F58065AD
:10415000A84214D1CD6823F4006343EA05230B4D34
:10416000A84223F4806303D005F58065A84206D1F8
:10417000D1E9055624F44054354344EA051444601B
:10418000C2614A68C263036270BD00BF00000140A3
:10419000036A23F480530362036A30B54468C2693A
:1041A0000D6822F4E64242EA05228D6823F40053AA
:1041B00043EA0533084DA84203D005F58065A842BF
:1041C00004D14D6924F4804444EA85144460C261FA
:1041D0004A680264036230BD00000140704730B598
:1041E00090F83E2090F83F3090F8425090F84340CD
:1041F000D2B2DBB2EDB2E4B2C9B9012A46D1012D87
:1042000046D1022380F83E3080F8423003681A6AB3
:1042100022F001021A621A6A42F001021A6202686E
:10422000136843F0010313600023184630BD0429CE
:1042300011D1012B2AD1012CF7D1022380F83F3074
:1042400080F8433003681A6A22F010021A621A6A70
:1042500042F01002E2E7012A18D1012B18D1012DFA
:10426000E3D1012CE1D1022380F83E3080F83F30C9
:1042700080F8423080F8433003681A6A22F0010265
:104280001A621A6A42F001021A62DCE70123CCE7E3
:104290001346CAE7304A0368904212D0B0F1804F0B
:1042A0000FD0A2F57C4290420BD002F58062904282
:1042B00007D002F58062904203D002F57842904226
:1042C00019D14A6823F070031343234A904229D03E
:1042D000B0F1804F26D0A2F57C42904222D002F568
:1042E000806290421ED002F5806290421AD002F5A0
:1042F0007842904216D0194A904213D002F580625B
:1043000090420FD002F5806290420BD0A2F5983215
:10431000904207D002F58062904203D002F580629D
:10432000904203D1CA6823F4407313434A6923F0CF
:104330008003134303608B68C3620B688362064B80
:10434000984203D003F58063984201D10B6903635F
:1043500001234361704700BF00000140004001405D
:1043600010B5044630B390F83D3003F0FF021BB99E
:1043700080F83C20FDF766FE0223206884F83D307B
:10438000211DFFF787FF012384F84630002084F8C1
:104390003E3084F83F3084F8403084F8413084F86F
:1043A000423084F8433084F8443084F8453084F84F
:1043B0003D3010BD0120FCE710B5044630B390F845
:1043C0003D3003F0FF021BB980F83C20FFF706FFE9
:1043D0000223206884F83D30211DFFF75BFF012395
:1043E00084F84630002084F83E3084F83F3084F86A
:1043F000403084F8413084F8423084F8433084F807
:10440000443084F8453084F83D3010BD0120FCE78D
:10441000F8B50D46044600284DD090F83D3003F025
:10442000FF021BB980F83C20FDF752FE2146022313
:1044300084F83D3051F8040B836823F4804323F063
:1044400007038360FFF726FF20682A688668836970
:10445000A968076A1643AA6923F4407341EA022156
:1044600023F003030B4323F47C422B69E9691B010E
:1044700043EA0123E9680B43296A22F0FC0243EA7C
:1044800001331343696927F0AA026F68866047EA1F
:104490000117836117430123076284F84630002027
:1044A00084F83E3084F83F3084F8423084F843305A
:1044B00084F83D30F8BD0120FCE70000036A23F0DA
:1044C00010030362036A70B5446882690D6822F4C0
:1044D000E64242EA05228D6823F0200343EA0513F1
:1044E000104DA84203D005F58065A84214D1CD68CF
:1044F00023F0800343EA05130A4DA84223F040034A
:1045000003D005F58065A84206D1D1E9055624F40B
:104510004064354344EA8504446082614A688263AA
:10452000036270BD0000014070B590F83C30012B73
:10453000054653D00120082A85F83C003DD006D816
:10454000C2B1042A28D0002385F83C3070BD0C2A63
:10455000F9D12868FFF71CFE2B680969DA6942F473
:104560000062DA61DA6922F48062DA61DA6942EAC9
:10457000012231E02868FFF7A3FD2B6809699A69D9
:1045800042F008029A619A6922F004029A619A69DB
:104590000A439A610020D6E72868FFF78FFF2B684F
:1045A00009699A6942F400629A619A6922F4806208
:1045B0009A619A6942EA0122EBE72868FFF7B2FDA7
:1045C0002B680969DA6942F00802DA61DA6922F0D7
:1045D0000402DA61DA690A43DA61DBE70220B5E74F
:1045E00010B58468114324F47F4441EA0323234334
:1045F000836010BD70B590F83C30012B04464FF03D
:10460000020300F09180012280F83D3080F83C20C8
:104610000068836823F47F4323F0770383600B688B
:10462000602B52D033D8402B67D016D8202B0DD01A
:104630000AD833F0100109D0012384F83D3000235B
:1046400084F83C30104670BD302BF5D1826822F0E2
:104650007002134343F0070317E0502BECD14A6874
:10466000CE68016A056A25F001050562836921F0BB
:104670000A0123F0F00343EA06130A43836102624E
:10468000836823F0700343F05703836011E0B3F5B0
:10469000805F0ED0B3F5005F0DD0702BCCD1CB680E
:1046A000D1E90121FFF79CFF2268936843F077036B
:1046B00093600022C0E7CB68D1E90121FFF790FFAA
:1046C0002268936843F48043F2E74D68CE68016A3C
:1046D00021F0100101628269036A22F4704223F022
:1046E000A00343EA051342EA06328261036283684B
:1046F00023F0700343F06703C7E74A68CE68016A96
:10470000056A25F001050562836921F00A0123F09D
:10471000F00343EA06130A4383610262836823F0CD
:10472000700343F04703B0E71A468BE7036A01F0D2
:104730001F0110B501248C4023EA04030362036ABD
:104740008A401A43026210BD10B5044629B990F898
:104750003E30012B18D001202DE004290DD190F816
:104760003F30013B18BF0123002BF4D104294FF047
:10477000020321D184F83F3009E008290CBF90F8EA
:10478000403090F84130ECE7022380F83E3020685A
:104790000122FFF7CBFF23681C498B4213D01C4A30
:1047A000934210D0B3F1804F14D19A6802F00702FF
:1047B000062A26D1002010BD08290CBF84F84030FD
:1047C00084F84130E3E75A6C8B4242F400425A6469
:1047D000EBD0E7E70F4A9342E7D002F580629342BD
:1047E000E3D002F580629342DFD002F57842934233
:1047F000DBD002F570529342D7D0A2F594329342A7
:10480000D3D01A6842F001021A60D3E700000140D9
:104810000004014000040040FFF796BF30B590F857
:104820003C30012B4FF0020332D080F83D3003685A
:104830000D685C689A6824F070042C435C60154C29
:10484000A3421AD0B3F1804F17D0A4F57C44A34201
:1048500013D004F58064A3420FD004F58064A34212
:104860000BD004F57844A34207D004F57054A3425A
:1048700003D0A4F59434A34204D1496822F0800205
:104880000A439A60012380F83D30002380F83C30D1
:10489000184630BD0000014090F83C30012B1FD07D
:1048A000CB688A6823F4407313434A6823F4806317
:1048B00013430A6823F4006313430A6923F4805303
:1048C00013434A6923F400531343CA6923F4804312
:1048D000134302685364002380F83C301846704745
:1048E00002207047026802F10C0353E8003F23F4F2
:1048F00090730C3242E8003102680029F2D102F1D3
:10490000140353E8003F23F0010302F1140C4CE8B8
:1049100000310029F3D1036B012B0BD102F10C0301
:1049200053E8003F23F0100302F10C0C4CE8003177
:104930000029F3D1202380F83E3000230363704721
:104940000268C168136923F440530B4370B51361C7
:10495000054683680069D168034368690343E869D1
:1049600021F4164121F00C0103430B43D36053693A
:10497000A96923F440730B4353611F4B9A4203D040
:1049800003F580639A4223D1FFF78AFBEB69192173
:10499000B3F5004FD5E90046A0FB01011BD1B219C8
:1049A0004FF000035B41FCF76FF96421B0FBF1F5B8
:1049B00001FB1503DB003233B3FBF1F303F0070215
:1049C0005B0002EB051203F4F8731344A36070BD9F
:1049D000FFF756FBDAE7B200B30FFCF755F9642294
:1049E000B0FBF2F102FB11031B013233B3FBF2F314
:1049F00003EB0113EAE700BF00100140F8B50446DD
:104A00000E4617461D462268136836EA030301D195
:104A1000002028E06B1CF7D025B1FDF725FDC01B59
:104A20008542F0D2226802F10C0353E8003F23F4E0
:104A3000D0730C3242E8003021680028F2D101F135
:104A4000140353E8003F23F0010301F1140040E890
:104A50000032002AF3D1202384F83D3084F83C2032
:104A600084F83E300320F8BD10B5044640B390F8FA
:104A70003D3003F0FF021BB980F83C20FDF7C2FB7C
:104A80002268242384F83D30D36823F40053D36094
:104A90002046FFF755FF23681A6922F490421A61F5
:104AA0005A6922F02A025A61DA6842F40052DA6046
:104AB00000202023206484F83D3084F83E3010BD6F
:104AC0000120FCE7F7B5174690F83D200093202A17
:104AD00004460E4649D1002945D0002F43D090F816
:104AE0003C20012A41D0012280F83C2000252122CF
:104AF000056480F83D20FDF7B7FCA168009BA78402
:104B0000B1F5805F0246E78403D1216909B93546D2
:104B10000E46002184F83C10E18C89B241B9402155
:104B20002046FFF76BFF60B9202384F83D3009E091
:104B300080212046CDE90023FFF760FFDDE9002357
:104B400010B1032003B0F0BD20684EB935F8021B48
:104B5000C1F308014160E18C013989B2E184DBE7EE
:104B600016F8011BF6E70120ECE70220EAE77047A0
:104B7000704708B5806B0023C385C384FFF7F8FF37
:104B800008BD704707B58168836A0268B1F5805F28
:104B90003ED1016900293ED15268C2F3080223F8D0
:104BA000022B8362C38D013B9BB2C385002B2CD1AA
:104BB0000268D16821F02001D160D16821F48071B0
:104BC000D160516921F001015161202280F83E201D
:104BD000026B012A026828D1036302F10C0353E837
:104BE000003F23F0100302F10C0C4CE800310029C7
:104BF000F3D11368DB0605D501911368019353685F
:104C00000193019B818DFFF7BCFF03B05DF804FBAE
:104C100039B9016929B95268D2B21A70836A01336D
:104C2000BFE7526802F07F02F7E7FCF71BFEECE7F4
:104C3000036837B51A68D9685D6912F00F0F04462A
:104C40000CD1950670D58D066ED590F83E30222B8E
:104C500064D103B0BDE83040FFF794BF05F0010018
:104C600001F4907505435FD0D50705D5CB0542BF4C
:104C7000236C43F001032364550704D518B1236C5A
:104C800043F002032364930704D518B1236C43F067
:104C900004032364150707D501F0200303431EBF57
:104CA000236C43F008032364236C002B36D090065A
:104CB00008D58A0606D594F83E30222B02D120462C
:104CC000FFF760FF23685B69256C03F0400305F084
:104CD00008051D43204623D0FFF704FE22685369D0
:104CE0005B0618D502F1140353E8003F23F040039C
:104CF00002F1140040E800310029F3D1A06B50B15B
:104D0000724B0365FDF774FC40B1A06B036D03B0FB
:104D1000BDE8304018472046FFF72AFF03B030BDFA
:104D2000FFF726FF2564F9E7206B012840F091800A
:104D3000D50640F18E80C80640F18B80002201929A
:104D40001A6801925A680192019A5A6955064CD51F
:104D5000A16B0A68526892B2002ADFD0A08D9042FF
:104D6000DCD9E285CA69B2F5807F36D003F10C0246
:104D700052E8002F22F4807203F10C0040E8002179
:104D80000029F3D103F1140252E8002F22F00102AE
:104D900003F1140040E800210029F3D103F11402CB
:104DA00052E8002F22F0400203F1140040E80021F5
:104DB0000029F3D1202284F83E20216303F10C0264
:104DC00052E8002F22F0100203F10C0040E800210D
:104DD0000029F3D1A06BFDF7C7FBE38DA18DC91AA4
:104DE00089B22046FFF7CDFE98E7E18D8AB2E18DCA
:104DF00089B2002992D0A18D891A89B200298DD05B
:104E000003F10C0252E8002F22F4907203F10C051A
:104E100045E800200028F3D103F1140252E8002FE6
:104E200022F0010203F1140545E800200028F3D127
:104E3000202284F83E20206303F10C0252E8002F68
:104E400022F0100203F10C0545E800200028F3D100
:104E5000C7E7100628D50D0626D594F83D20212A4F
:104E60007FF45CAFA168226AB1F5805F17D1216938
:104E7000A9B932F8021BC1F3080159602262E28C21
:104E8000013A92B2E284002A7FF448AFDA6822F055
:104E90008002DA60DA6842F04002DA603EE7511CD4
:104EA000216212785A60EAE750067FF537AF4A066A
:104EB0007FF534AFDA6822F04002DA60202384F80C
:104EC0003D302046FFF753FE28E700BF734B000834
:104ED000C285002382852222036480F83E20026975
:104EE00080F83C30816203681AB1DA6842F480725B
:104EF000DA605A6942F001025A61DA6842F020022F
:104F0000DA600020704770B490F83E60202E10D117
:104F100061B15AB190F83C40012C0AD0012480F8CC
:104F20003C400024046370BCFFF7D2BF012070BC7A
:104F300070470220FBE70000EFF305832BB9064B17
:104F4000186828B901221A6070476FF00500704791
:104F50004FF0FF30704700BF640C002010B5EFF336
:104F600005845CB9084B1A68012A0AD1074AD4772C
:104F700002221A6000F08AFD204610BD6FF0050085
:104F8000FBE74FF0FF30F8E7640C002000ED00E095
:104F9000F0B587B0144600220B460592EFF3058268
:104FA000D2B9C8B1002C30D0A569002D08BF182592
:104FB000691E3729AC462DD86168C9072AD46669AD
:104FC0006EB1B208D4E9027E21685FB1BEF15B0F19
:104FD00002D9246904B1FEB9059807B0F0BD4FF4B9
:104FE0000072EFE7BEF1000FF6D12469002CF3D177
:104FF0000C4605A9CDE900C192B2214600F019FD89
:1050000001281CBF00230593E6E74FF0180C4FF46E
:105010000072EEE71046E0E7CDE90147009500F0A9
:10502000D0FC0590D8E710B5EFF3058424B910B192
:1050300000F08AFE204610BD6FF00500FBE700007F
:10504000034B0360034B0B604FF400731360704716
:10505000080C002008040020034B0360034B0B6086
:105060004FF4806313607047681C0020680C0020B8
:1050700000F108034FF0FF32C0E9022343600361EF
:1050800000230360704700230361704743684B604F
:105090009A688A609A685160996003680861013370
:1050A0000360704730B50C68631C0AD103695A6805
:1050B0004A6091608B605960036808610133036046
:1050C00030BD00F10802134652681568A542FAD9AE
:1050D000EDE7D0E9011203698A60516059688142A5
:1050E00008BF5A60002202611A68013A1A60186803
:1050F000704710B5044601F0F5F9A46B01F012FAFF
:10510000B4FA84F0400910BDF8B51546026C866B00
:10511000044652B9076847BB806800F04DFFA7609E
:1051200005460136A6632846F8BD65B9406801F01A
:1051300021FE6368226C1344A26863609342F0D33B
:1051400023686360EDE7C06801F014FE226CE36839
:1051500051429B1A2268E36093423EBFA3685B18EA
:10516000E360022D01D116B1013E0025D9E7354695
:10517000D7E7034610B41A6C08466AB1DC68996830
:1051800014448C4228BF1968DC6028BFD960D968F4
:105190005DF8044B01F0EEBD5DF8044B704770B54F
:1051A000044601F09FF994F8455004F124066DB2CD
:1051B000002D14DCFF2384F8453001F0B3F901F031
:1051C00091F994F8445004F110066DB2002D12DCF0
:1051D000FF2384F84430BDE8704001F0A3B9636A4E
:1051E000002BE7D0304600F045FE08B100F0CEFEBF
:1051F000013D6DB2DCE72369002BE9D0304600F0B9
:1052000039FE08B100F0C2FE013D6DB2DEE738B5EF
:105210000D46044640B94FF0500383F31188BFF3A5
:105220006F8FBFF34F8FFEE701F05CF9D4E90F31C8
:10523000226862604B43D0185B1A1344A060E3609D
:105240000020FF23A06384F8443084F84530A5B9DA
:10525000236973B104F1100000F00CFE48B14FF067
:10526000E0234FF08052C3F8042DBFF34F8FBFF3FC
:105270006F8F01F057F9012038BD04F11000FFF7DE
:10528000F7FE04F12400FFF7F3FEF2E713B51C4626
:1052900040B94FF0500383F31188BFF36F8FBFF312
:1052A0004F8FFEE743B94FF0500383F31188BFF3EC
:1052B0006F8FBFF34F8FFEE74AB191B94FF05003A4
:1052C00083F31188BFF36F8FBFF34F8FFEE741B1B8
:1052D0004FF0500383F31188BFF36F8FBFF34F8FED
:1052E000FEE750230193019B502B08D04FF0500351
:1052F00083F31188BFF36F8FBFF34F8FFEE7002951
:1053000008BF2246019B22600123C4E90F0184F8F3
:10531000463019462046FFF77AFF9DF8103084F892
:105320004C30204602B010BD2DE9F04385B08846D0
:1053300001921F46044640B94FF0500383F3118891
:10534000BFF36F8FBFF34F8FFEE751B9036C43B1CB
:105350004FF0500383F31188BFF36F8FBFF34F8F6C
:10536000FEE7022F0BD1E36B012B08D04FF0500367
:1053700083F31188BFF36F8FBFF34F8FFEE700F009
:105380000BFE064650B9019B4BB14FF0500383F31F
:105390001188BFF36F8FBFF34F8FFEE700264FF0EA
:1053A000000937E0019D1DB901F0BCF8002052E072
:1053B00016B902A800F0A2FD01F0B4F800F0ACFBB1
:1053C00001F090F894F84430FF2B08BF84F8449023
:1053D00094F84530FF2B08BF84F8459001F0A2F8FF
:1053E00001A902A800F096FD00284AD101F07AF840
:1053F000A26BE36B9A4231D101F094F8019904F168
:10540000100000F0FFFC2046FFF7C9FE00F028FC6A
:1054100060B3012601F066F8A26BE36B9A4201D3F8
:10542000022FBFD13A4641462046FFF76DFE636A20
:105430001BB104F1240000F01DFD48B14FF0E02342
:105440004FF08052C3F8042DBFF34F8FBFF36F8F1F
:1054500001F068F8012005B0BDE8F08301F062F8C2
:105460002046FFF79CFE00F0FBFBD2E74FF0E02365
:105470004FF08052C3F8042DBFF34F8FBFF36F8FEF
:10548000C7E72046FFF78BFE00F0EAFB8EE72DE929
:10549000F843894690461F46044640B94FF05003F2
:1054A00083F31188BFF36F8FBFF34F8FFEE751B9BE
:1054B000036C43B14FF0500383F31188BFF36F8F38
:1054C000BFF34F8FFEE7022F0BD1E36B012B08D008
:1054D0004FF0500383F31188BFF36F8FBFF34F8FEB
:1054E000FEE701F015F9EFF311864FF0500383F357
:1054F0001188BFF36F8FBFF34F8FA26BE36B9A429C
:1055000001D3022F23D194F84550A36B6DB23A46D4
:1055100049462046FFF7F8FD6B1C13D1636A0BB9AF
:1055200001200BE004F1240000F0A4FC0028F7D0D7
:10553000B8F1000FF4D00120C8F8000086F31188FC
:10554000BDE8F88301356DB284F84550E8E70020E6
:10555000F4E72DE9FF410F460192044640B94FF0B0
:10556000500383F31188BFF36F8FBFF34F8FFEE7B4
:1055700051B9036C43B14FF0500383F31188BFF36B
:105580006F8FBFF34F8FFEE700F006FD064650B960
:10559000019B4BB14FF0500383F31188BFF36F8F22
:1055A000BFF34F8FFEE700264FF000083DE0019D5E
:1055B0001DB900F0B7FF002056E016B902A800F0B0
:1055C0009DFC00F0AFFF00F0A7FA00F08BFF94F80D
:1055D0004430FF2B08BF84F8448094F84530FF2BFB
:1055E00008BF84F8458000F09DFF01A902A800F0E3
:1055F00091FC002841D12046FFF77BFDB8B301990B
:1056000004F1240000F0FEFB2046FFF7C8FD00F087
:1056100027FB48B94FF0E0234FF08052C3F8042D28
:10562000BFF34F8FBFF36F8F012600F05BFFA56BB9
:10563000002DBCD039462046013DFFF79AFDA563F9
:10564000236973B104F1100000F014FC48B14FF06D
:10565000E0234FF08052C3F8042DBFF34F8FBFF308
:105660006F8F00F05FFF012004B0BDE8F08120469D
:10567000FFF795FD00F0F4FAD6E72046FFF78FFD1F
:1056800000F0EEFA2046FFF734FD0028CCD092E778
:1056900010B5074A002352F833402CB942F83310B2
:1056A00002EBC303586010BD0133082BF3D1FAE7B6
:1056B000C41C002070B504460D46164600F012FFCB
:1056C00094F84430FF2B04BF002384F8443094F84E
:1056D0004530FF2B04BF002384F8453000F022FF43
:1056E000A36B2BB93246294604F1240000F0A4FB39
:1056F0002046BDE87040FFF752BD00002DE9F041A3
:10570000044600F0EFFE304B304E1A68304F013245
:105710001A603568002D4BD134601B68012B1FD1F6
:10572000B84640460135FFF7A3FC382D08F11408B0
:10573000F7D1DFF8C480274D4046FFF799FC284693
:10574000FFF796FC2448FFF793FC2448FFF790FCF2
:105750002348FFF78DFC234BC3F80080224B1D60CC
:10576000224A136801331360214A63641168E36AB3
:1057700014208B4200FB037004F1040188BF136006
:10578000FFF784FC00F0CEFE1A4B1B6873B1336840
:10579000DA6AE36A9A4209D24FF0E0234FF080526E
:1057A000C3F8042DBFF34F8FBFF36F8FBDE8F081B7
:1057B000104B1B68002BD3D13368DA6AE36A9A4234
:1057C00098BF3460CCE700BF70210020041D00208A
:1057D000101D002098210020B8210020E421002085
:1057E000D0210020081D00200C1D00207C2100205D
:1057F00080210020CC21002084210020F8B5154B09
:10580000154E1D680446306804300F46FFF761FCF2
:10581000631C07D137B131681048BDE8F840043146
:10582000FFF734BC33682C195C6007D30C4B186845
:105830003168BDE8F8400431FFF734BC094B186803
:1058400031680431FFF72EFC074B1A68A24288BF6B
:105850001C60F8BDF8210020041D0020D02100208C
:105860000C1D0020081D0020AC210020064A1368F2
:105870001968064B19B94FF0FF321A607047126869
:10588000D268D2685268F8E7081D0020AC210020D9
:1058900010B590F8593004463BB9006B01F022F87E
:1058A0002046BDE8104001F01DB8012BF9D0022BB5
:1058B00008D04FF0500383F31188BFF36F8FBFF30D
:1058C0004F8FFEE710BD000080B5134C134F144DF1
:1058D000236873B9134B1B68012BF8D94FF0E023F1
:1058E0004FF08052C3F8042DBFF34F8FBFF36F8F7B
:1058F000EDE700F0F7FDFB68DE68301DFFF7E9FB20
:105900002B68013B2B602368013B236000F00AFEFB
:105910003046FFF7BDFFDBE774210020E4210020C3
:1059200070210020101D00202DE9F047DDE90984D9
:105930004FEA82094A4606460D46206BA5211F46BE
:1059400001F026FA226BA9F10409914429F0070914
:10595000A5B36B1E04F134020F3513F8010F02F8E2
:10596000010B08B1AB42F8D1002384F84330089D05
:10597000372D28BF37254FF0000AE562E564201D6A
:10598000C4F850A0FFF77FFBC5F1380504F11800FB
:10599000FFF779FBC4F854A02461A561646284F820
:1059A00058A03A463146484600F074FD2060B8F1F0
:1059B000000F01D0C8F80040BDE8F08784F83450EB
:1059C000D5E770B586B0DDE90B5445B94FF050030B
:1059D00083F31188BFF36F8FBFF34F8FFEE744B996
:1059E0004FF0500383F31188BFF36F8FBFF34F8FD6
:1059F000FEE75C260596059E5C2E08D04FF050030E
:105A000083F31188BFF36F8FBFF34F8FFEE72563DA
:105A1000022584F8595004AD01950A9D0294009521
:105A2000059EFFF781FF2046FFF768FE049806B049
:105A300070BD2DE9F043074685B0900088461646B4
:105A4000994600F0B7FE0546E8B15C2000F0B2FED2
:105A50000446A8B1002380F859300D9B05630193DB
:105A60000C9B0290009332464B4641463846FFF766
:105A70005BFF2046FFF742FE012005B0BDE8F08342
:105A8000284600F02FFF4FF0FF30F6E710B588B042
:105A9000002407AA06A905A8CDE90544FFF7D0FA16
:105AA000059B0293069B079A16491748CDE90043C8
:105AB0002346FFF786FF18B300F014FB012814D12A
:105AC0004FF0500383F31188BFF36F8FBFF34F8FF5
:105AD0000E4B4FF0FF321A600D4B18600D4B1C60DF
