:020000040800F2
:1000000000000220AD490008A1480008A3480008EC
:10001000A5480008A7480008A948000800000000FB
:10002000000000000000000000000000D18F000868
:10003000AB4800080000000061900008AD480008CF
:10004000FD490008FD490008FD490008FD49000878
:10005000FD490008FD490008FD490008FD49000868
:10006000FD490008FD490008FD490008FD49000858
:10007000FD490008FD490008FD490008FD49000848
:10008000FD490008FD490008FD490008FD49000838
:10009000FD490008FD490008FD490008FD49000828
:1000A000FD490008FD490008FD490008FD49000818
:1000B000FD490008C5480008FD490008D14800086E
:1000C000FD490008FD490008FD490008FD490008F8
:1000D000FD490008FD490008FD490008DD48000809
:1000E000FD490008FD490008FD490008FD490008D8
:1000F000FD490008FD490008FD490008FD490008C8
:10010000FD490008FD490008FD490008FD490008B7
:10011000FD490008FD490008FD490008FD490008A7
:10012000FD490008FD490008FD490008FD49000897
:10013000FD490008FD490008FD490008FD49000887
:10014000FD490008FD490008FD490008FD49000877
:10015000FD490008FD490008FD490008FD49000867
:10016000FD490008FD490008FD490008FD49000857
:10017000FD490008FD490008FD4900080000000095
:08018000FD490008FD490008DB
:1001900010B5054C237833B9044B13B10448AFF3C1
:1001A00000800123237010BDE80100200000000042
:1001B00070E1000808B5034B1BB103490348AFF3D6
:1001C000008008BD00000000EC01002070E1000884
:1001D000034613F8012B002AFBD1181A0138704787
:1001E00001F0FF01102A2BDB10F0070F08D010F8E8
:1001F000013B013A8B422DD010F0070F42B3F6D1EC
:10020000F0B441EA012141EA014122F007047FF004
:1002100000070023F0E80256083C85EA010586EA5B
:10022000010685FA47F5A3FA87F586FA47F6A5FA97
:1002300087F68EB9EED1F0BC01F0FF0102F00702A3
:1002400032B110F8013B013A83EA010313B1F8D14E
:100250000020704701387047002D06BF354603382F
:10026000073815F0010F07D1013015F4807F02BF68
:10027000013015F4C03F0130F0BC0138704700BFB9
:1002800081F0004102E000BF83F0004330B54FEA47
:1002900041044FEA430594EA050F08BF90EA020FB4
:1002A0001FBF54EA000C55EA020C7FEA645C7FEA47
:1002B000655C00F0E2804FEA5454D4EB5555B8BF6A
:1002C0006D420CDD2C4480EA020281EA030382EADB
:1002D000000083EA010180EA020281EA0303362D6D
:1002E00088BF30BD11F0004F4FEA01314FF4801C40
:1002F0004CEA113102D0404261EB410113F0004F52
:100300004FEA03334CEA133302D0524263EB430308
:1003100094EA050F00F0A780A4F10104D5F1200EA6
:100320000DDB02FA0EFC22FA05F2801841F1000101
:1003300003FA0EF2801843FA05F359410EE0A5F1D5
:1003400020050EF1200E012A03FA0EFC28BF4CF006
:10035000020C43FA05F3C01851EBE37101F00045BC
:1003600007D54FF0000EDCF1000C7EEB00006EEBC9
:100370000101B1F5801F1BD3B1F5001F0CD3490853
:100380005FEA30004FEA3C0C04F101044FEA4452AA
:1003900012F5800F80F09A80BCF1004F08BF5FEA31
:1003A000500C50F1000041EB045141EA050130BD11
:1003B0005FEA4C0C404141EB0101013C28BFB1F523
:1003C000801FE9D291F0000F04BF01460020B1FA6E
:1003D00081F308BF2033A3F10B03B3F120020CDA41
:1003E0000C3208DD02F1140CC2F10C0201FA0CF01F
:1003F00021FA02F10CE002F11402D8BFC2F1200C84
:1004000001FA02F120FA0CFCDCBF41EA0C01904039
:10041000E41AA2BF01EB0451294330BD6FEA040482
:100420001F3C1CDA0C340EDC04F11404C4F120026D
:1004300020FA04F001FA02F340EA030021FA04F37F
:1004400045EA030130BDC4F10C04C4F1200220FAD6
:1004500002F001FA04F340EA0300294630BD21FA14
:1004600004F0294630BD94F0000F83F4801306BFDA
:1004700081F480110134013D4EE77FEA645C18BFCE
:100480007FEA655C29D094EA050F08BF90EA020F65
:1004900005D054EA000C04BF1946104630BD91EA5D
:1004A000030F1EBF0021002030BD5FEA545C05D160
:1004B0004000494128BF41F0004130BD14F580049F
:1004C0003CBF01F5801130BD01F0004545F0FE4113
:1004D00041F470014FF0000030BD7FEA645C1ABF48
:1004E000194610467FEA655C1CBF0B46024650EA7F
:1004F000013406BF52EA033591EA030F41F40021AB
:1005000030BD00BF90F0000F04BF0021704730B530
:100510004FF4806404F132044FF000054FF0000105
:1005200050E700BF90F0000F04BF0021704730B5C6
:100530004FF4806404F1320410F0004548BF40429B
:100540004FF000013EE700BF42004FEAE2014FEAF0
:1005500031014FEA02701FBF12F07F4393F07F4FCB
:1005600081F06051704732F07F4208BF704793F0CE
:100570007F4F04BF41F40021704730B54FF46074E1
:1005800001F0004521F000411CE700BF50EA0102E4
:1005900008BF704730B54FF000050AE050EA01028D
:1005A00008BF704730B511F0004502D5404261EBFD
:1005B00041014FF4806404F132045FEA915C3FF43E
:1005C000D8AE4FF003025FEADC0C18BF03325FEADB
:1005D000DC0C18BF033202EBDC02C2F1200300FA8C
:1005E00003FC20FA02F001FA03FE40EA0E0021FAB1
:1005F00002F11444BDE600BF70B54FF0FF0C4CF49F
:10060000E06C1CEA11541DBF1CEA135594EA0C0F50
:1006100095EA0C0F00F0DEF82C4481EA030621EA8B
:100620004C5123EA4C5350EA013518BF52EA0335C6
:1006300041F4801143F4801338D0A0FB02CE4FF078
:100640000005E1FB02E506F00042E0FB03E54FF0A8
:100650000006E1FB03569CF0000F18BF4EF0010EA0
:10066000A4F1FF04B6F5007F64F5407404D25FEA9C
:100670004E0E6D4146EB060642EAC62141EA55514F
:100680004FEAC52040EA5E504FEACE2EB4F1FD0C91
:1006900088BFBCF5E06F1ED8BEF1004F08BF5FEA0F
:1006A000500E50F1000041EB045170BD06F00046C1
:1006B00046EA010140EA020081EA0301B4EB5C046E
:1006C000C2BFD4EB0C0541EA045170BD41F4801166
:1006D0004FF0000E013C00F3AB8014F1360FDEBF8B
:1006E000002001F0004170BDC4F10004203C35DA67
:1006F0000C341BDC04F11404C4F1200500FA05F3EA
:1007000020FA04F001FA05F240EA020001F000428A
:1007100021F0004110EBD37021FA04F642EB060100
:100720005EEA430E08BF20EAD37070BDC4F10C042A
:10073000C4F1200500FA04F320FA05F001FA04F2EE
:1007400040EA020001F0004110EBD37041F10001DA
:100750005EEA430E08BF20EAD37070BDC4F12005E5
:1007600000FA05F24EEA020E20FA04F301FA05F24D
:1007700043EA020321FA04F001F0004121FA04F2F5
:1007800020EA020000EBD3705EEA430E08BF20EAC5
:10079000D37070BD94F0000F0FD101F000464000FF
:1007A00041EB010111F4801F08BF013CF7D041EA81
:1007B000060195F0000F18BF704703F00046520085
:1007C00043EB030313F4801F08BF013DF7D043EA56
:1007D0000603704794EA0C0F0CEA135518BF95EA0C
:1007E0000C0F0CD050EA410618BF52EA4306D1D193
:1007F00081EA030101F000414FF0000070BD50EAB2
:10080000410606BF1046194652EA430619D094EA3B
:100810000C0F02D150EA013613D195EA0C0F05D125
:1008200052EA03361CBF104619460AD181EA030179
:1008300001F0004141F0FE4141F470014FF0000031
:1008400070BD41F0FE4141F4780170BD70B54FF0CC
:10085000FF0C4CF4E06C1CEA11541DBF1CEA13554C
:1008600094EA0C0F95EA0C0F00F0A7F8A4EB05042E
:1008700081EA030E52EA03354FEA013100F0888025
:100880004FEA03334FF0805545EA131343EA1263EE
:100890004FEA022245EA111545EA10654FEA0026A3
:1008A0000EF000419D4208BF964244F1FD0404F55C
:1008B000407402D25B084FEA3202B61A65EB0305B8
:1008C0005B084FEA32024FF480104FF4002CB6EB75
:1008D000020E75EB030E22BFB61A754640EA0C00F5
:1008E0005B084FEA3202B6EB020E75EB030E22BF35
:1008F000B61A754640EA5C005B084FEA3202B6EB76
:10090000020E75EB030E22BFB61A754640EA9C0034
:100910005B084FEA3202B6EB020E75EB030E22BF04
:10092000B61A754640EADC0055EA060E18D04FEAC2
:10093000051545EA16754FEA06164FEAC30343EA62
:1009400052734FEAC2025FEA1C1CC0D111F4801F2F
:100950000BD141EA00014FF000004FF0004CB6E728
:1009600011F4801F04BF01430020B4F1FD0C88BFC7
:10097000BCF5E06F3FF6AFAEB5EB030C04BFB6EBD2
:10098000020C5FEA500C50F1000041EB045170BDC5
:100990000EF0004E4EEA113114EB5C04C2BFD4EBF2
:1009A0000C0541EA045170BD41F480114FF0000E76
:1009B000013C90E645EA060E8DE60CEA135594EAF2
:1009C0000C0F08BF95EA0C0F3FF43BAF94EA0C0FF5
:1009D0000AD150EA01347FF434AF95EA0C0F7FF46A
:1009E00025AF104619462CE795EA0C0F06D152EABE
:1009F00003353FF4FDAE1046194622E750EA4106A2
:100A000018BF52EA43067FF4C5AE50EA41047FF4B2
:100A10000DAF52EA43057FF4EBAE12E74FF0FF3C17
:100A200006E000BF4FF0010C02E000BF4FF0010CE8
:100A30004DF804CD4FEA410C7FEA6C5C4FEA430C61
:100A400018BF7FEA6C5C1BD001B050EA410C0CBFB0
:100A500052EA430C91EA030F02BF90EA020F002012
:100A6000704710F1000F91EA030F58BF994208BF79
:100A700090422CBFD8176FEAE37040F00100704736
:100A80004FEA410C7FEA6C5C02D150EA013C07D18D
:100A90004FEA430C7FEA6C5CD6D152EA033CD3D0D8
:100AA0005DF8040B704700BF8446104662468C46D2
:100AB0001946634600E000BF01B5FFF7B7FF002805
:100AC00048BF10F1000F01BD4DF808EDFFF7F4FF2E
:100AD0000CBF012000205DF808FB00BF4DF808EDB9
:100AE000FFF7EAFF34BF012000205DF808FB00BFDC
:100AF0004DF808EDFFF7E0FF94BF012000205DF8FE
:100B000008FB00BF4DF808EDFFF7CEFF94BF0120B2
:100B100000205DF808FB00BF4DF808EDFFF7C4FFAB
:100B200034BF012000205DF808FB00BF4FEA410CF4
:100B30007FEA6C5C02D150EA013C0AD14FEA430CD7
:100B40007FEA6C5C02D152EA033C02D14FF0000014
:100B500070474FF0010070474FEA410212F5001252
:100B600015D211D56FF47873B3EB625212D94FEAF4
:100B7000C12343F0004343EA505311F0004F23FADE
:100B800002F018BF404270474FF00000704750EA33
:100B9000013005D111F0004008BF6FF000407047F0
:100BA0004FF00000704700BF4A0011D212F500124A
:100BB00011D20DD56FF47873B3EB62520ED44FEAB5
:100BC000C12343F0004343EA505323FA02F0704735
:100BD0004FF00000704750EA013002D14FF0FF3073
:100BE00070474FF0000070474FEA4102B2F1E04316
:100BF00024BFB3F5001CDCF1FE5C0DD901F0004C04
:100C00004FEAC0024CEA5070B2F1004F40EB830053
:100C100008BF20F00100704711F0804F21D113F17F
:100C20003872BCBF01F00040704741F480114FEAB8
:100C30005252C2F11802C2F1200C10FA0CF320FA41
:100C400002F018BF40F001004FEAC1234FEAD3235E
:100C500003FA0CFC40EA0C0023FA02F34FEA4303C8
:100C6000CCE77FEA625307D150EA01331EBF4FF051
:100C7000FE4040F44000704701F0004040F0FE406C
:100C800040F40000704700BF53B94AB9002908BFBB
:100C900000281CBF4FF0FF314FF0FF3000F0AAB921
:100CA000ADF1080C6DE904CE00F03CF8DDF804E08D
:100CB000DDE9022304B0704738B500220023044662
:100CC0000D46FFF70BFF28B920462946BDE83840FE
:100CD00000F00AB8204605F1004100F005F8404256
:100CE00061EB410138BD00BFD0B50C4B0022064678
:100CF0000F46FFF781FCFFF757FF0446FFF702FCA2
:100D0000074B0022FFF778FC02460B463046394677
:100D1000FFF7BAFAFFF748FF2146D0BD0000F03DCB
:100D20000000F0412DE9F047089D04468E46002B57
:100D30004DD18A42944669D9B2FA82F252B101FA8F
:100D400002F3C2F1200120FA01F10CFA02FC41EA9F
:100D5000030E94404FEA1C48210CBEFBF8F61FFA24
:100D60008CF708FB16E341EA034306FB07F19942BF
:100D70000AD91CEB030306F1FF3080F01F81994272
:100D800040F21C81023E63445B1AA4B2B3FBF8F04C
:100D900008FB103344EA034400FB07F7A7420AD9D3
:100DA0001CEB040400F1FF3380F00A81A74240F2FB
:100DB00007816444023840EA0640E41B00261DB166
:100DC000D4400023C5E900433146BDE8F0878B429B
:100DD00009D9002D00F0EF800026C5E9000130465A
:100DE0003146BDE8F087B3FA83F6002E4AD18B4234
:100DF00002D3824200F2F980841A61EB03030120DE
:100E00009E46002DE0D0C5E9004EDDE702B9FFDEC9
:100E1000B2FA82F2002A40F09280A1EB0C014FEA74
:100E20001C471FFA8CFE0126200CB1FBF7F307FBD1
:100E3000131140EA01410EFB03F0884208D91CEB74
:100E4000010103F1FF3802D2884200F2CB80434611
:100E5000091AA4B2B1FBF7F007FB101144EA0144F0
:100E60000EFB00FEA64508D91CEB040400F1FF317F
:100E700002D2A64500F2BB800846A4EB0E0440EA6D
:100E800003409CE7C6F12007B34022FA07FC4CEA76
:100E9000030C20FA07F401FA06F31C43F9404FEA69
:100EA0001C4900FA06F3B1FBF9F8200C1FFA8CFE7E
:100EB00009FB181140EA014108FB0EF0884202FAD2
:100EC00006F20BD91CEB010108F1FF3A80F0888093
:100ED000884240F28580A8F102086144091AA4B250
:100EE000B1FBF9F009FB101144EA014100FB0EFED1
:100EF0008E4508D91CEB010100F1FF346CD28E4500
:100F00006AD90238614440EA0840A0FB0294A1EB90
:100F10000E01A142C846A64656D353D05DB1B3EBED
:100F2000080261EB0E0101FA07F722FA06F3F1401D
:100F30001F43C5E9007100263146BDE8F087C2F1C4
:100F40002003D8400CFA02FC21FA03F3914001433C
:100F50004FEA1C471FFA8CFEB3FBF7F007FB103675
:100F60000B0C43EA064300FB0EF69E4204FA02F421
:100F700008D91CEB030300F1FF382FD29E422DD974
:100F8000023863449B1B89B2B3FBF7F607FB1633A9
:100F900041EA034106FB0EF38B4208D91CEB010129
:100FA00006F1FF3816D28B4214D9023E6144C91AA9
:100FB00046EA004638E72E46284605E70646E3E6B9
:100FC0001846F8E64B45A9D2B9EB020864EB0C0EC3
:100FD0000138A3E74646EAE7204694E74046D1E7D2
:100FE000D0467BE7023B614432E7304609E7644480
:100FF000023842E7704700BF00B595B02C220021AF
:1010000009A808F04DFC1422002103A808F048FCB0
:101010000023194A0193116C41F080511164126C44
:1010200002F080520192019A144A0293116841F42D
:101030008041116012680E9302F480420292029A7B
:101040000222089201201022CDE90B0208A805F027
:1010500089F8014608B172B6FEE70F23CDE90330E7
:10106000CDE90500079003A805F05AFA08B172B659
:10107000FEE715B05DF804FB003802400070004048
:1010800080B59CB003F0E0FCFFF7B6FF142200210E
:1010900013A808F005FC0024A04B02941A6BA0488A
:1010A00042F010021A631A6B02F010020292029AC6
:1010B00003941A6B42F001021A631A6B02F00102E8
:1010C0000392039A04941A6B42F004021A631A6B97
:1010D00002F004020492049A05941A6B42F0020290
:1010E0001A631B6B03F00203059322464FF4BF51B2
:1010F000059B03F083FE8B4822460C2103F07EFE05
:1011000022468948202103F079FE01254FF4BF5380
:10111000834813A9CDE91335CDE9154403F094FDB7
:101120000C23CDE913357F481594022313A9169398
:10113000202603F089FD7C4813A9CDE91365CDE98C
:10114000154403F081FD102221460DEB060008F046
:10115000A7FB1C2221460CA8CDE9064408F0A0FB01
:101160003246214613A808F09BFB704D704BAC60D3
:10117000C5E90034284641F61F43C5E90334C5E9F3
:10118000054405F095FC08B172B6FEE74FF48057B0
:1011900008A92846089705F0CEFE08B172B6FEE70A
:1011A000284605F0B1FC08B172B6FEE7CDE90600AD
:1011B00006A9284606F058F8024608B172B6FEE7BE
:1011C0006023CDE90C30CDE90E00CDE9100012907E
:1011D0000CA9284605F07CFD08B172B6FEE708228E
:1011E0000CA9284605F074FD08B172B6FEE7CDE9FA
:1011F0001300CDE9150017904FF400531A9013A96E
:101200002846189306F06EF8044608B172B6FEE759
:101210000146102208A808F043FB1C2221460CA816
:10122000444DCDE9064408F03BFB32462146424E90
:1012300013A808F035FBA023C5E900634FF47A73C7
:10124000C5E9033428468023AC606C61AB6105F0CE
:101250002FFC08B172B6FEE708A92846089705F0EA
:101260006AFE08B172B6FEE7284605F04DFC08B1EB
:1012700072B6FEE700232F4806A9CDE9063305F034
:10128000F3FF08B172B6FEE76023CDE90C30CDE97B
:1012900010000E9012900C2226480CA905F018FDA3
:1012A00008B172B6FEE7CDE91300CDE9150017903D
:1012B0004FF400531A9013A91E48189306F012F821
:1012C000044608B172B6FEE71A481C4D03F07EFAD8
:1012D0001B484FF4E133C0E900530C23C0E9053447
:1012E000C0E902440461C46106F0E6F8034608B1AF
:1012F00072B6FEE713481449144A0362C0E90012AB
:101300004FF48042C0E90233C0E90423C0E9063348
:1013100003F084FE0446D8B172B6FEE700380240FE
:10132000001002400000024000080240C4030020F8
:1013300000040140A40200200000014000480040D9
:101340000C0400205002002000540040801A0600C7
:101350004A4D0146202214A808F0A2FA01264FF0B7
:1013600080434FF6FF7713A92846CDE90C44C5E921
:101370000034C5E90374AC60AC61139615961996F8
:1013800005F01AFC08B172B6FEE7CDE90C000CA915
:10139000284605F069FF044608B172B6FEE7384DED
:1013A0000146202214A808F07BFA364B2C6113A9C1
:1013B0002846CDE90C44C5E90034C5E90247AC61D3
:1013C00013961596199605F0F7FB08B172B6FEE76D
:1013D000CDE90C000CA9284605F046FF044608B1EB
:1013E00072B6FEE7CDE90C001022014613A808F002
:1013F00057FA2548254A84604723C0E900234FF661
:10140000FE73C0E90334846105F0AAFB08B172B62B
:10141000FEE700231C480CA9CDE90C3305F024FF9E
:10142000024608B172B6FEE70123CDE914301390ED
:10143000169013A9144805F0E1FC08B172B6FEE756
:10144000019008F06DF906F09FFA114A01991148D0
:1014500006F0C6FA104B114A18600199104806F0C0
:10146000BFFA104B104A18600199104806F0B8FAFC
:101470000F4B186006F09AFAFEE700BFEC0200205E
:101480007C030020000800403403002000040040DA
:101490005CE200089D4100084C02002014E20008B4
:1014A000F94300080C02002038E200087D1500080E
:1014B0001C020020F0B5174C174A2378174D184E20
:1014C000184F6E2B89B01BD10023136001232B70A2
:1014D00010491548012206F03EFA3B680193337823
:1014E0002278009311492B7803A809F061F803AA28
:1014F00028210A2008F0F4F808F056F809B0F0BDE9
:101500001168002903D1337001231360E0E7C8BFDD
:101510003B60DDE72002002050040020560400203C
:1015200044020020480200200C04002088E100084A
:10153000034B1B6800225A625A6A8242FCD37047EE
:101540003403002010B50B4C01224FF400712046EB
:1015500003F054FC0A20FFF7EBFF4FF40071002268
:10156000204603F04BFC044B1A68D36843F0020397
:10157000D36010BD0010024034030020002108B5E4
:10158000064805F0EDFD06480C2105F0E7FDFFF7E4
:10159000D9FFC82003F084FAF9E700BF3403002024
:1015A000A40200200000000070B5067F012E044652
:1015B00010D1274D297871B905F058F9254B2E70B7
:1015C000186023681A6A22F00A021A621A6A42F044
:1015D00002021A6270BD0129FCD1002105F046F912
:1015E0001D4B1860236800225A621A4B1B4A1B6865
:1015F000984221D9C31A13601068FEF783FF12A323
:10160000D3E90023FEF7F8FF154B0022FEF7F4FFA5
:10161000FFF7EAFA134B186000232B7023681A6A4D
:1016200022F00A021A621A6A1A620F4B1A68D36809
:1016300023F00203D360CDE7DED2C3F57F43FF334F
:101640000344D8E7AFF300809CC420B07268A13F88
:1016500018020020100200201402002004020020C2
:101660000000E03F08020020A402002007B501901E
:10167000FEF7AEFD019982B203484FF6FF7303B047
:101680005DF804EB05F046BF0C0400202DE9F04F97
:101690002DED068B97B0A94D01900021A8489FED34
:1016A000A9AADFF8D0A2F0EE408A05F057FD082184
:1016B000A34805F053FD0C21284605F04FFD2B688B
:1016C00093221A64642006F0D6F92022002105A88E
:1016D00008F0E6F840F65434202200214FF07E57FF
:1016E00040F2AA560EA8CDE9066404978DED08AA2B
:1016F00008F0D6F804A8CDE90F640D978DED11AA76
:1017000007F0B6FE0DA807F0B3FE3C21504605F0E9
:1017100052F83C218C4805F04EF8DAF800305C6A4B
:10172000894B1B68D3F824B003F0B4F9019B0290F5
:10173000002B00F0C28085480122082103F05EFBE7
:1017400082480022042103F059FB012280484FF413
:10175000805103F053FB00227E489FED7F9A2021A9
:1017600003F04CFBF0EE499A4FF000084FF00009EF
:101770007A4E734B1A684FF4FA615163D16303F0E8
:1017800089F901223270029A0390821A3C2AF0D918
:101790006D4BDAF800201968566A4F6A1268D20653
:1017A00040F1A280B442DBBFC6F57F42FF32A41BEA
:1017B000A4180A68D30640F19F80BB45DBBFC7F57C
:1017C0007F42FF32ABEB070302EB0B0307EE904ABD
:1017D0009FED637A9FED636A634CF8EEE77AD4E994
:1017E0000001C7EE876A07EE903A9FED607A019B91
:1017F000F8EEE77AE6EE879AC7EE866AA6EE879A53
:10180000002B00F082809FED5A8A42464B4628EE1C
:10181000888AFFF763F928B12B6880221A640A20AE
:1018200006F029F9D4E9000142464B46FFF774F966
:1018300028B12B68AF221A640A2006F01CF9D4E9FB
:10184000000142464B46FFF73FF928B12B6893222F
:101850001A640A2006F00FF938EE888AB4EEE98A95
:10186000F1EE10FA04D9B4EEC98AF1EE10FA36D8C6
:10187000334B36481B6800245C630122DC6308217B
:1018800003F0BCFA22463148042103F0B7FA30488D
:1018900001224FF4805103F0B1FA224620212D4855
:1018A00003F0ACFA2B6893221A640A2006F0E3F8DE
:1018B00017B0BDEC068BBDE8F08F019A23480821D4
:1018C00003F09CFA21480122042103F097FA019ABF
:1018D0001F484FF4805103F091FA01223CE7039B2B
:1018E0000293BB46344643E7B442A5BFC4F57F44E8
:1018F000FF34341BA4195CE7BB45A5BFCBF57F4380
:10190000FF33A7EB0B03DB1960E742464B4628EE9B
:101910008A8AFFF701F928B12B6887221A640A2006
:1019200006F0A9F8D4E9000142464B46FFF7D6F885
:10193000002884D02B6898227DE700BFA4020020F5
:10194000C4030020CDCC4C3D7C03002000000240AD
:101950000010024000080240000000005504002072
:101960000000444400C04244280200203333B34105
:10197000EC51383DEC0200202DE9F04F2DED068BA7
:10198000BB4C9FEDBCAADFF828A3DFF828B39FB0BB
:1019900000218046B848B0EE409A05F0DFFB0821F0
:1019A000B54805F0DBFB0C21204605F0D7FB23688A
:1019B00093221A64642006F05EF8202200210DA80C
:1019C00007F06EFF40F65435202200214FF07E577D
:1019D00040F2AA5616A8CDE90E650C978DED10AA17
:1019E00007F05EFF0CA8CDE9176515978DED19AAD4
:1019F00007F03EFD15A807F03BFD3C21504604F0E2
:101A0000DAFE3C21584604F0D6FEDAF800305D6A72
:101A1000DBF80030D3F8249003F03CF80090B8F1E4
:101A2000000F00F0EE8095480122082103F0E6F94E
:101A300092480022042103F0E1F9012290484FF47A
:101A4000805103F0DBF900228E48DFED8F8A2021E0
:101A500003F0D4F9F0EE689A8C4E874B1A684FF475
:101A6000FA615163D16303F015F801223270009AD4
:101A70000190821A3C2AF0D9DAF80020DBF8001035
:101A8000566A4F6A1268D20640F1CD80B542DBBF7C
:101A9000C6F57F42FF32AD1BAD180A68D30640F190
:101AA000CA80B945DBBFC7F57F42FF32A9EB070308
:101AB00002EB090307EE905A9FED757A9FED756A68
:101AC000754DF8EEE77AD5E90001C7EE876A07EEB3
:101AD000903A9FED727AF8EEE77AE6EE879AC7EED3
:101AE000866AE6EE878AB8F1000F00F0AD8000222A
:101AF0009FED6B8A002329EE088AFEF7EFFF28B1DD
:101B000023688A221A640A2005F0B5FFD5E900018E
:101B100000220023FFF700F828B1236898221A64F6
:101B20000A2005F0A8FFD5E9000100220023FEF7F6
:101B3000CBFF28B1236893221A640A2005F09BFF8B
:101B400039EE088A19EE100AFEF7FEFCB4EEE98AB7
:101B5000F1EE10FA02460B4605D9B4EEE88AF1EE32
:101B600010FA00F2A9804449096800254D6302A8D3
:101B7000CD634C4908F01CFD0A2102AA084607F073
:101B8000AFFD19EE900AFEF7DFFC0B460246464910
:101B900002A808F00DFD02AA1E210A2007F0A0FDF0
:101BA00018EE900AFEF7D0FC0B4602463F4907A804
:101BB00008F0FEFC07AA32210A2007F091FD07F089
:101BC000F3FC2E480122082103F018F92A462B487D
:101BD000042103F013F92A4801224FF4805103F045
:101BE0000DF92A462021274803F008F9236893229B
:101BF0001A640A2005F03FFF1FB0BDEC068BBDE85C
:101C0000F08F1E484246082103F0F8F81B480122D5
:101C1000042103F0F3F8424619484FF4805103F0D1
:101C2000EDF8012210E7B542A5BFC5F57F45FF35A8
:101C3000751BAD1931E7B945A5BFC9F57F43FF3322
:101C4000A7EB0903DB1935E70022002329EE0A8AF6
:101C5000FEF762FF28B1236887221A640A2005F084
:101C60000AFFD5E9000100220023FEF737FF53E702
:101C7000A4020020CDCC4C3DC40300200000024053
:101C8000001002400008024000000000550400203F
:101C90000000444400C04244580400203333B341A0
:101CA000EC51383D95E10008A1E10008AEE10008E3
:101CB000EC0200207C030020164902A808F078FC02
:101CC0000A2102AA084607F00BFD19EE900AFEF75A
:101CD0003BFC0B460246104902A808F069FC02AA28
:101CE0001E210A2007F0FCFC18EE900AFEF72CFCDF
:101CF0000B460246094907A808F05AFC07AA3221F8
:101D00000A2007F0EDFC07F04FFC019B0093B94659
:101D10003546A1E695E10008A1E10008AEE1000822
:101D20002DE9F04F2DED068BDFF8C4929FEDA2AAAE
:101D3000DFF8C0A297B000218046A048B0EE409ADC
:101D400005F00CFA08219D4805F008FA0C214846D8
:101D500005F004FAD9F8003093221A64642005F0E3
:101D60008AFE2022002105A807F09AFD4FF4FA759B
:101D70002022002140F2DC544FF07E560EA8CDE91F
:101D8000065404968DED08AA07F08AFD04A8CDE953
:101D90000F540D968A4D8DED11AA07F069FB0DA821
:101DA00007F066FB3C21504604F005FD3C21284627
:101DB00004F001FDDAF800305C6A2B685D6A02F01D
:101DC00069FE0190B8F1000F00F0B3807D48012258
:101DD000082103F013F87B480022042103F00EF8D9
:101DE000012279484FF4805103F008F80022774827
:101DF0009FED778ADFF8C4B1202102F0FFFF4FF496
:101E0000FA663746F0EE488ADBF800305F63DE633F
:101E100002F040FE6F4A029001231370019A831A68
:101E20003C2BF1D9664ADAF8001010684B6A426A16
:101E30000968C90640F194809C42DBBFC3F57F412D
:101E4000FF31E41A64180168C90640F19180954297
:101E5000DBBFC2F57F41FF31AD1A6D1807EE904A26
:101E60009FED5D7A9FED5D6A0392F8EEE77A01934C
:101E7000C7EE876A07EE905A9FED597AF8EEE77A37
:101E8000E6EE878AC7EE866AA6EE878AB8F1000F6B
:101E900076D03946DFED539A68EE299AF0EE680A5B
:101EA000B0EE690A04A807F0EBFA314687B2F0EE0B
:101EB000690AB0EE680A0DA807F0E2FADFED4A7A87
:101EC000019B039A69EE277A86B277EE897AF4EE5F
:101ED000E87AF1EE10FA04D9F4EEC87AF1EE10FACD
:101EE00039D8DBF80030374800245C63DC63394BB9
:101EF000012208211C7002F081FF22463148042192
:101F000002F07CFF304801224FF4805102F076FF4E
:101F1000224620212D4802F071FFD9F8003093228B
:101F20001A640A2005F0A7FD17B0BDEC068BBDE8CA
:101F3000F08F24484246082102F060FF2148012228
:101F4000042102F05BFF42461F484FF4805102F02B
:101F500055FF01224BE70299019115461C4653E7B4
:101F60009C42A5BFC4F57F44FF341C1BE4186AE7FC
:101F70009542A5BFC5F57F45FF35551BAD186DE7EB
:101F8000DFED1A9A68EEA99A3946F0EE690AB0EECA
:101F9000480A04A807F074FA314687B2F0EE480AFE
:101FA000B0EE690A0DA807F06BFA69EE0A7A039A97
:101FB000019B86B289E700BFCDCC4C3DC403002015
:101FC0007C03002000000240001002400008024094
:101FD00000000000550400200000444400C04244BA
:101FE0003333B341F697853FEC51383DC9E57F3F28
:101FF000A4020020EC0200202DE9F04F002199B04E
:10200000704C7148714DDFF8E4A1DFF8E4B105F0E0
:10201000A5F808216C4805F0A1F80C21204605F030
:102020009DF8236893221A64642005F024FD202281
:10203000002107A807F034FC4FF07E582022002131
:1020400040F2AA5740F6543610A8CDE90876CDF8EC
:1020500018800A9507F024FC06A8CDE91176CDF882
:102060003C80139507F004FA0FA807F001FA3C2111
:10207000504604F0A0FB3C21584604F09CFBDAF8E3
:102080000030534F5B6ADBF800305B6A02F002FD00
:102090000122082105464F4802F0B0FE4D480022BB
:1020A000042102F0ABFE4C4801224FF4805102F0B3
:1020B000A5FE4A480022202102F0A0FE4FF00008B1
:1020C0004FF00009404940F6B83308684363C363E2
:1020D00002F0E0FC424A3C49064601201070701BA9
:1020E0003C2840F6B833F0D9DAF80020536ADBF820
:1020F0000030596A12681B68D7E9000142464B4616
:10210000FEF7ECFC28B123688A221A640A2005F045
:10211000B2FCD7E9000142464B46FEF7FDFC28B170
:10212000236898221A640A2005F0A5FCD7E900016B
:1021300042464B46FEF7C8FC28B1236893221A6436
:102140000A2005F098FC274B93ED007AF2EE0E7A08
:10215000B4EEE77AF1EE10FA11D4D7E90001FEF7F8
:10216000FBFC2149024601A808F022FA01AA142129
:102170000A2007F0B5FA354607F016FAA2E7B7EEDF
:10218000000A0020FFF7CCFD12480122082102F0CE
:1021900035FE10480022042102F030FE0E480122D4
:1021A0004FF4805102F02AFE20210C48002202F058
:1021B00025FE236893221A640A2005F05CFC19B0FE
:1021C000BDE8F08FA4020020C4030020CDCC4C3D1C
:1021D00028020020000002400010024000080240D7
:1021E0005504002008020020BCE10008EC02002099
:1021F0007C0300202DE9F04F002199B0714C72480A
:10220000724DDFF8E89104F0A9FF08216E4804F050
:10221000A5FF0C21204604F0A1FF236893221A6435
:10222000642005F028FC2022002107A807F038FBD5
:102230004FF07E582022002140F6543640F2AA5733
:1022400010A8CDE90876CDF818800A9507F028FB8C
:10225000CDF83C8006A8DFF898811395CDE911767A
:1022600007F006F90FA807F003F93C21404604F0F7
:10227000A2FA3C21484604F09EFAD8F80030544DAA
:102280005B6AD9F800305B6A02F004FC4FF0000A88
:102290000122082106464FF0000B4E48C5E900AB6D
:1022A00002F0ACFD4B480022042102F0A7FD4A4891
:1022B00001224FF4805102F0A1FD48480022202164
:1022C00002F09CFD40F6B8323F4B1B685A63DA635C
:1022D00002F0E0FB424A01231370831B3C2B0746AC
:1022E00040F6B832F0D9D8F80020536AD9F8003057
:1022F000596A12681B68D5E9000152465B46FEF731
:10230000EDFB28B123688A221A640A2005F0B3FB8A
:10231000D5E9000152465B46FEF7FEFB28B1236873
:1023200098221A640A2005F0A6FBD5E9000152465E
:102330005B46FEF7C9FB28B1236893221A640A2082
:1023400005F099FB274B93ED007AF2EE007AB4EE9C
:10235000E77AF1EE10FA11D4D5E90001FEF7FCFBA3
:102360002149024601A808F023F901AA14210A20F4
:1023700007F0B6F93E4607F017F9A3E7B7EE000AF3
:102380000020FFF7CDFC13480122082102F036FDA2
:1023900010480022042102F031FD0F4801224FF4C1
:1023A000805102F02BFD20210C48002202F026FD76
:1023B000236893221A640A2005F05DFB19B0BDE87A
:1023C000F08F00BFA4020020C4030020CDCC4C3D00
:1023D00028020020000002400010024000080240D5
:1023E0005504002008020020BCE100087C03002006
:1023F000EC0200202DE9F04F002199B0714C724899
:10240000724DDFF8EC9104F0A9FE08216E4804F04B
:10241000A5FE0C21204604F0A1FE236893221A6435
:10242000642005F028FB2022002107A807F038FAD5
:102430004FF07E582022002140F2AA5740F6543631
:1024400010A8CDE90876CDF818800A9507F028FA8B
:10245000CDF83C8006A8DFF89C811395CDE9117674
:1024600007F006F80FA807F003F83C21404604F0F7
:10247000A2F93C21484604F09EF9D8F80030544FA8
:102480005B6AD9F800305B6A02F004FB0122082184
:102490000546504802F0B2FC4E480022042102F0EA
:1024A000ADFC4D4801224FF4805102F0A7FC4FF0E3
:1024B000000A4A48002220214FF0000B02F09EFC47
:1024C000C7E900AB40F6B8323F4B1B685A63DA638A
:1024D00002F0E0FA424A01231370431B3C2B0646EC
:1024E00040F6B832F0D9D8F80020536AD9F8003055
:1024F000596A12681B68D7E9000152465B46FEF72D
:10250000EDFA28B123688A221A640A2005F0B3FA8A
:10251000D7E9000152465B46FEF7FEFA28B1236870
:1025200098221A640A2005F0A6FAD7E9000152465B
:102530005B46FEF7C9FA28B1236893221A640A2081
:1025400005F099FA274B93ED007AF2EE007AB4EE9B
:10255000E77AF1EE10FA12D4234BD3E90001FEF72B
:10256000FBFA2249024601A808F022F801AA142128
:102570000A2007F0B5F8354607F016F8A2E7B7EEDF
:10258000000A0020FFF7CCFB12480122082102F0CC
:1025900035FC10480022042102F030FC0E480122D4
:1025A0004FF4805102F02AFC20210C48002202F056
:1025B00025FC236893221A640A2005F05CFA19B0FE
:1025C000BDE8F08FA4020020C4030020CDCC4C3D18
:1025D00058040020000002400010024000080240A1
:1025E000550400200802002028020020BCE1000859
:1025F0007C030020EC0200202DE9F043BB4DBC4ED3
:10260000BC4C9FB000210746284604F0A7FD0821D6
:10261000284604F0A3FD0C21304604F09FFDB64887
:102620000122082102F0EAFBB3480022042102F053
:10263000E5FBB24801224FF4805102F0DFFB00229B
:10264000AF48202102F0DAFB00232370AD4B326843
:102650001B78002B00F066816C2F2B6840F0B38054
:10266000692111644FF47A725A6340F6B832DA6322
:10267000DFF8A082A44F01232370D8E90001FEF700
:102680006BFA3B2865DD2B689FEDA00ADFF8889286
:1026900000225A630120DA63FEF7F8FF33684FF433
:1026A00087721A642B6840F6B8325A634FF47A7214
:1026B000DA632378002B60D14FF0000801209FEDF2
:1026C000940A84F80080FFF757F9336884F8008093
:1026D0004FF487721A642B68DFF83C8240F6B832F8
:1026E0005A634FF47A72DA636420FEF721FF012304
:1026F0002370D7E90001FEF72FFA10F1630F0246AD
:1027000052DA844B00200021C3E90001002323702A
:10271000FFF770FE2B68784800245C63DC63336845
:1027200093221A640821012202F068FB22467248B3
:10273000042102F063FB714801224FF4805102F042
:102740005DFB6F482246202102F058FB1FB0BDE818
:10275000F083D7E90001FEF7FFF96F4902466846AA
:1027600007F026FF6A4614210A2006F0B9FF06F09A
:102770001BFF2378002B80D185E7D8E90001FEF705
:10278000EBF9523098DBD7E90001FEF7E5F949464D
:102790000246684607F00CFF6A4614210A2006F03C
:1027A0009FFF06F001FF84E74146684607F000FFFF
:1027B0006A4614210A2006F093FF06F0F5FE2378FE
:1027C000002B96D19DE7722FA4D14FF4877111642D
:1027D00040F6B8325A634FF47A72DA634A4FDFF840
:1027E000388101232370D7E90001FEF7B5F910F114
:1027F000270F024644DA2B689FED480ADFF8148160
:10280000DFF8149100225A630120DA63FEF73EFFDD
:1028100033686E221A642B684FF47A725A6340F65A
:10282000B832DA632378002B39D14FF00008012049
:102830009FED3B0A84F80080FFF79EF8336884F828
:10284000008073221A642B68DFF8CC804FF47A7210
:102850005A6340F6B832DA636420FEF769FE01235A
:102860002370D7E90001FEF777F95C2802462DDDD9
:10287000284B00200021C3E90001FFF7BBFC49E71A
:102880004146684607F094FE6A4614210A2006F085
:1028900027FF06F089FE2378002BA4D1ABE7D8E907
:1028A0000001FEF759F95428BFDCD7E90001FEF713
:1028B00053F949460246684607F07AFE6A461421F3
:1028C0000A2006F00DFF06F06FFEABE741466846B2
:1028D00007F06EFE6A4614210A2006F001FF06F09A
:1028E00063FE2378002BBCD1C2E700BFC4030020E5
:1028F000A402002055040020000002400010024005
:102900000008024045020020580400200000AA42AE
:102910000000504228020020BCE1000800003442C0
:10292000000048426C2F2B6840F0958069211164AB
:102930004FF47A725A6340F6B832DA63012005F038
:102940009AF8DFF84C828C4F01232370D8E90001FC
:10295000FEF702F9362853DD2A689FED880ADFF872
:102960002492002353630120D3632370FFF704F8FC
:1029700033684FF487721A642B6840F6B8325A6392
:102980004FF47A72DA632378002B4DD14FF00008B0
:102990009FED7B0A84F800800120FEF7EDFF33688D
:1029A00084F800804FF487721A642B6840F6B832BE
:1029B0005A634FF47A72DA636420FEF7B9FD01209E
:1029C00084F8008005F057F8DFF8B8810123237000
:1029D000D7E90001FEF7C0F810F1650F0246FFF6D7
:1029E00090AE4146684607F0E3FD6A4614210A208E
:1029F00006F076FE06F0D8FD2378002BE8D180E6BD
:102A0000D7E90001FEF7A8F85E490246684607F0DC
:102A1000CFFD6A4614210A2006F062FE06F0C4FDCE
:102A20002378002B92D197E7D8E90001FEF794F8BC
:102A30005430ABDBD7E90001FEF78EF84946024679
:102A4000684607F0B5FD6A4614210A2006F048FEE4
:102A500006F0AAFD97E7722F7FF45CAE4FF4877102
:102A6000116440F6B8325A634FF47A72DA63424F17
:102A7000DFF8108101232370D7E90001FEF76CF81D
:102A800010F1150F024651DA2B689FED3F0ADFF86F
:102A90000081DFF8F09000225A630120DA63FEF72C
:102AA000F5FD33686E221A642B684FF47A725A630C
:102AB0004FF4FA62DA632378002B46D14FF0000816
:102AC0009FED320A84F800800120FEF755FF33683D
:102AD00084F8008073221A642B684FF47A725A6368
:102AE0004FF4FA62DA636420FEF722FD012084F8D5
:102AF000008004F0C0FFDFF88C8001232370D7E949
:102B00000001FEF729F8682802463FF7B1AE4146BA
:102B1000684607F04DFD6A4614210A2006F0E0FDE4
:102B200006F042FD2378002BE9D1A1E64146684634
:102B300007F03EFD6A4614210A2006F0D1FD06F09A
:102B400033FD2378002B97D19EE7D8E90001FEF7EB
:102B500003F85428B2DCD7E90001FDF7FDFF494630
:102B60000246684607F024FD6A4614210A2006F052
:102B7000B7FD06F019FD9EE75804002000007042E2
:102B800000004842BCE100080000964200003442C8
:102B9000280200202DE9F043B44DB54EB54C9FB04E
:102BA00000210746284604F0D9FA0821284604F0F7
:102BB000D5FA0C21304604F0D1FAAF4801220821A1
:102BC00002F01CF9AC480022042102F017F9AB48CE
:102BD00001224FF4805102F011F90022A84820216F
:102BE00002F00CF900232370A64B32681B78002BEF
:102BF00000F058816C2F2B6840F0AC807521116477
:102C00004FF47A725A634FF4FA62DA639E4FDFF838
:102C1000908201232370D7E90001FDF79DFF3B2837
:102C2000024665DD2B689FED990ADFF87482002269
:102C30005A630120DA63FEF729FD33684FF4877287
:102C40001A642B6840F6B8325A634FF47A72DA632A
:102C50002378002B5BD14FF0000801209FED8C0AF8
:102C600084F80080FEF788FE642084F80080FEF778
:102C70005FFC012323703368DFF824824FF48772EE
:102C80001A642B6840F6B8325A634FF47A72DA63EA
:102C9000D7E90001FDF760FF10F1590F02464ADA4B
:102CA0007C4B00200021C3E9000100232370FFF7C3
:102CB000A1FB2B68704800245C63DC6333689322BB
:102CC0001A640821012202F099F822466A48042178
:102CD00002F094F8694801224FF4805102F08EF816
:102CE00067482246202102F089F81FB0BDE8F08332
:102CF0004146684607F05CFC6A4614210A2006F04B
:102D0000EFFC06F051FC2378002B84D18AE7D7E949
:102D10000001FDF721FF10F1540F02469BDB4146F5
:102D2000684607F045FC6A4614210A2006F0D8FCE4
:102D300006F03AFC8CE74146684607F039FC6A46E3
:102D400014210A2006F0CCFC06F02EFC2378002B80
:102D50009ED1A5E7722FACD14FF48771116440F674
:102D6000B8325A634FF47A72DA63474FDFF8308132
:102D700001232370D7E90001FDF7EEFE10F13B0FB0
:102D8000024642DA2B689FED440ADFF814810022E4
:102D90005A630120DA63FEF779FC33686E221A6405
:102DA0002B684FF47A725A6340F6B832DA632378AC
:102DB000002B39D14FF0000801209FED380A84F82C
:102DC0000080FEF7D9FD336884F8008073221A640E
:102DD0002B68DFF8CC804FF47A725A6340F6B83231
:102DE000DA636420FEF7A4FB01232370D7E9000116
:102DF000FDF7B2FE5B28024629DD264B00200021AC
:102E0000C3E90001FFF7F6F953E74146684607F0CA
:102E1000CFFB6A4614210A2006F062FC06F0C4FBD0
:102E20002378002BA6D1ADE7D7E90001FDF794FE8A
:102E300054280246BEDC4146684607F0B9FB6A46A4
:102E400014210A2006F04CFC06F0AEFBAFE7414629
:102E5000684607F0ADFB6A4614210A2006F040FCE4
:102E600006F0A2FB2378002BC0D1C6E7C4030020E4
:102E7000A40200205504002000000240001002407F
:102E80000008024045020020580400200000704263
:102E900000004842280200200000344200008C421A
:102EA000BCE100086C2F2B6840F091807321116405
:102EB0004FF47A725A6340F6B832DA63DFF8408230
:102EC000894F01232370D8E90001FDF745FE27282B
:102ED00052DD2B689FED850ADFF8189200225A63B5
:102EE0000120DA63FEF7D2FB33684FF487721A646D
:102EF0002B6840F6B8325A634FF47A72DA6323785B
:102F0000002B4DD14FF000089FED790A84F8008026
:102F10000120FEF731FD336884F800804FF487729A
:102F20001A642B6840F6B8325A634FF47A72DA6347
:102F30006420FEF7FDFA012084F8008004F09BFD78
:102F4000DFF8B08101232370D7E90001FDF704FE0B
:102F500010F1590F0246FFF6A3AE4146684607F04E
:102F600027FB6A4614210A2006F0BAFB06F01CFB78
:102F70002378002BE8D193E6D7E90001FDF7ECFDBB
:102F80005C490246684607F013FB6A4614210A2092
:102F900006F0A6FB06F008FB2378002B93D198E7F8
:102FA000D8E90001FDF7D8FD5930ABDBD7E90001C6
:102FB000FDF7D2FD49460246684607F0F9FA6A462F
:102FC00014210A2006F08CFB06F0EEFA97E7722F28
:102FD0007FF46FAE4FF48771116440F6B8325A63D4
:102FE0004FF47A72DA63404FDFF8088101232370CF
:102FF000D7E90001FDF7B0FD10F13B0F02464DDAB5
:103000002A689FED3D0ADFF8F880DFF8E89000239A
:1030100053630120D3632370FEF7AEFC33686E2246
:103020001A642B684FF47A725A6340F6B832DA6346
:103030002378002B41D14FF0000801209FED2F0A8B
:1030400084F80080FEF798FC336884F800807322CF
:103050001A642B68DFF89C804FF47A725A6340F64A
:10306000B832DA636420FEF763FA01232370D7E9EC
:103070000001FDF771FD682802463FF7BEAE4146EC
:10308000684607F095FA6A4614210A2006F028FBE4
:1030900006F08AFA2378002BE9D1AEE6414668466D
:1030A00007F086FA6A4614210A2006F019FB06F09A
:1030B0007BFA2378002B9BD1A2E7D8E90001FDF72A
:1030C0004BFD5228B7DCD7E90001FDF745FD494625
:1030D0000246684607F06CFA6A4614210A2006F098
:1030E000FFFA06F061FAA3E75804002000009242BC
:1030F00000002042BCE100080000344200007042A1
:10310000280200202DE9F04F002193B0674C684859
:10311000684DDFF8BCA1DFF8BCB104F01FF808214E
:10312000634804F01BF80C21204604F017F82368CC
:1031300093221A64642004F09EFC2022002101A83E
:1031400006F0AEFB4FF07E582022002140F2AA5735
:1031500040F654360AA8CDE90276CDF800800495F1
:1031600006F09EFBCDE90B766846534FCDF82480E0
:103170000D9506F07DF909A806F07AF93C2138464C
:1031800003F019FB3C21504603F015FB3B685B6ADA
:10319000DAF800305B6A01F07DFC01220821064666
:1031A000464801F02BFE45480022042101F026FE8E
:1031B000434801224FF4805101F020FE4148002293
:1031C000202101F01BFE4FF000084FF000093849A4
:1031D00040F6B83308684363C36301F05BFC3A4AC6
:1031E0003349054601201070A81B3C2840F6B8332F
:1031F000F0D93A68536ADAF80030596A12681B68E5
:10320000DBE9000142464B46FDF768FC28B1236824
:1032100073221A640A2004F02EFCDBE90001424606
:103220004B46FDF779FC28B12368B4221A640A20C2
:1032300004F021FCDBE9000142464B46FDF744FC6B
:1032400028B1236893221A640A2004F014FC1F4B4F
:1032500093ED007AF3EE007AB4EEE77AF1EE10FA2D
:1032600022D5B7EE000A0020FEF75AFD13480122CE
:10327000082101F0C3FD11480022042101F0BEFD28
:103280000F4801224FF4805101F0B8FD20210D4874
:10329000002201F0B3FD236893221A640A2004F08F
:1032A000EAFB13B0BDE8F08F2E4690E7A4020020A1
:1032B000C4030020CDCC4C3DEC02002000000240B5
:1032C00000100240000802405504002008020020BF
:1032D0007C030020280200202DE9F04FB64CB74DAA
:1032E0009FB006460021204603F038FF0821204603
:1032F00003F034FF0C21284603F030FFB0480122D0
:10330000082101F07BFDAE480022042101F076FD8A
:10331000AC4801224FF4805101F070FDAA48002210
:10332000202101F06BFD6C2E40F0B8802B68A74E79
:10333000A74FDFF8B88273221A6423684FF47A72B9
:103340005A634FF4FA62DA6301233370D7E900015C
:10335000FDF702FC1A28024641DD9FED9E0A9E4EB3
:10336000DFF88CA2DFF884B20120FEF78FF92B681A
:103370004FF487721A6423684FF4FA625A634FF469
:103380007A72DA63002333709AED007AF2EE0C7AE7
:10339000B4EEE77AF1EE10FA30DC3378002B3AD154
:1033A0002368874800245C63DC632B6893221A64DB
:1033B0000821012201F022FD22468148042101F06A
:1033C0001DFD804801224FF4805101F017FD7E4819
:1033D0002246202101F012FD1FB0BDE8F08F4146CA
:1033E000684607F0E5F86A4614210A2006F078F9E5
:1033F00006F0DAF83378002BA8D1AEE7D7E90089D8
:10340000764B002240464946FDF772FB002834D037
:10341000714B01221A70FFF775FE6F4B1B78002B62
:10342000BED06F4ED6E900890022002340464946AF
:10343000FDF772FB002800F09780644F4FF0010AFF
:103440004FF000084FF000092B6887F800A04FF4F8
:1034500087721A6423684FF47A725A634FF4C87201
:10346000DA630120FEF764F8D6E9000142464B46D4
:10347000FDF752FB0028E7D192E749464046FDF7A9
:103480006BFB59460246684607F092F86A461421DB
:103490000A2006F025F906F087F875E7722EBCD1F0
:1034A0002A682368494E4A4FDFF840814FF48771FC
:1034B00011644FF4FA625A634FF47A72DA630123AB
:1034C0003370D7E90001FDF747FB10F1160F0246F4
:1034D0003BDA9FED440A404EDFF814A1DFF80CB14F
:1034E0000120FEF7D3F82B6864221A6423684FF496
:1034F0007A725A634FF4FA62DA63002333709AEDFA
:10350000007AF2EE0C7AB4EEE77AF1EE10FA7FF779
:1035100044AFD7E90089344B002240464946FDF7C5
:10352000F1FA00287FF474AF49464046FDF714FBDA
:1035300059460246684607F03BF86A4614210A20BD
:1035400006F0CEF806F030F8D9E74146684607F0B5
:103550002FF86A4614210A2006F0C2F806F024F873
:103560003378002BADD1B4E7002200234046494612
:10357000FDF7B4FA00283FF413AF144F4FF0010ADF
:103580004FF000084FF000092B6887F800A0642274
:103590001A6423684FF4C8725A634FF47A72DA637C
:1035A0000120FDF7C5FFD6E9000142464B46FDF775
:1035B00095FA0028E8D1F3E6C4030020A402002015
:1035C00000000240001002400008024055040020A4
:1035D00058040020000070424502002000002EC068
:1035E000280200200000684200003940BCE10008C9
:1035F00008020020000000002DE9F04F304C314E51
:10360000314DDFF8D4B0DFF8D4A087B000212046D8
:1036100003F0A4FD0821204603F0A0FD0C21304654
:1036200003F09CFD3368294893221A640821012283
:1036300001F0E4FB25480022042101F0DFFB2448CF
:1036400001224FF4805101F0D9FB002221482021B2
:1036500001F0D4FB01232B70336873221A642368B2
:103660004FF47A720FF25009D9E900895A6340F693
:10367000B832DA63DBE9006742464B4630463946EA
:10368000FDF740FA58B939463046FDF765FA51461C
:10369000024601A806F08CFF2B78002BEAD12368A4
:1036A00000245C632046DC63B7EE000AFEF738FBBB
:1036B0002C7007B0BDE8F08F0000000000C055403E
:1036C000C4030020A4020020550400200000024092
:1036D000001002400008024058040020C7E1000822
:1036E0002DE9F04F324C334E334DDFF8DCB0DFF8CC
:1036F000DCA087B00021204603F030FD08212046E1
:1037000003F02CFD0C21304603F028FD33682B48D4
:1037100093221A640821012201F070FB274800223D
:10372000042101F06BFB264801224FF4805101F087
:1037300065FB00222348202101F060FB01232B7050
:1037400033684FF487721A64236840F6B8320FF278
:103750005809D9E900895A634FF47A72DA63DBE9D0
:10376000006742464B4630463946FDF7B7F958B92F
:1037700039463046FDF7F0F95146024601A806F0F9
:1037800017FF2B78002BEAD1236800245C632046C6
:10379000DC63B7EE000AFEF7C3FA2C7007B0BDE891
:1037A000F08F00BFAFF3008000000000004056C063
:1037B000C4030020A40200205504002000000240A1
:1037C000001002400008024058040020D3E1000825
:1037D0002DE9F04F864D874E874C884F8BB0814640
:1037E00088462846002103F0B9FC0821284603F04A
:1037F000B5FC0C21304603F0B1FC336893221A6407
:10380000B8F1000F00F004817D480122082101F089
:10381000F5FA7B480022042101F0F0FA79480122F0
:103820004FF4805101F0EAFA77480022202101F09C
:10383000E5FAB9F1000F6BD03368DFF8D08173225D
:103840001A64642004F017F92B684FF448725A6325
:1038500040F2DC52DA6301232370D7E90001FDF75F
:103860007BF9232802460DDC4146684606F0A0FE9F
:103870006A4614210A2005F033FF05F095FE2378EF
:10388000002BEAD13368DFF8848164221A642B6844
:103890004FF47A725A634FF4FA62DA63237823BBE7
:1038A000336829685648002593221A644D63CD6316
:1038B0001A6408210122257001F0A0FA2A46504816
:1038C000042101F09BFA4F4801224FF4805101F08E
:1038D00095FA2A4620214C4801F090FA4FF47A706C
:1038E00004F0C9F80BB0BDE8F08FD7E90001FDF78F
:1038F00033F953280246D3DC4146684606F058FEA9
:103900006A4614210A2005F0EBFE05F04DFEC5E7DE
:103910000120B0EE000AFEF703FA3368DFF8EC800E
:10392000C8221A64642004F0A6F82B684FF4FA62E7
:103930005A63DA6301232370D7E90001FDF70CF91C
:1039400010F1400F02460DDB4146684606F030FE9E
:103950006A4614210A2005F0C3FE05F025FE2378EF
:10396000002BE9D1336893221A642B684FF00008CA
:10397000C3F834806420C3F83C8004F07CF84046EF
:10398000B2EE040AFEF7CCF93368DFF880804FF41A
:1039900087721A64642004F06EF8012323702B6888
:1039A0004FF4FA625A634FF44872DA63D7E90001C0
:1039B000FDF7D2F810F1150F02460DDB41466846BF
:1039C00006F0F6FD6A4614210A2005F089FE05F08E
:1039D000EBFD2378002BE9D1336893221A642B681E
:1039E00000205863B1EE0C0AD863FEF799F957E747
:1039F000C4030020A4020020550400205804002025
:103A0000000002400010024000080240BCE1000833
:103A100090484246082101F0F1F98E480122042124
:103A200001F0ECF98C4842464FF4805101F0E6F980
:103A30008A480122202101F0E1F93368B9F1000F31
:103A400000F0838064221A642B68DFF818B24FF408
:103A5000FA625A6340F6C412DA63012323704FF00E
:103A6000000AD7E9008952465B4640464946FDF7C1
:103A700035F890B949464046FDF76EF87849024658
:103A8000684606F095FD6A4614210A2005F028FED6
:103A900005F08AFD2378002BE3D13368DFF8C8B145
:103AA00093221A642B684FF00008C3F834804FF457
:103AB000FA70C3F83C8003F0DEFFB3EE090A012080
:103AC000FEF72EF963484246082101F097F9614854
:103AD0000122042101F092F95F4842464FF48051DF
:103AE00001F08CF95D480122202101F087F933684B
:103AF0007A221A64642003F0BEFF012323702B682E
:103B00004FF4FA625A634FF0000ADA63D7E900898A
:103B100052465B4640464946FCF7E0FF00287FF4EA
:103B2000BFAE49464046FDF717F84D490246684684
:103B300006F03EFD6A4614210A2005F0D1FD05F08D
:103B400033FD2378002BE1D1AAE64FF487721A6483
:103B50002B68DFF818B140F2DC525A63DA630123B4
:103B600023704FF0000AD7E9008952465B46404671
:103B70004946FCF7C7FF90B949464046FCF7ECFFC1
:103B800037490246684606F013FD6A4614210A20AA
:103B900005F0A6FD05F008FD2378002BE3D133687E
:103BA000DFF8CCB093221A642B684FF00008C3F8FA
:103BB00034804FF4FA70C3F83C8003F05CFFB3EE3E
:103BC000090A0120FEF7ACF822484246082101F01C
:103BD00015F920480122042101F010F91E4842463F
:103BE0004FF4805101F00AF91C480122202101F014
:103BF00005F93368B4221A64642003F03CFF012302
:103C000023702B684FF4AF625A634FF47A72DA6311
:103C10004FF0000AD7E9008952465B4640464946C4
:103C2000FCF770FF00287FF43BAE49464046FCF7A6
:103C300093FF0B490246684606F0BAFC6A46142117
:103C40000A2005F04DFD05F0AFFC2378002BE1D1F3
:103C500026E600BF000002400010024000080240BB
:103C6000BCE10008000030C000004FC000002C4044
:103C7000004052402DE9F04FA54DA64EA64CA74F4F
:103C80008BB000218046284603F068FA08212846B8
:103C900003F064FA0C21304603F060FA3368A04860
:103CA00093221A6408210122B8F1000F00F0488124
:103CB00001F0A4F89A48DFF878B20022042101F05C
:103CC0009DF8984801224FF4805101F097F80022A6
:103CD0009548202101F092F8336864221A642B6819
:103CE0004FF448725A6340F2DC52DA6301232370C6
:103CF0004FF0000AD7E9008952465B4640464946E4
:103D0000FCF700FF90B949464046FCF725FF87497C
:103D10000246684606F04CFC6A4614210A2005F06B
:103D2000DFFC05F041FC2378002BE3D17C48DFF871
:103D300004B20022082101F061F87948012204212F
:103D400001F05CF8774800224FF4805101F056F8FA
:103D500001227548202101F051F833684FF4877231
:103D60001A642B6840F2DC525A634FF4FA72DA6339
:103D70004FF0000A2378002B78D13368DFF8B8B110
:103D800093221A642B684FF00008C3F83480642033
:103D9000C3F83C8003F06FFEB1EE040A0120FDF78A
:103DA000BFFF4FF00109642003F065FE5C4884F812
:103DB00000904A46082101F021F859484246042162
:103DC00001F01CF857484A464FF4805101F016F8AC
:103DD00042465548202101F011F8336864221A64E4
:103DE0002B684FF448725A6340F2DC52DA634FF0AA
:103DF000000A2378002B55D14948DFF840B1002252
:103E0000082100F0FBFF46480122042100F0F6FFE4
:103E1000444800224FF4805100F0F0FF0122424854
:103E2000202100F0EBFF33684FF487721A642B688F
:103E300040F2DC525A634FF4FA72DA634FF0000A30
:103E40002378002B49D10120B0EE000AFDF768FF6E
:103E5000336893221A642A68002353636420D3636F
:103E6000237003F008FE0BB0BDE8F08FD7E900899E
:103E700052465B4640464946FCF744FE00287FF424
:103E80007CAF49464046FCF767FE28490246684633
:103E900006F08EFB6A4614210A2005F021FC05F08D
:103EA00083FB67E7D7E9008952465B4640464946AF
:103EB000FCF728FE00289FD149464046FCF74CFEFF
:103EC0001A490246684606F073FB6A4614210A2026
:103ED00005F006FC05F068FB8BE7D7E90089524640
:103EE0005B4640464946FCF70DFE0028ABD14946EB
:103EF0004046FCF731FE0D490246684606F058FB85
:103F00006A4614210A2005F0EBFB05F04DFB97E70C
:103F1000C4030020A40200205504002058040020FF
:103F2000000002400010024000080240BCE100080E
:103F3000000032400000434000003740000049408C
:103F400000F05CFF8D48DFF844B24246042100F0E7
:103F500055FF8B4801224FF4805100F04FFF42463D
:103F60008848202100F04AFF33684FF487721A64B2
:103F70002B6840F2DC525A634FF4FA72DA63012381
:103F800023704FF0000AD7E9008952465B4640464D
:103F90004946FCF7ADFD90B949464046FCF7DCFDCB
:103FA00079490246684606F003FB6A4614210A2056
:103FB00005F096FB05F0F8FA2378002BE3D16F4863
:103FC000DFF8CCB10022082100F018FF6B48012275
:103FD000042100F013FF6A4800224FF4805100F0E2
:103FE0000DFF01226748202100F008FF336864229A
:103FF0001A642B684FF448725A6340F2DC52DA6359
:104000004FF0000A2378002B66D13368DFF884B1C3
:1040100093221A642B684FF00008C3F83480B2EE84
:10402000030AC3F83C800120FDF77AFE4FF0010936
:10403000642003F020FD514884F800904A4608218E
:1040400000F0DCFE4D484246042100F0D7FE4C480B
:104050004A464FF4805100F0D1FE424649482021A3
:1040600000F0CCFE33684FF487721A642B6840F27C
:10407000DC525A634FF4FA72DA634FF0000A237885
:10408000002B44D13D48DFF810B10022082100F098
:10409000B5FE3A480122042100F0B0FE3848002263
:1040A0004FF4805100F0AAFE01223648202100F092
:1040B000A5FE336864221A642B684FF448725A6371
:1040C00040F2DC52DA634FF0000A2378002B39D13A
:1040D0000020B6EE000AB9E6D7E9008952465B46F1
:1040E00040464946FCF704FD00288ED1494640462B
:1040F000FCF732FD24490246684606F059FA6A4642
:1041000014210A2005F0ECFA05F04EFA7AE7D7E917
:10411000008952465B4640464946FCF7E9FC0028C8
:10412000B0D149464046FCF717FD1749024668469C
:1041300006F03EFA6A4614210A2005F0D1FA05F08D
:1041400033FA9CE7D7E9008952465B464046494628
:10415000FCF7CEFC0028BBD149464046FCF7FCFCEE
:1041600009490246684606F023FA6A4614210A20E5
:1041700005F0B6FA05F018FAA7E700BF0000024004
:104180000010024000080240BCE10008000034C0FA
:10419000008041C0000030C0000047C02DE9F84356
:1041A000012246494648474E474D484FDFF8309177
:1041B000DFF82481464C03F0CEFB464A00231370FF
:1041C00033702B603B704FF48061484600F01BFE5B
:1041D00041480C2102F0C2FFD8F8003093221A6443
:1041E0003378012B4DD1002333703B784C3B2C2B83
:1041F00045D8DFE803F02E444444444433445A4451
:1042000044442C5E444444444444442844442C44A0
:104210004444444444441F44444436442326564AB8
:10422000441728000120D5ED007AB8EE670AFDF7A3
:10423000A3FB01E0FFF7E0F920462FE0FFF750FA7B
:10424000FAE70020EFE70120FFF714FDF4E7002074
:10425000FAE700210120FFF7BBFAEDE7002108464D
:10426000F9E72046FDF702FA4FF47A7003F003FCF9
:104270001A48FDF7FBF94FF47A7003F0FCFB0023BA
:104280002B60322003F0F7FB9DE7FDF7B5FE2046DB
:10429000FDF7ECF9322003F0EEFB1048FDF7E6F9EC
:1042A000EDE72868FFF718F8F1E72868FEF7A4F9AA
:1042B000C2E72868FEF76EFCBEE700BF20020020C0
:1042C0000C04002056040020480200204402002074
:1042D000DFE1000855040020A4020020E5E1000809
:1042E0000010024073B50C4E0C4A0D4D10700C4678
:1042F0000A233178009301239940284600F036FFC5
:10430000317814230093224602234900284601F005
:1043100005F802B070BD00BF000000203002002090
:104320005002002007B5074B074A517019781070EA
:104330001423009349000223044800F017FF03B040
:104340005DF804FB00000020300200205002002035
:1043500008B507210846FFF7E5FF0A2003F097FBA1
:1043600007200021FFF7DEFFBDE808400A2003F028
:104370008EBB08B500210620FFF7D4FF0A2003F00A
:1043800086FB80210320FFF7CDFF0A2003F07FFB8F
:1043900007210846FFF7C6FF0A2003F078FB01213A
:1043A0000620FFF7BFFF0A2003F071FB20217F20CA
:1043B000FFF7B8FF0A2003F06AFB2F210120FFF767
:1043C000B1FF0A2003F063FB00210846FFF7AAFFB4
:1043D0000A2003F05CFB00217F20FFF7A3FF0A20E7
:1043E00003F055FB07200021FFF79CFFBDE80840C4
:1043F0000A2003F04CBB00002DE9F0472DED028BA5
:1044000082B00023ADF80430FFF7B3FFFFF7A0FF41
:1044100000F040FB9FED3A8B3F4D82460A2003F0AF
:1044200036FB0FF2E409D9E9008985ED008B00F035
:1044300031FBA0EB0A006328F9D9372001A9FFF767
:1044400051FF364BBDF804001A78354B354C1B78BC
:104450001343C0BA51D0FCF765F8334B0022FBF789
:1044600015FF0F46064600F015FBA0EB0A00FCF70F
:1044700049F827A3D3E90023FCF7E8F932463B4685
:10448000FCF7BAF842464B46FCF7B6F8D4E90023ED
:10449000FBF7FCFEC4E9000100F0FCFAA0EB0A0007
:1044A000FCF730F81AA3D3E90023FCF7CFF9324622
:1044B0003B46FCF7A1F842464B46FCF79DF8D5E990
:1044C0000023FBF7E3FE194B06460F460022D4E912
:1044D0000001C5E90067FCF715FB08B184ED008B0E
:1044E000124B002230463946FCF70CFB08B185ED33
:1044F000008B00F0CFFA824699E784ED008BF8E755
:10450000000000000000000052B81E85EB51F03F93
:10451000000000000004D0402802002055040020C4
:1045200054040020580400200000E03F0080864032
:1045300082B00E4B00220092596C41F480415964C4
:10454000596C01F48041009100990192196C41F07D
:10455000805119641B6C03F080530193019B0F2160
:104560006FF0010002B000F0C1BA00BF0038024095
:1045700030B5044689B01422002103A805F090F953
:104580002268184B9A422AD1174C184800250195E9
:10459000236B43F002032363236B03F002030193B5
:1045A0004FF44072019B1223CDE90323032104231E
:1045B000CDE9061303A900F047FB0295236C43F4F1
:1045C00000132364236C03F4001302931F202A4674
:1045D0000521029B00F08AFA1F2000F0B9FA09B009
:1045E00030BD00BF005400400038024000040240CB
:1045F00010B5044688B01422002103A805F050F934
:1046000023681B4A93420DD100230093194B5A6C27
:1046100042F001025A645B6C03F001030093009BBB
:1046200008B010BD144A9342FAD1124B134800212E
:1046300001915A6C42F002025A645A6C02F0020272
:104640000192019A02911A6B42F004021A631B6BE9
:1046500003F004030293029B4FF4A0720223CDE9FE
:10466000032303A90323079300F0EEFAD8E700BF62
:1046700000000140003802400004014000080240F0
:1046800070B514228AB0044600210DEB020005F03B
:1046900007F92368B3F1804F37D103F50E330024B7
:1046A00000941A6C284842F001021A641A6C02F055
:1046B00001020092009A01941A6B42F001021A63FF
:1046C0001A6B02F001020192019A02941A6B42F0F5
:1046D00002021A631B6B03F002030293029B022681
:1046E0004FF40043012505A9CDE90536099500F0F1
:1046F000ABFA0823CDE90536CDE9074409951348FF
:1047000005A900F0A1FA0AB070BD114A9342FAD18E
:10471000104B002103911A6C42F004021A641A6CC7
:1047200002F004020392039A04911A6B42F002020F
:104730001A631B6B03F002030493049BC022022341
:10474000CDE905230993DAE70000024000040240A6
:10475000000800400038024010B5044688B014221A
:10476000002103A805F09CF82268164B9A4227D135
:1047700003F50D33002401941A6C134842F0020231
:104780001A641A6C02F002020192019A02941A6BE6
:1047900042F002021A631B6B03F002030293102221
:1047A000029B03A90223CDE90323079300F04CFAEF
:1047B0001D202246052100F099F91D2000F0C8F9BE
:1047C00008B010BD000400400004024010B50446CB
:1047D00086B01422002101A805F062F822680E4B71
:1047E0009A4216D1002300930C4B0D481A6B42F0ED
:1047F00010021A631B6B03F010030093009B4FF42D
:1048000080420223CDE9012301A90123059300F091
:104810001BFA06B010BD00BF000001400038024086
:104820000010024010B5044688B01422002103A8ED
:1048300005F036F82268184B9A422BD103F5F8336D
:10484000002401941A6C154842F480221A641A6CF0
:1048500002F480220192019A02941A6B42F004023F
:104860001A631B6B03F0040302934FF44062029B34
:104870000223CDE9032303210723CDE9061303A96E
:1048800000F0E2F927202246052100F02FF9272029
:1048900000F05EF908B010BD00480040000802407A
:1048A000FEE7FEE7FEE7FEE7FEE7704708B500F02B
:1048B000E5F804F0F7F8012803D0BDE8084004F05B
:1048C00001BC08BD014801F0EBBF00BF340300206C
:1048D000014800F0F7BF00BF50020020014802F07D
:1048E000CFBE00BF0C0400200120704708B504F0C3
:1048F0009FFF162303604FF0FF3008BD08B504F09A
:1049000097FF16230360FEE770B50D4614460E466A
:10491000731B9C4201DC204670BDAFF3008006F89B
:10492000010BF5E770B50D4614460E46731B9C420D
:1049300001DC204670BD16F8010BAFF30080F5E7EF
:104940004FF0FF3070474FF400534B60002070472A
:1049500001207047002070470B4A116810B50346CC
:1049600009B90A491160106809490A4C0344091B36
:104970008B4206D904F05CFF0C2303604FF0FF303C
:1049800010BD1360FCE700BF60040020C863002076
:104990000000022000040000034AD2F8883043F4EB
:1049A0007003C2F88830704700ED00E0DFF834D0C3
:1049B0000D480E490E4A002302E0D458C450043377
:1049C000C4188C42F9D30B4A0B4C002301E013604E
:1049D0000432A242FBD3FFF7DFFF04F02FFFFCF706
:1049E0004FFB70470000022000000020E80100207B
:1049F000C4F10008E8010020C4630020FEE70000C5
:104A000038B50E4A0E4B054618784FF47A73B3FB4F
:104A1000F0F31068B0FBF3F000F0A8F8044658B9C2
:104A20000F2D09D8024629464FF0FF3000F05EF8FE
:104A3000044B20461D6038BD0120FCE70400002027
:104A4000080000200C00002008B50B4B1A6842F447
:104A500000721A601A6842F480621A601A6842F49E
:104A600080721A60032000F02FF80F20FFF7C8FFB4
:104A7000FFF75EFD002008BD003C0240034A044BE6
:104A800011681B780B441360704700BF640400205A
:104A900008000020014B1868704700BF6404002024
:104AA00038B50446FFF7F6FF631C1CBF054B1B78A7
:104AB000054618BFE418FFF7EDFF431BA342FAD3E6
:104AC00038BD00BF080000200749CA6822F4E06230
:104AD0000302120403F4E063120C134343F0BF63B8
:104AE00043F40033CB60704700ED00E0164B30B567
:104AF000DC68C4F30224C4F10705231D042D28BF7C
:104B00000425062B4FF0FF338CBF033C002403FA2F
:104B100005F521EA0501A34022EA0302A14000288D
:104B200041EA0203ACBF00F16040084A4FEA0313B8
:104B3000B8BF00F00F00DBB2AABF00F5614013540C
:104B400080F8003330BD00BF00ED00E014ED00E060
:104B5000002808DB4209012300F01F0003FA00F0DF
:104B6000014B43F82200704700E100E00138B0F14A
:104B7000807F0BD24FF0E023054A5861F02182F884
:104B800023100020072298611A61704701207047A6
:104B900000ED00E070B50446866DFFF77BFF94F8EA
:104BA0003530022B054606D080236365002384F848
:104BB0003430012070BD23681A6822F016021A6092
:104BC0005A6922F080025A61226C0AB9A26C1AB1A9
:104BD0001A6822F008021A601A6822F001021A60AC
:104BE00023681B6813F001030AD1E16D3F228A405C
:104BF000B260012284F8352084F834301846D9E7B1
:104C0000FFF748FF401B0528EAD9202363650320EE
:104C1000002384F8350084F83430CBE790F8353041
:104C2000022B03D0802343650120704702680523CF
:104C300080F83530136823F00103136000207047BB
:104C400090F83500704700002DE9F74FDFF8A89184
:104C5000674A00230D6801249C4004EA050CAC431C
:104C600040F0B1804D6805F003044FEA4308032685
:104C7000671E06FA08F6012F6FEA060634D8876821
:104C800007EA060ECF6807FA08F747EA0E078760BB
:104C9000476827EA0C0EC5F300179F4047EA0E0746
:104CA0004760C76807EA060E8F6807FA08F747EA01
:104CB0000E07022CC76019D14FEAD30A00EB8A0A0B
:104CC00003F0070BDAF820704FEA8B0B4FF00F0E52
:104CD0000EFA0BFE27EA0E0E0F6907FA0BF747EAEA
:104CE0000E07CAF8207001E0032CDAD1076804FA35
:104CF00008F43E40264315F4403F066063D04FF071
:104D0000000ACDF804A0D9F844603A4C46F4804635
:104D1000C9F84460D9F8446006F480460196019EC3
:104D200023F0030606F1804606F59C3603F0030ED9
:104D3000D6F808804FEA8E0E0F2707FA0EF7A0422A
:104D400028EA070746D004F58064A04244D004F561
:104D50008064A04242D004F58064A04240D004F5B3
:104D60008064A0423ED004F58064A0423CD004F5AB
:104D70008064A0423AD004F58064A0420CBF0724AE
:104D8000082404FA0EF43C43B46094686FEA0C06FD
:104D9000EF0254BF34404CEA04049460D468AF027C
:104DA00054BF34404CEA0404D4605468AF0354BF89
:104DB00034404CEA040454601468ED0354BF34409A
:104DC0004CEA040414600133102B7FF443AF03B0AA
:104DD000BDE8F08F5446D4E70124D2E70224D0E79F
:104DE0000324CEE70424CCE70524CAE70624C8E759
:104DF000003C014000000240003802400AB18161DD
:104E000070470904FBE7436901EA030221EA030151
:104E100041EA02418161704701684B6913F4806384
:104E20004FF0000210D06FF480634B6120230263C7
:104E300080F83D3080F83E20036C80F83C2043F041
:104E40000403036401207047184670472DE9F846B3
:104E500006460F4691461D464FEA114A3368BAF19D
:104E6000010F0CBF5C699C6927EA0404A4B2B4FA80
:104E700084F46409A14501D0002017E06A1CEED03B
:104E8000FFF708FE089BC01AA84201D8002DE5D103
:104E900000232022336386F83D2086F83E30326CB2
:104EA00086F83C3042F0200232640120BDE8F886EA
:104EB0002DE9F04104460F46164698462568686974
:104EC00027EA000080B2B8B16B695A0516D52B6885
:104ED00043F400732B606FF480636B612022002326
:104EE000236384F83D2084F83E30226C42F00402B3
:104EF000226484F83C300120BDE8F081731CDED0D0
:104F0000FFF7C8FDA0EB0800B04201D8002ED5D1B4
:104F100000232022236384F83D2084F83E30226C55
:104F200042F02002E4E770B504460D4616462168BB
:104F30004B6913F0400301D0002010E04A69D2060B
:104F40000ED56FF010024A612022236384F83D20C1
:104F500084F83E30226C226484F83C30012070BD1D
:104F6000FFF798FD801BA84201D8002DDFD1002358
:104F70002022236384F83D2084F83E30226C42F0E6
:104F80002002E8E770B504460D46164623685B69C3
:104F90005B0701D5002070BD2046FFF73DFFA8B993
:104FA0006A1CF3D0FFF776FD801BA84201D8002DC4
:104FB000ECD100232022236384F83D2084F83E3086
:104FC000226C84F83C3042F0200222640120E2E7A7
:104FD00070B504460D46164623685B691B0601D56D
:104FE000002070BD2046FFF717FFA8B96A1CF3D058
:104FF000FFF750FD801BA84201D8002DECD1002303
:105000002022236384F83D2084F83E30226C84F80B
:105010003C3042F0200222640120E2E770B50446F1
:1050200008B9012070BD90F83D3003F0FF021BB9B4
:1050300080F83C20FFF79CFA242384F83D30236855
:105040001A6822F001021A601A6842F400421A60DB
:105050001A6822F400421A6001F0FEFA3F4B6568BC
:105060009D4294BF3E4B3F4B98428CBF002301238F
:10507000002BD6D12268394E53683B49B0FBF1F181
:1050800023F03F030B43B542536088BF4FF496763D
:10509000136A88BF714323F03F0384BF4FF47A76CD
:1050A000B1FBF6F1013119431162D169431E2B485E
:1050B00021F44F41854221F0FF0132D86D0040F6C6
:1050C000FC70B3FBF5F30133034242D0C3F30B038F
:1050D0000B43D361D4E907301168034321F0C001C9
:1050E0000B4313609168D4E9030321F403410343A4
:1050F00021F0FF010B439360D4E90530D1680343ED
:1051000021F0FF010B43D360136843F001031360E8
:1051100000202023206484F83D30206384F83E0082
:1051200080E7A06850B905EB4505B3FBF5F3013303
:10513000C3F30B037BB143F40043C9E71920454394
:10514000B3FBF5F30133C3F30B0323B143F4404343
:10515000BEE70423BCE70123BAE700BFA086010035
:105160007F841E00FF083D0040420F002DE9F04300
:10517000044685B098460C9F0D469146FFF78AFC81
:1051800094F83D30202B064604D00225284605B071
:10519000BDE8F08300905D49192301222046FFF706
:1051A00055FE0028F1D194F83C30012BEDD0216858
:1051B000012384F83C300B68DA075EBF0B6843F0CC
:1051C00001030B600B6823F400630B60212384F858
:1051D0003D30102384F83E3000232364A4F82A8055
:1051E000638D23854A4BE362E36AC4F82490082B5D
:1051F00004D0012B02D013F5803F04D10B6843F497
:1052000080730B6002E0236B122BF7D00022009614
:105210003B464FF001112046FFF718FE226838B1D7
:105220001368DB0544BF4FF4007323640125ADE729
:105230002369B3F5804F21D105F0FE05156135498D
:1052400033463A462046FFF733FE05460028EDD1A7
:10525000236803905A6903929B690393039B238DF0
:10526000F3B921680A6842F400720A60202284F8C7
:105270003D2084F83C3084F83E3087E7EB1103F0A2
:10528000060343F0F0031361234933463A462046B0
:10529000FFF70EFE0028C9D12368EDB21D61CEE7ED
:1052A000324639462046FFF793FE40B1236C042B6B
:1052B000BCD12268136843F400731360B6E7636AD5
:1052C00020681A4612F8011B01616262628D013A80
:1052D00092B26285228DD0F814C0511E89B21CF0A2
:1052E000040F21850AD049B1597801610233636204
:1052F000638D013B9BB2023A638522853246394673
:105300002046FFF73FFE0028A9D0CFE7020010009B
:105310000000FFFF02000100080001002DE9F0433A
:10532000044689B09846109F0E469146FFF7B2FB9F
:1053300094F83D30202B054604D00226304609B0B3
:10534000BDE8F08300909A49192301222046FFF717
:105350007DFD0028F1D194F83C30012BEDD021687F
:10536000012384F83C300B68DB075EBF0B6843F019
:1053700001030B600B6823F400630B60222384F8A5
:105380003D30102384F83E3000232364A4F82A80A3
:10539000638D2385874BE362E36A0A68C4F824902F
:1053A00042F48062082B0A6004D0012B02D013F56E
:1053B000803F04D10B6843F480730B6002E0236BE1
:1053C000112BF7D03B46009500224FF001112046EB
:1053D000FFF73CFD236838B11B68D80502D54FF4B0
:1053E000007323640126A9E72269B2F5804F27D113
:1053F00046F00106F6B21E616F492B463A4620463A
:10540000FFF756FD06460028ECD1238D2168002BBE
:105410004BD103904B6903938B690393039B0B68F8
:1054200043F400730B60DFF89881238D002B64D167
:10543000202284F83D2084F83C3084F83E307DE71B
:105440004FEAE61808F0060848F0F0021A615B49D6
:105450002B463A462046FFF72BFD0028C2D1236891
:105460005549F6B21E613A462B462046FFF720FD0D
:105470000028B7D1236807905A6907929A69079262
:10548000079A1A6842F480721A604FF001110246BE
:1054900000953B462046FFF7D9FC226808B1136807
:1054A0009BE748F0F1031361A6E7012B0AD10B68D3
:1054B00023F480630B6004904B6904938B6904931D
:1054C000049BACE7022B0B680DD123F480630B60C7
:1054D0000B6843F400630B6005904B6905938B697F
:1054E0000593059B9FE743F480630B6006904B692F
:1054F00006938B690693069B95E7032B62D8012BD5
:1055000016D12A4639462046FFF70DFD00287FF4C4
:1055100069AF23681A69636A1A70636A0133636248
:10552000238D013B2385638D013B9BB263857CE723
:10553000022B00953B464FF00002414620461AD10F
:10554000FFF784FC00287FF44DAF23681A6842F40B
:1055500000721A601A69636A1A70626A531C636285
:10556000238D013B2385638D013B9BB263852368BB
:105570001B695370D1E7FFF769FC00287FF432AF55
:1055800023681A6822F480621A601A69636A1A70C2
:10559000636A009501336362238D013B2385638D2C
:1055A000013B9BB2638502463B4641462046C7E726
:1055B000020010000000FFFF0200010008000100CF
:1055C000040001002A4639462046FFF7ACFC0028BB
:1055D0007FF408AF23681A69636A1A70626A531C01
:1055E0006362238D013B2385638D013B9BB2638501
:1055F0002368596949077FF518AFB9E770477047C5
:105600007047704770477047704790F83D2008B565
:10561000036DD2B283B9C36C0268012B836C05D1D0
:10562000DBB21361036D0233036508BDC3F30723C7
:105630001361036D0133F7E7036D012B03D1836C15
:105640000268DBB2F4E7036D022BEED1222A05D10A
:105650000268136843F480731360EAE7438D9BB2DA
:1056600063B1212A0AD1436A026813F8011B116150
:105670004362438D013B9BB24385D6E7438D9BB28A
:10568000002BD2D1212AD0D10268516821F4E061E7
:105690005160116841F4007111602022036380F8A9
:1056A0003D2080F83E30FFF7AFFFBEE77047704700
:1056B0007047000037B5002301932D4B806B1B68AA
:1056C00090F83D2046F2A811B3FBF1F323214B43A0
:1056D00001930368D2B2019941BB016C41F02001F2
:1056E0000164446B0CB10021E163816B09B10025B9
:1056F000CD631D6825F480651D600025458504B1D6
:10570000256501B10D65196821F00101196090F856
:105710003D10602911D1202380F83D30002380F80E
:105720003E300364FFF7C4FF03B030BD0199013977
:10573000019119688905CED4D3E702F02802282AFE
:105740000ED1196841F001011960196841F48061B6
:1057500019600023036380F83D20FFF7A8FFE3E70B
:10576000202380F83D30002380F83E30F5E700BF6D
:105770000400002010B590F83D2090F83E30102B2A
:10578000D9B204460368D2B201D0402913D1222AEB
:1057900011D1196821F400611960596811F4006190
:1057A00006D1602A1EBF202284F83D2084F83E10D6
:1057B0000022226307E002F028012829EDD100220F
:1057C000226384F83D105A6812F400624FD05A6880
:1057D000606B22F400625A6090F83530012B374B31
:1057E0002BD00365FFF71AFA50B12268606B13687B
:1057F00023F001031360202384F83D30036D9847A4
:10580000236C19071FBF2268536823F4E0635360B9
:1058100094F83D30226C5207DBB20DD5282B0BD10A
:10582000274BE362202200232363204684F83D2097
:1058300084F83E30FFF7E7FE10BDA06B0365FFF76D
:10584000EDF90028DCD023685A69510605D51A699C
:10585000636A1A70636A013363622268A06B13681B
:1058600023F001031360202384F83D30C6E794F849
:105870003D10602915D1202184F83D1022645A6919
:10588000520605D51A69636A1A70636A0133636246
:105890002268136823F0010313602046FFF708FF16
:1058A000AEE75A69500605D51A69636A1A70636AC9
:1058B000013363622046FFF7FAFEA1E7B556000800
:1058C0000000FFFFF0B5036804465A68C66A90F806
:1058D0003E0094F83D1010288FB0C5B2C9B202D076
:1058E000402D40F0C0829F69586910F0010F07D128
:1058F000B6F52A0F02D0B6F12A4F51D10FB0F0BD44
:1059000096054DD5E26AB2F52A0F0CD10122E2626A
:1059100094F83E20402A11D1226D52B9626C02F0F7
:10592000FE021A61EAE7E26AB2F12A4FF0D10822D8
:10593000EDE7626C42F00102D2B2F2E72269B2F501
:10594000804F1AD194F83D20212A626C11D102F0C7
:10595000FE021A61626B0AB1D26B2AB9A26B002AED
:10596000CCD0D26B002AC9D05A6842F400625A6087
:10597000C4E742F00102D2B2EBE7226D32B9626CA9
:10598000D21102F0060242F0F002CAE7226D012AAB
:10599000B4D1626CD21102F0060242F0F102C0E70B
:1059A000060703D5960501D5626CE4E7860740F14A
:1059B000DD80960540F1DA8094F83E10E26A256BAE
:1059C00094F83D002228C9B240F0C880206D40B94B
:1059D000402906D101905A6901929B690193019B6C
:1059E0008CE7216D89B92069B0F5404F0DD1029146
:1059F0005A6902929A690292029A1A6842F4807273
:105A00001A60236D0133236578E7618D89B251B93E
:105A100003915A6903929A690392039A1A6842F4AD
:105A200000721A6019E0618D89B2012949D112F51D
:105A3000803F1BD11A6822F480621A605A6812F4FF
:105A400000620CD01A6822F480621A60002204926C
:105A50005A6904929B690493049B0023D3E705923F
:105A60005A6905929A690592059AD7E7082A1CD0C7
:105A7000202A1AD0122D0DD1012A16D11A6822F42B
:105A800080621A60002206925A6906929B69069308
:105A9000069BE2E7102AF1D8914921FA02F2D707D2
:105AA000ECD51A6842F48062EBE71A6822F480624F
:105AB0001A60002207925A6907929A690792079A18
:105AC000ACE7618D89B202292AD1102A03D8844912
:105AD000D140CE0720D4196821F48061196019687B
